:020000040800F2
:10000000F0080020C5CE0008D1C40008D5C40008FF
:1000100000000000000000000000000000000000E0
:10002000000000000000000000000000D9C400082B
:100030000000000000000000DDC40008E1C400086A
:10004000DB3E00080000000021990008DF3E0008A8
:100050001B400008FBC400080F6D000819C500080C
:1000600000000000F7C40008F9C400089B700008F5
:100070004F710008A78000085F950008000000008D
:10008000E9C4000800000000000000003F970008DD
:10009000779F000803AD000823C50008CFD90008EA
:1000A000DBD90008AFDA000839DF0008EBC400082C
:1000B000F5C400084007400F704780B2C0108007A9
:1000C000800F704780B240118007800F7047994AB7
:1000D0000240C9B24801104380B2704780B20100AB
:1000E000C9110800C007C00F7047934A0240C801F9
:1000F000104380B2704780B2000A80B27047A849AE
:10010000C0B20818407880B2704780B5C0B2FFF71F
:10011000F6FF012180B2FFF7E8FF02BD00B5A0495C
:10012000C0B2095CFF2900D0401EC0B200BD00B5BE
:100130009B49C0B208184078FF2801D0012000E098
:100140000020C0B200BD10B50C0002E0C0B2FFF745
:10015000E5FF21004C1EC9B20029F7D1C0B210BD85
:10016000017840780002084380B2704701784278F5
:1001700012020A43817809041143C078000608433B
:100180007047C178827812020A434178090411430A
:1001900000780006084370470A00027089B2090A15
:1001A000417070470A0002700A00120A42700A0089
:1001B000120C8270090EC17070470A00C2700A00EA
:1001C000120A82700A00120C4270090E0170704708
:1001D000FF20704770B502000B000021CE4C0025B7
:1001E00000E06D1C9D420FD2505D000248400100AE
:1001F000082001E04900401EC0B20028F1D00E04E2
:10020000F8D549006140F6E7080080B270BDF2B54C
:10021000040015001E0010210022C04F380002F01B
:100220009FF84920BD490870002D03D00120BB492B
:10023000487102E00020B9494871B848C6732100EE
:10024000B748FFF7AFFF0099D148FFF7ABFFF1BD0B
:1002500070B50400080011001A00059D2B00FFF77F
:10026000D6FF10222100CB4C200002F0A3F8049C02
:100270002A0092B22100022002F032F90600601931
:10028000FFF77FFF864201D1012000E00020C0B2CD
:1002900070BD38B50400080011001A00059D2B0040
:1002A000FFF7B5FF10222100BA4C200002F082F8BF
:1002B000049C2A0092B22100022002F011F90100F0
:1002C0006019FFF77AFF31BD38B504000D00B14861
:1002D00002F056FD2A0092B221000A2002F000F935
:1002E00001006019FFF769FF31BD70B504000D0012
:1002F000A84802F045FD2A0092B221000A2002F02F
:10030000EFF806006019FFF73CFF864201D101209B
:1003100000E00020C0B270BD38B504000D009D485B
:1003200002F02EFD2A0092B22100002002F0D8F83F
:1003300031BD00009FFF00007FFF0000F4B5040006
:100340000D001E000798012829DB10210022734FA1
:10035000380002F005F801207049C8736F48C07B6F
:100360006E490870002E03D001206C49487102E0EC
:1003700000206A49487129006948FFF713FF009976
:100380008348FFF70FFF10222100824C200002F06B
:1003900011F8079A92B20699042002F0A1F8F1BD73
:1003A000B0DD0008F8B506000F0014001D00102194
:1003B0000022200001F0D4FF012020700622390025
:1003C00027007F1C380001F0F5FF310089B22000C2
:1003D000C01DFFF7E1FE10222100280001F0EAFF16
:1003E000022028706B4802F0CBFC10222100002074
:1003F00002F076F8674802F0C3FC102229000020C2
:1004000002F06EF8F1BD38B50500280080B2FFF7A4
:1004100051FE0400280080B2FFF74FFECC49E4B241
:10042000032254430919085C8D3832BDF1B582B0FE
:100430000D0068460089FFF740FE6946487068462F
:100440000089FFF737FE0400E4B2002C09D1EDB2B9
:100450000B35FA20400145432800A84902F04CFF23
:1004600058E02600B61D04204643E4B2052C01DB0B
:10047000082000E000206946301A087068460089AC
:10048000FFF72CFE002801D0002700E01027684667
:100490000089FFF730FE002801D0142000E0002082
:1004A000EDB208214D43F6B2A91BC9191C31081A37
:1004B000012812DB694609784018401E6946097810
:1004C00002F01AFF050068460089FFF7FBFD0100F6
:1004D000491D28004843083000E0082080003130E2
:1004E000641C69464978661AB74DF6B2052E02DBE0
:1004F000311F0D410426B040FA2189004843040011
:100500002800022102F0F8FE010020004018290016
:1005100002F0F2FEFEBD000021100000C40E00201B
:10052000CA0E002070B50C00C0B2002806D1A44845
:100530006021455EA2486221405E0CE0A049602235
:10054000895EC0B241430D00ED119D496222895E72
:10055000C0B24843C011052699496422895E994A70
:1005600012784A4380189949E4B2042262438958B8
:1005700002F0C2FE401D92498875F6B2083E9348CB
:10058000E4B204214C4300594643701970BD000089
:10059000CE0E0020D80C002010B5C9B200290ED014
:1005A00000218B4A118000218A4A11800021854A4E
:1005B0001170894909780C220A4387490A708349D6
:1005C000CC68C0B20021FA229200002302F0EEFEB5
:1005D000824A002312184B4110001900FA2292009F
:1005E000002302F0FCFE210002F086FE401D7C4943
:1005F00008707C480068FA21490240187849097857
:1006000008396143401A9249086010BD70B5040072
:10061000102100228F4D280001F0A2FE08210022A7
:100620008D4D280001F09CFE8C4801688C48FFF736
:10063000B9FD8C4801688C48FFF7B4FD1022884949
:10064000002001F04DFF65788548FFF789FD010026
:1006500086480722521B1041084062490E681E213D
:100660004843C117FA229200002302F09FFEFA22AB
:100670009200002302F0B3FE30187D4940186060FC
:100680000020A07021780120A840801CC0B2FFF794
:1006900049FF6168081AA0604948807DE07070BD1C
:1006A00070B504000E0012E021782818801CC0B23A
:1006B000FFF738FF6168EDB2F022520255432A007D
:1006C000D2118918081AA0603D48807DE070A068AA
:1006D000801B002801D401200FE0A578EDB2802D09
:1006E00001DB002009E001206178884029180D0015
:1006F000A170C9B28029D7DB002070BD50C30000B3
:1007000070B5040002F0C4FFC0B20602350002F06A
:10071000BFFF2E000643B6B230008849884206DB90
:10072000B6B23000FA21890002F0E6FD0800E4B21A
:10073000002C0BD00500F6B23000E4B2210002F02C
:10074000DBFDFA20800041432800401870BD000006
:1007500020DA000810B504000800C0B2FFF7D0FF8F
:1007600001002000401863490978002904D0144989
:10077000096D411A012908DB11490865884800887C
:100780008021490001438648018010BD6C480170FA
:10079000704700B552B27F20C043824201D0694801
:1007A000027067480078C9B2884208D06448017076
:1007B0007B4800888021090101437948018000BD00
:1007C000F0080020D1090020093D0000E4D700080E
:1007D0005009002054090020360A0020E7030000D9
:1007E000290A0020300A002038B504001021002218
:1007F0006C4D280001F0B4FD082100226A4D28004C
:1008000001F0AEFD0020002007E03F217F4AC0B28A
:1008100002234343D2189187401CC0B20828F4DB5E
:10082000E4B2002C03D1FF207949088002E00120C6
:10083000774908800A207549888614207549087010
:1008400002F026FF602102F057FDA348017031BD80
:100850002C0A0020D80C0020F0090020380A0020C3
:10086000E8090020B0090020EC090020FF0F00007B
:100870004808000070B505000C001600EDB2082D08
:1008800001DB002034E07E4800787E4948437E4901
:10089000401884420DD27A4800787A4948437B490F
:1008A0004018A04205D22000794902F028FD002915
:1008B00001D000201CE0B6B2002E01D13F26FFE798
:1008C0005248EDB202214D434019868750480588B1
:1008D00001266B4800786B494843201A7F4940182D
:1008E0006B4902F00CFD86402E43494806800120EA
:1008F00070BD00003F09002010B5401EFFF736FC18
:100900000400240A642044435D4800785D4948435C
:100910005D49401884420DD25948007859494843EE
:100920005A494018A04205D22000594902F0E7FC7C
:10093000002901D0002000E0200010BDE9030000E4
:100940004C0900204B09002000B54D4A1278D2B264
:100950005208C0B2904201D0002020E0FF20484A57
:1009600012781300DB07DB0FDA009040002801D17A
:10097000012000E000200A001300DB07DB0F034228
:1009800001D000200BE0FF203D4A12781300DB0766
:10099000DB0FDA00904008409A490880012000BD32
:1009A000480900202C0900202409002038B5040043
:1009B0001648806A002802D01448806A00E0474840
:1009C00091490978324A51432D4A12785E4B5A4375
:1009D00089180D185D4801780C48808AFFF726FDBC
:1009E0005B490A4AD5608A78084B1A760A884243DE
:1009F000A2184A6085490978002905D083490978F9
:100A0000884020180149086531BD0000F008002029
:100A10003C0900202609002030B57D494418B4481F
:100A2000846B2D480078002500E06D1CEDB2082D88
:100A300024DA401CC0B2082804DBC0B2082102F04E
:100A40005BFC08006F490988012282401142ECD00A
:100A5000A749C0B2022242438918898F6D4A127891
:100A60001207120F89B2D140C907DED51A490870A2
:100A70001948007864490870200000E0200030BD6B
:100A800020090020006A180060BAD71C2043BC1C53
:100A9000400D0300704780B500205B4908701420AA
:100AA0005D4908705D4800785D49087005210020A7
:100AB000FFF76CFE0120FFF797FE5A4800880005FB
:100AC00000D5FEE70820FFF71BFE8949896B08184F
:100AD0008749486001BD0000270900206050BF1C05
:100AE00038B500244B480078002805D105210120A5
:100AF000FFF74CFE012408E046480078FFF70EFBA4
:100B00000100C9B20120FFF741FE4648008879493B
:100B100001404448018002F0B6F905007448806B3A
:100B2000281A002801D57248856BFF2039490978B9
:100B30000841C0B2FFF7E4FD28186F4940186C491E
:100B40004860E4B2200032BD80841E00E709002026
:100B50002409002080B501F011FA01BD80B5C0B2B2
:100B600002F02BF901F00AFA01BD80B501F050FB4B
:100B700000F0E5FF0C20FFF7F1FF01BD00B50020FC
:100B80005E4908605D4800685D49086000205D4975
:100B9000087000205C4908705C4908705C49087066
:100BA0005C49087000205C4908705C4908705C4929
:100BB00008705C49087000205B49087000205B49A0
:100BC00008701F20C0435A4908705A48006800281E
:100BD0000ED14748C06A002801D1574801E0444877
:100BE000C06A56490978564A514308185149086065
:100BF000052054490870544854490860032054495A
:100C0000087000BD3C0900203E0900203F0900207B
:100C1000005125024C0900204B090020C909002081
:100C2000C80900204809002038B54A480078112832
:100C300000D0FEE7484C07212000FFF7CBFAE1790E
:100C4000C0B2814201D0002050E02000FFF78EFAB0
:100C50000002000A2649496D884202D00020C043A4
:100C600044E03E480078FC2101403C4801702048A7
:100C7000807C3B4908701E48008A3A4908701C482D
:100C800080689038384908602000C01CFFF76EFA71
:100C90003649086031480078012101432F4801702E
:100CA00020000F30FFF75CFA05000F212000FFF74E
:100CB00091FAADB2854201D0012017E02000083042
:100CC000FFF754FA00122A49086020000B30FFF7A2
:100CD0004DFA001227490860207A274908701F48FA
:100CE0000078022101431D480170022032BD00003E
:100CF000F0080020FFF70000B80B0000B809002042
:100D0000B40900204E090020C1090020C0090020BC
:100D1000BE090020BC090020C4090020C50900202C
:100D2000D0090020C3090020D30900204A0900206F
:100D3000BD090020CC0900206050BF1C2009002004
:100D400080841E00280A002008E6D333E009002032
:100D5000D4090020E7090020E8090020360A002015
:100D6000350A0020340A0020300A0020380A00200A
:100D7000400A0020440A00203C0A0020F0B589B057
:100D8000B54E3078E0240440B4490F780C2F07DBCF
:100D9000800705D1E4B2602C07D0E4B2A02C04D0C7
:100DA0000020AE490870002031E275793000401C07
:100DB000FFF7DCF900903000801DFFF7D1F90390B8
:100DC0002807000F0790202028404011089007981E
:100DD000083002903F1F04970098C1490968884273
:100DE000DED1049802998842DADB0020C0430590E6
:100DF0000020069002980499884205DA0298305C37
:100E000005900298401C0290C04800680399BF4AB0
:100E10001268891A89B240180390049801900096CC
:100E20000123039AAE480168CB48FFF711FA002866
:100E3000B6D00398B5490968884215D2B34800680E
:100E400003998842ACDB0398B0490968491E88427F
:100E500006D1C2480078002802D0E4B2A02C00D00D
:100E60009EE7012006900DE00398401CA74908600A
:100E7000E4B2A02C03D12020B849087002E0002081
:100E8000B6490870B5480078002801D1E80605D5B4
:100E9000C748008810210143C54801800020C5498A
:100EA0000870C4480078C4490870C448CD21405631
:100EB0007F21C943884203D01F20C043C049087026
:100EC000BE481021445E403CBC48808AFFF79BFA34
:100ED000201A002803D50020CE49087007E0FF281B
:100EE00003DBFE20CB49087001E0CA4908703700D7
:100EF0000837002400E0E41C0798844200DB2FE15F
:100F0000385D0228F7D0032810D0042800D18BE0E8
:100F100005285BD0062854D0072800D1A0E011286E
:100F200000D1CDE0122800D1DCE019E13819457874
:100F30003819801CFFF714F939190979F0220A4091
:100F400069463B191B791B071B0F4B70641D8721DA
:100F5000BE4B1970010089B21000C0B2FFF7F4FC5B
:100F6000002805D1B9480078FE210140B74801703A
:100F700068462900C9B20909017068460078FFF780
:100F8000D6F8002805D1B1480078FD210140AF48CE
:100F90000170AE4800784006400E07280DD1684623
:100FA00040789D4908709D48EDB22907090F4256C7
:100FB000684601780420FFF7ECFB01207E490870A9
:100FC0009AE70120A2490870641C95E76846391920
:100FD00049780907090F01703819801CFFF78CFC4C
:100FE0000500641D80209B49087068460078FFF763
:100FF0009EF8002805D097480078022101439548C3
:101000000170002D05D093480078012101439148DB
:10101000017090480078832805D1684600789A4985
:1010200008709A48056067E738194078A41CC0B278
:10103000FF2805D15E49098840220A435C490A809D
:101040000007000F9249087001F01DFF5B49086519
:101050000120904908704FE7E8090020E7090020C7
:10106000381945783819801CFFF746FC3919497939
:1010700080229E4B1A70002820D00023DB4300936F
:101080009B4A0B071B0F9A409446994A13000F2264
:10109000C9B20909511A1A000A4161460A40009B67
:1010A00092B201002800C0B2FFF7E4FB002805D08F
:1010B0008E480078032101438C480170A41D1BE772
:1010C0003819401CFFF718FC241D8021002804D08B
:1010D0000A0001211143874A1060994801700BE70B
:1010E000B009002032480078800732D43819C0781F
:1010F000944908702E480088022101432C48018041
:1011000091480078002803D1FEE700BFB409002011
:101110003819401CFFF724F801002848856889B277
:101120001E204843C117FA229200002302F03EF924
:10113000FA229200002302F052F92818834940183D
:101140008349086000208349087001211E20FFF7B1
:1011500023FA241DD0E600BF90090020BC0900201E
:10116000069800281AD10598002817D404980299E7
:10117000401A012812DB0598012801DA764800E0C0
:1011800076480499029A891A01910299711800917E
:101190000123039A72490968FFF7D0F87148007873
:1011A000002815D0089800280CD080200BE000BF44
:1011B000480900204E090020BE090020F008002048
:1011C000BD09002040206849097808436649087035
:1011D000059800280CD56448007820210143624816
:1011E00001700298614908700020614908700DE0A3
:1011F0005D480078102101435B48017002985B490B
:10120000087004980299401A59490870012009B0E1
:10121000F0BD00BFBF0900204A09002064DB0008C0
:1012200080B502205049087017480078FEF76DFF1E
:1012300050498882154800684E49C86000204C49D2
:101240000870022002F080FA01BD0000C0090020F1
:10125000C1090020D009002010B50A00454949689D
:1012600008184549084B1B7804246343C9580323D5
:10127000594340183F4988603E488168891ECA48E2
:1012800001F040FE10BD0000C8090020CC0900207C
:101290003F090020C409002010B504000120324994
:1012A000087001213348808AFEF71FFF3149888288
:1012B0003048C06A002802D02E48C06A00E02F489B
:1012C0002F4909782F4A51432F4A12782F4B5A43FE
:1012D000891808182749C860002025490870254842
:1012E0004462022002F030FA10BD0000C50900205F
:1012F000FFFF0000E009002038B505000C0024487D
:101300000088244901402448814209D12348FFF73D
:101310007DF91F4800888021890001431C48018015
:10132000144840684019134988600820114988759D
:10133000220010488168891EB84801F0E3FD31BDE4
:10134000D3090020280A0020D20900200F0CFEFF3C
:10135000300A0020360A002090090020A009002051
:10136000B0090020E4090020E5090020E60900207A
:10137000E7090020F0080020E4D700086050BF1CF7
:101380003E090020400D03002009002080841E003B
:10139000480900200206000002040000D4090020D1
:1013A00080B50820FFF7DAFB01BD70B585480078ED
:1013B000012804D184480078002800D1FEE7AD4818
:1013C0000078000600D4FEE77F480078002833D17B
:1013D000A8480078400718D4A6480078800600D4B2
:1013E000FEE7A448008879490140A2480180784876
:1013F00000780A2804DA76480078401C744908709E
:101400000920FFF7ABFB0120ADE09A480088844932
:10141000014098480180FFF763FB0500E80701D50C
:10142000804C00E0804C01F02EFD220041195E4806
:1014300001F068FD012096E07C4804786248057858
:101440008D48EDB24019F430FEF790FEEDB2112D4B
:1014500002D0EDB2212D04D1E4B2E32020402028B7
:1014600006D058480078C00701D500207BE0AFE7E0
:10147000EDB2691E8A48FEF74FFFEDB2291F6B4897
:10148000FEF733FF0028ECD08648FEF76FFE04001D
:10149000854804608548FEF769FE0002000A764927
:1014A0004865834800780007000F82490870824829
:1014B0000078C0B200094007400F804908707E489C
:1014C00000784007400F7E4908700020FFF78CF934
:1014D000EDB2122D0DDB0D25032607E06648EDB2B7
:1014E0004019F830FFF708FA761CED1CF6B2082E0A
:1014F000F4DB744B744A6A4974480088401E80B219
:10150000FEF750FF7248C46510226E49714C2000EE
:1015100000F050FF10226C496F4C200000F04AFF91
:1015200002206B49C87002F06EFA524800782421FC
:10153000084200D1FEE74F480078800607D52448CE
:10154000017866480078FEF7FEFD64490870494856
:1015500000886349014047480180FFF70FFB0620E0
:10156000FFF7FCFA012070BD80B51748007800280D
:1015700002D100205B490870FFF717FF01BD80B55D
:1015800059483D494862FFF74BFE01BD80B50E4802
:101590000078002803D0FFF708FF002803D1534943
:1015A0005348FFF759FE01BD0C09002080B5514892
:1015B000FFF772FE01BD80B54F495048FFF79CFE12
:1015C00001BD0000E5090020E70900205FFF0000E1
:1015D0004E09002080B500F021FB01BD10B5484840
:1015E0000078002810D100203E49087001F04BFC23
:1015F00004000220FFF784F8424A201842494118AB
:10160000064801F07FFC01E000F008FB10BD80B54A
:101610003E4819494862FFF703FE01BD0C0900204E
:101620007FFF0000A1130008550B0008E809002007
:1016300080B533480078002803D000F0EFFA002886
:1016400011D11C480078002802D1FA20C00007E020
:1016500018480078FA2189004843FA218900401887
:101660002B49FFF7F9FD01BD80B5CD48FFF714FE0A
:1016700001BD000048090020F008002080B50D4899
:101680000078002802D1FA20800004E009480078A0
:10169000FA2189004843C349FFF72EFE01BD00002F
:1016A000E9090020EF090020B0090020EC09002022
:1016B000F4090020C7090020F3090020C609002012
:1016C000C8090020A0090020900900208E090020F0
:1016D000880D0020A40D0020B40D00204C0900202E
:1016E00059FD0000E5090020691500087F15000874
:1016F000701700008D150008AD1500088813000054
:10170000E7090020D5150008B80B0000DD1500081A
:101710000F160008F0B583B0A348007818210140E7
:10172000102901D0012500E00025EDB2002D02D0E6
:101730009E48077800E0002708249B480088C0499D
:101740000140BF4881420FD1102099490919F83151
:10175000087098480078984909780901014394482D
:101760000019F9300170A41C94480078002808D0B2
:1017700004208F490919F8310870641C00208F4932
:1017800008708F480078002810D005208849091972
:10179000F83108708A4800788007800F8449091959
:1017A000F9310870A41C002085490870854800782C
:1017B000002814D006207E490919F83108708248A3
:1017C00000787B490919F9310870FEF701FD784965
:1017D0000919FA310870E41C00207A490870994808
:1017E0000078002810D0032071490919F8310870D9
:1017F000944800784007400F6D490919F931087085
:10180000A41C00208F4908708F480078002805D05C
:10181000122067490919F8310870641C8B48007858
:1018200000280AD06248CD214056002802D5002069
:10183000874908700020854908708648007800288C
:1018400011D011205A490919F831087081480078DF
:101850000100C907C90F56480019F9300170A41CCE
:1018600000207C4908707C480078002810D00720B0
:101870004F490919F8310870774800788007800FC0
:101880004B490919F9310870A41C002072490870ED
:10189000192C00DBFEE7EDB2002D03D0FFB23800BB
:1018A000401D00E0042021000E18F6B2412E02DB9C
:1018B00000252600361D4020954908703C48CD2162
:1018C0004056002801D4402000E000207D490978DE
:1018D0007D4A12780A4310432100083901437B48AE
:1018E00001708C4801687A48FEF75CFC8A480078F1
:1018F000002804D189480068401C8849086087484E
:101900000068411E89B28648FEF746FC00206D49FA
:101910000870EDB2002D31D0A0480078002809D021
:1019200080207B4908707C480078002802D1012083
:10193000794908707B4800781D490919F831087009
:10194000FFB23A0078491A480519F935280000F025
:1019500031FD74480078002801D1744800E07448D3
:10196000FFB2019712490919F931009100236B491F
:101970000A68521E67490968FEF7E0FCF6B2301F9C
:10198000019063480090002364480268521E614839
:1019900001686648FEF77DFC81480670F7BD0000CF
:1019A000311600086916000848090020580900206F
:1019B000F0080020D4090020D5090020C409002027
:1019C000D0090020C1090020BF09002080B50020F7
:1019D00001F0BAFE844801F069FA714800780028E5
:1019E00009D170480088704901406E48018001208B
:1019F000FFF7B4F823E0FFF717F901280CDA00200D
:101A000067490870032001F09FFE684A6848016832
:101A1000754801F077FA12E001210D20FEF7BCFDB8
:101A200060480088634901405E4801805D48008845
:101A3000022101435B4801800220FFF78FF801BDBE
:101A400002040000C0090020D2090020BE090020C5
:101A5000BD090020D3090020C509002080B52D480C
:101A60000068002803D04F480078400700D5FEE703
:101A70004C480078400623D400204F490870114993
:101A8000087025490870474800884C4901400120EA
:101A9000084344490880FEF7FDFF01F0F4F953497B
:101AA00040184349086042480068514988603F4AED
:101AB0004F4881684C4801F025FA032001F044FEAC
:101AC00001BD0000BC090020C2090020ED09002072
:101AD000E909002010B50E4C20702000401C01F0D8
:101AE0001DF92000093001F032F9A84801882000D2
:101AF0001130FEF751FB13212000FEF7E5FB172004
:101B000027490870A1480088401CA049088010BDE2
:101B1000E8090020B0090020E4090020B8090020ED
:101B2000EE090020560900205909002090090020E4
:101B3000A009002080B50520FFF710F801BD80B591
:101B400000202C4908700020144908702A490870A8
:101B50002A490870042013490880FEF79CFF284892
:101B60000078012813D12648806E2649086026484F
:101B700000782649087026480078264908702048D1
:101B8000006F1B4988621E48406F1949C86222498C
:101B9000154801F0A2F9012002BD000057090020FC
:101BA000E709002048090020FCFF0000CD190008CB
:101BB000300A0020FEFF0000360A00207FFF0000F0
:101BC00080B57448007800280AD004207249087053
:101BD000FFF7D4F8002803D00D20FEF7BFFF01E087
:101BE00000F0CCF901BD00000C090020E8F701006D
:101BF000F00800203F090020E40900204E090020E1
:101C0000880D0020CC090020F40D0020C809002018
:101C1000F70D002020090020351B000880B55F4823
:101C20000078000600D4FEE75A480078002800D06B
:101C30009FE05B48007800282AD05948007808289F
:101C400022DA57480078401C5549087055485449D5
:101C50000978415C4E480078FEF775FA01007F2252
:101C6000D243C9B20220FEF794FD0321A648806842
:101C7000FEF770FD494800884B4901404748018004
:101C800000F07CF9012002BD60204349087002E0A9
:101C90002020414908709C48CD2140567F21C943EE
:101CA000884204D0A2480078401CA1490870002056
:101CB00038490870374800789849087037480088D4
:101CC0009C490140354801803348007840070CD0DA
:101CD00032480088C00408D5304800889649014041
:101CE0002E4801800F20FEF739FF0020934908702D
:101CF0000A20FEF733FF8448CD21405641281CDBE3
:101D000023480078FEF70AFA01007F22D243C9B2C5
:101D10000320FEF73EFD2020854908701F480088FB
:101D20008121490101431D48018001208449C87077
:101D300001F069FE0E20FEF711FF824800780028AE
:101D400015D016480078800706D50220FEF706FF5A
:101D500000207C4908700AE07A480078401E7949E2
:101D6000087078480078002801D1FFF777FE01203D
:101D700089E7FFF703F8002806D107480078C00775
:101D800001D500207FE754E798E700008E09002086
:101D90004C090020E7090020E5090020480900203F
:101DA000E4090020BCDD00087FFF000070B5664834
:101DB00005686648067866480078002852D0FEF725
:101DC00033FF01284EDB0424B00704D100210D208D
:101DD000FEF7E2FB8BE05F485B490968401A411956
:101DE0005D48007800280CD05C48058809B2464858
:101DF0006022805E081A58490978491C01F07CFA73
:101E0000291852480078400718D454480088421ACC
:101E100012B2002A02D5100000B24242504802809D
:101E200039486423C05E12B2904201DA4D48028004
:101E300046480078F7220240444802704748018033
:101E40000020C3490870C2480078434908703F48E1
:101E50000078FB2101403D4801703C480078800734
:101E600035D1FEE7032438480068FA2149024018BA
:101E700025496022895E401A334908603A48006863
:101E800080303949086034480078401C3249087075
:101E900004212D480068BD4A8018FEF75BFC2E48DF
:101EA0000078152805DBBA48008820210143B8488E
:101EB00001802E480078652809DBB54800882C4948
:101EC0000140B34801800B20FEF748FE1AE00321D1
:101ED0000020FEF727FB1C490968FA2252028918E4
:101EE000081AC04908600848807D20490870A84841
:101EF0000088800502D5BC48FEF788FB2000C0B2F0
:101F0000FEF72CFE70BD0000F008002080B51948D7
:101F1000B6494862022001F017FC01BDE609002025
:101F200080B51548B2494862022001F00DFC01BDA0
:101F3000BD09002077FF0000FFEF000058090020D6
:101F4000880D0020D2090020300A0020360A002027
:101F5000E709002000F4FFFFD1090020500900200C
:101F60005209002054090020380A0020290A0020C4
:101F7000DDF90000AD1D0008C11B0008F8B584485C
:101F80000078C121084200D0D7E09A4800680028B4
:101F900006D17F480078400702D4FFF7D0FDCCE09F
:101FA00000F071FF050000270024794800788007C1
:101FB0000AD52800801C8B490968401A012800DBDB
:101FC000FEE788480768BF1E714800783C21084238
:101FD00000D1B7E06E4800782421084201D00126E4
:101FE00000E000266A48008800050CD52800FEF7AE
:101FF00013FD7E4948600400654800887E49014021
:102000006348018001E0794844687C4800780028F2
:1020100003D15F480088C00506D57448006D201ABA
:10202000002801D57148046D59480078800724D5EF
:10203000F6B2002E01D0724800E072482018C01B92
:1020400001281ADB102151483818FEF783FB0024C1
:102050004F480088800500D4A4E02900891C62480C
:10206000FEF71EFB002800D19CE0002C72D06648D1
:102070000068201A00286DD559E0601B801E0028DA
:1020800051D52C0061480578F6B2002E14D0404896
:102090000078800608D52E4801782800C0B2FEF7E7
:1020A00052F80500C02000E00020C0B2FFF712FD8A
:1020B00072484E49486219E0714800687F21C9435F
:1020C000884204D36F49934800F007FF35E0704819
:1020D0000078002805D16F4800680021C943884274
:1020E000F0D0FFF717FB7548404948622800C0B29E
:1020F000FEF705F87249097880B2FDF7E8FF3B4921
:1021000088823A48C575224800886E490140882077
:10211000000108431E4908802000FEF747FC01200B
:1021200001F012FB09E01A480078800706D4664ADD
:10213000A41E2100774800F0E5FEF1BD002C87D1F8
:10214000641C85E712480078800700D580E7F4E733
:102150004E0900206B480078244988752A48006899
:1021600022498860684800682049C8601E48007895
:10217000FDF7CBFF1D4988820020644908701B4889
:102180008068401B801C002804D5FEE7480800003A
:10219000480900205E4A15488168891E5D4800F0A4
:1021A000B1FECAE7002C02D0E01B0028BFD4FEF726
:1021B00071FC594800780D4988750A4800680B4938
:1021C0008860E81B002806D4544808494862022069
:1021D00001F0BAFAB1E7524A39004E4800F092FED7
:1021E000ABE700002C0A0020D4090020F0080020F2
:1021F000F0080020B0090020FFF700003F09002090
:102200002823000070170000DC0900204C09002082
:1022100010B5002001F098FA3E4800F047FEAC21CE
:1022200049000022414C200000F09AF8002040496B
:10223000086001F02DFAC0B2040201F029FA04434B
:102240003C48048000203849088000201C49087060
:102250008020344908700020374908700020374931
:102260000870374837490860354827490860032017
:1022700005490870FF203449087010BDB7150008E3
:10228000B40900206B0B0008D4090020704700003F
:10229000E4090020B809002080B5234800880821FF
:1022A00001432148018020480078400702D40020E3
:1022B00027490870FFF762FE01BD00007D16000887
:1022C0004D090020EFFE0000550B0008F8B5040092
:1022D00015001E00EDB2352D02D30120C04310E0E1
:1022E000002905D0EDB22A001A4F380000F062F83C
:1022F000194806701948047014480570FFF7CCFFA0
:102300000020F2BDD7090020E0090020E7090020E5
:10231000211F00080C090020290A0020AD1D00081B
:102320000D1F0008C209002048090020F008002005
:10233000B00900208E090020C9090020C80900202A
:102340006050BF1CCC090020D5090020580900208E
:10235000E4090020590900205709002056090020EF
:102360001206130A1A43130C1A4300BF094205D080
:10237000830705D00270401C491EF9D17047000048
:10238000130030B414001500103902D310393CC0CA
:10239000FCD2490700D30CC000D504C0890002D389
:1023A0000280801C002900D5027030BC70470000FC
:1023B0000022E5E7124207D08B0706D00B78491CB4
:1023C0000370401C521EF7D87047830706D00B7865
:1023D000491C0370401C521EF9D1704770B4103A6A
:1023E00003D378C9103A78C0FBD2530701D318C978
:1023F00018C001D508C908C0D20704D30B880380D0
:10240000891C801C002A01D50B78037070BC7047B2
:1024100070B5002421E02F48042161434058000694
:102420002C49042262438958FF2212020A401102F9
:1024300001432848042262438058000AFF22120206
:1024400002400A432348042161434058000E1043D0
:102450002049042262438850641C042CDBDB1D48A5
:10246000C56833E02000042100F046FF002920D198
:1024700019482900090CC9B2405C000616492A0017
:10248000120AD2B2895C0904414013482A00D2B230
:10249000805C0002484010492A00120E8E5C4640C3
:1024A000201F042100F028FF042148430B490D5848
:1024B000754008480421614340181038006868409E
:1024C00005000448042161434550641C2C2CC9DBE1
:1024D00070BD0000D80C00206CBE000868D6000853
:1024E000F7B586B0FFF794FF6846007E000709D570
:1024F00000206549C8606449886063494860624952
:102500000860A8E06048006800065F490968FF228B
:1025100012020A40110201435B480068000AFF22D0
:10252000120202400A4358480068000E1043564900
:10253000086055484068000653494968FF22120266
:102540000A401102014350484068000AFF2212026B
:1025500002400A434C484068000E10434A49486014
:1025600049488068000648498968FF2212020A40EB
:102570001102014344488068000AFF22120202400F
:102580000A4341488068000E10433F4988603E4836
:10259000C06800063C49C968FF2212020A401102C5
:1025A00001433948C068000AFF22120202400A4370
:1025B0003548C068000E10433349C8604BE0040042
:1025C000240E079D2C700400240C079D6C700400E1
:1025D000240A079DAC70079CE0700800000E079C61
:1025E00020710800000C079C60710800000A079C1D
:1025F000A0710798C1711000000E079908721000B1
:10260000000C079948721000000A07998872079811
:10261000C2721800000E079908731800000C079981
:1026200048731800000A079988730798C3736846AF
:10263000007E0A210140022907D007981030079038
:1026400068466946098C1039018468466946097EE6
:1026500008220A4302766846008C40B2012800DA5C
:1026600053E36C46247E640705D46C46247E0A2618
:102670002640022E0AD10448006803494968024AEC
:102680009268014BDB684DE0C40E00206C46247E4E
:10269000A40700D407E36C46248C112C00DB02E372
:1026A00000200300020001006C46248C102C01D194
:1026B000012500E002256C466E46367E2D0135432D
:1026C00025762FE000262F0235003D43A607B60FE2
:1026D000032E03D1080011001A002B00641C102CDB
:1026E0000CD26E46368CB44202D2079E365DEAE7C3
:1026F0006E46368CB442E5D18026E4E76C46247EF3
:10270000A4070FD50400CB48006860400C00C949FD
:10271000496861401400C74A926862401C00C54B7A
:10272000DB686340ED4C0394039C80340494040004
:102730000398006860400C000399496861401400E8
:10274000039A926862401C00039BDB686340039C11
:102750006569039CA4690294039CE4690194039C49
:102760002469EE4EB4460700FFB20426774366465E
:10277000F6596E403500029F0097E94EB4460700B7
:102780003F0AFFB2042677436646F659009F7E4013
:102790000296019F0097E34EB44607003F0CFFB23C
:1027A000042677436646F659009F7E400196DE4E2A
:1027B000000E04277843305860400400029FD74839
:1027C00084460E00F6B204204643604680597840A5
:1027D0000290019FD24884460E00360AF6B20420C9
:1027E00046436046805978400190CE480E00360C32
:1027F000F6B204277E43805960400400CA48090E9F
:10280000042671434058684005000198C3491600EA
:10281000F6B204277E43895941400191C048110016
:10282000090AC9B204267143405860400400BD48FB
:102830001100090CC9B204267143405868400500D4
:102840000298B949120E04267243895841400291F8
:10285000B2481900C9B204225143405860400400F4
:10286000AF481900090AC9B20422514340586840D0
:1028700005000298AB491A00120CD2B2042672432A
:102880008958414002910198A7491A00120E042369
:102890005A438958414001910398416A0398826ADA
:1028A0000398C36A0398006A9C4EB4462700FFB29F
:1028B000042677436646F6594E403100984EB4469A
:1028C00027003F0AFFB2042677436646F659564072
:1028D0003200944EB44627003F0CFFB204267743E3
:1028E0006646F6595E4033008F4E240E04277C4323
:1028F000345944402000894C2E00F6B204277E4310
:10290000A45954402200864C2E00360AF6B2042701
:102910007E43A4595C402300824C2E00360CF6B254
:1029200004277E43A459444020007F4C2D0E0426EA
:10293000754364594C402100784C029DEDB2042649
:10294000754364595C402300754C029D2D0AEDB21D
:1029500004267543645944402000724C029D2D0C9E
:10296000EDB20426754364594C4021006E4C029D23
:102970002D0E04267543645954402200674C019D76
:10298000EDB204267543645944402000644C019D17
:102990002D0AEDB20426754364594C402100614C68
:1029A000019D2D0CEDB2042675436459544022005C
:1029B0005D4C019D2D0E0426754364595C40230037
:1029C000039C20340394039C049DAC4200D2BEE6D9
:1029D000039C6569039CA4690294039CE4690194C7
:1029E000039C24694D4EB4460700FFB2042677438A
:1029F0006646F6596E403500029F0097484EB44631
:102A000007003F0AFFB2042677436646F659009F47
:102A10007E400296019F0097424EB44607003F0C4D
:102A2000FFB2042677436646F659009F7E40019622
:102A30003D4E01E0C40E0020000E042778433058BC
:102A400060400400029F354884460E00F6B2042020
:102A500046436046805978400290019F3048844642
:102A60000E00360AF6B2042046436046805978408C
:102A700001902C480E00360CF6B204277E43805994
:102A8000604004002848090E0426714340586840FD
:102A90000500019821491600F6B204277E438959A2
:102AA000414001911E481100090AC9B20426714330
:102AB0004058604004001B481100090CC9B20426AC
:102AC000714340586840050002981749120E0426C9
:102AD0007243895841400291104801E0D80C00200F
:102AE0001900C9B2042251434058604004000C4808
:102AF0001900090AC9B20422514340586840050030
:102B0000029808491A00120CD2B20426724389585E
:102B1000414002910198044908E000BF04B900084F
:102B200004B5000804B1000804AD00081A00120E34
:102B300004235A438958414001910398006A75491A
:102B40002200120E895C09064140080071492A00E2
:102B5000120CD2B2895C0904414008006D49029A06
:102B6000120AD2B2895C0902414008000200694899
:102B70000199C9B2405C50400399496A654A2B00EB
:102B80001B0ED25C12064A401100624A029B1B0CCB
:102B9000DBB2D25C12044A4011005E4A019B1B0A60
:102BA000DBB2D25C12024A4011000B0059492200EC
:102BB000D2B2895C5940039A926A564B029E360EF5
:102BC0009B5D1B0653401A00524B019E360CF6B219
:102BD0009B5D1B0453401A004E4B2600360AF6B28A
:102BE0009B5D1B0253401A004A4B2E00F6B29B5DC0
:102BF00053401A00039BDB6A464E019F3F0EF65D71
:102C000036065E403300434E240CE4B2345D2404A7
:102C10005C4023003F4C2D0AEDB2645D24025C4011
:102C200023001D003B4B029CE4B21B5D6B406C46D5
:102C3000247EA40742D56C46247E2411A507AD0F3F
:102C4000002D32D00400E40F46000800C00F3043CE
:102C50004E001100C90F314356001A00D20F324303
:102C60005B00002C02D01C00872363406D1E002DEA
:102C7000E8D1294C24684440274E3460264C6468CF
:102C80004C40254E7460244CA4685440224EB460DD
:102C9000214CE4685C40204EF4606C466E46367E03
:102CA000CF2737402776002419E51B4C20601A48AF
:102CB0004160194882601848C360B8E46C46247EBD
:102CC000640700D47BE46C46248C112C01DB1024B7
:102CD00001E06C46248C00250FE0079E775D06001E
:102CE000360E7E40079F7E550002AE07B60F032EBC
:102CF00002D1080011001A006D1CA542EDD3064850
:102D0000C068401C0449C86091E40348006809B0E9
:102D1000F0BD00006CBE0008C40E002010B5040019
:102D200000F09DFF082286492000FFF743FB00F0DA
:102D300097FF10BD38B5040000F091FF0822804DC8
:102D400021002800FFF736FB00F08AFF31BD10B5E7
:102D5000040000F084FF0822AC492000FFF72AFBA2
:102D600000F07EFF10BD38B5040000F078FF0822A7
:102D7000A64D21002800FFF71DFB00F071FF31BDBB
:102D800010B5040000F06BFF1022B4492000FFF7DB
:102D900011FB00F065FF10BD38B5040000F05FFFC7
:102DA0001022AE4D21002800FFF704FB00F058FF71
:102DB00031BD80B5FEF7C3FE01BD10B5C0B2062817
:102DC00004D00A2809D00E2827D029E000230122A8
:102DD0008F490120FFF77AFA22E08E480078002818
:102DE0000FD08C4802788C488C4909784018010033
:102DF000F8318B4C2000FFF7DDFA864800789849BF
:102E00000870984800783C21084202D10220B54958
:102E1000087000209449087002E00020B149087051
:102E200010BD10B508210022994C2000FFF798FA38
:102E3000FFF72CFA9749AC4800F04FF810BD10B5D9
:102E4000040000F0E1FF201A012801DA002005E06B
:102E50000114002901D0B44800E080B210BD10B5C3
:102E600004002000FFF7EBFF0028FAD110BD80B569
:102E70000021FFF7E4FF010089B2052901DA0120F2
:102E800000E0002002BD80B500F0BEFF02BD00B52D
:102E900000E000680268002A06D002688A42F8D181
:102EA00009680160012000E0002000BD10B50400A9
:102EB00000F0D5FE21007648FFF7E9FF002805D194
:102EC0002100B048FFF7E3FF002801D0012000E017
:102ED0000020C0B200F0C4FE10BD38B505000C00E3
:102EE00000F0BDFE2800FFF7E1FFAC600020286085
:102EF000A44800E0006801680029FBD1056000F0EB
:102F0000AFFE31BD70B504000D00160000F0A7FE45
:102F10002000FFF7CBFF6560A660002020605C48C2
:102F200000E000680168002906D001684968491B73
:102F30000129F6DB01682160046000F091FE70BD9C
:102F40002800002010B500247848007801285BD0C4
:102F50008D480078012802D0022815D015E02120E4
:102F60002C490870002005E001002B4A1218F823B4
:102F7000D154401C274909788842F5DB00F024FC35
:102F80008E4800F09AFF3FE03EE000F068FE4048C7
:102F90004068002805D03E48446820683C494860A5
:102FA0000FE03B48006800280BD0394800684068B3
:102FB000FFF75DFF002804D03548046820683449D5
:102FC000086091480078002817D127480078002829
:102FD00013D000F044FEAB480078002802D1012055
:102FE000A8490870934803781F4802789249A54879
:102FF0000078FFF76BF900F033FE00F031FE002C93
:1030000002D02000A168884710BD000030000020D9
:10301000E8090020E7090020F0080020E609002068
:10302000480B002010B5FFF7F3F88F480078002810
:103030000DD108228D49944C2000FFF7BBF91022D6
:103040000649924C2000FFF7B5F900F0DCFC00F0D7
:10305000FFFC8F4800F005FE10BD00003800002086
:10306000BF0F002048090020C00F002080B500F0ED
:10307000F6FD00202D49087000204349087000F03B
:10308000EFFD01207849C87000F0BDFC01BD0000D3
:10309000900F0020B32D000880B500F0E0FD002067
:1030A0001049087001202149087000F0D9FD002066
:1030B0006D49C87000F0A7FC01BD80B500F0CFFDE0
:1030C00000201A49087001202F49087000F0C8FD3F
:1030D00001BD80B500F0C3FD01201449087000F067
:1030E000BFFD01BDBE0F0020580F002080B500F0CD
:1030F000B6FD68480078022807D1674800780028A4
:1031000003D100F0ADFD012002E000F0A9FD002098
:1031100002BD00B55F480078002801D0012000E022
:103120000020C0B200BD0000FFFF0000E80000204A
:10313000F8B504000F0015001E0000F090FDEDB280
:10314000352D02DB0120C0431BE0534800780028E6
:1031500004D000F085FD0220C04312E04E48057007
:103160004848047033480670EDB22A003900324CEA
:103170002000FFF71FF901204649087000F070FD9C
:103180000020F2BD940F0020C30F002038B50400CA
:10319000002500F064FD4148007800280AD03F482F
:1031A00002783F492000FFF705F93C4805780020E8
:1031B0003A49087000F054FD280032BDB80B0000F9
:1031C00038B505000C00FFF7A4FF002802D000204E
:1031D000C0430AE0334885623248C462224805672A
:1031E0002148446700F00FFC002032BD10B50400F8
:1031F00000F035FD2C48047000F032FD2B480470BF
:1032000000F001FC002010BD5809002010B504009A
:1032100000F025FD0520001BF9382549087000F055
:103220001FFD234800782349087000F0ECFB0020C4
:1032300010BD0000C10F00205909002080B51E4AB2
:1032400010601E4A11701E4A1170074A90661D4890
:10325000017000F0D8FB002002BD174A126802601E
:103260001748007808707047880D0020280000205B
:1032700000B515480078400602D50220C04300E0A2
:10328000002000BDC20F00208C0D0020940D0020F6
:1032900088130000BE0F0020C00F0020BF0F0020C9
:1032A000480B0020F008002020090020F70D002026
:1032B0004C090020EC0D0020CC090020C909002099
:1032C000C8090020F40D0020E5090020F44600287C
:1032D00004D4494200F013F84042604740420029BC
:1032E00005D45FD000F00BF84042494260474942A4
:1032F00000F005F84942604703460B43E6D400223C
:10330000030A8B420BD203098B4219D243088B422A
:103310002ED2411A00D20146524110467047FF2278
:1033200009023FD012068B4205D3121209028B42CA
:1033300001D31212090203098B4219D300E0090AD2
:10334000C3098B4201D3CB01C01A524183098B427E
:1033500001D38B01C01A524143098B4201D34B0167
:10336000C01A524103098B4201D30B01C01A5241CA
:10337000C3088B4201D3CB00C01A524183088B4251
:1033800001D38B00C01A524143088B4201D34B003A
:10339000C01A5241884200D3401A5241CFD201464E
:1033A0001046704708B500F097FD08BD30B44343A0
:1033B00051435D18010C0C00130C5C432D1980B2B5
:1033C000434392B251430024C918644124040B04BE
:1033D000090C09195043C018694130BC704730B41A
:1033E000DC0F03D05B42524200D25B1E0D106C40DA
:1033F00013D0F446002502D349424042A94100F0CF
:103400000DF8E40703D35B425242AB41244202D59C
:1034100049424042A94130BC604730BC124224D0EE
:10342000994228D970B500251B4202D00C0000211A
:1034300009E00024012649186441944200D3A41AEB
:103440007641F8D33100012601E0764109D2001817
:1034500064416D41A41A9D41F7D2A4185D41B6198B
:10346000F5D3300022002B0070BD1B42D8D108B527
:1034700000F034FD08BD01D19042D3D202000B0010
:10348000002100207047680038B505000C0000F0EE
:10349000F5FBE4B2002C01D0C2480470EDB2012D5E
:1034A00003D1A849C04800F0D3FB2800C0B200F007
:1034B00003F931BD0EB403B07047704710B584B046
:1034C0000120BA4908700020B9490870142100226F
:1034D000B84C2000FEF744FF0120B6490870B648FA
:1034E000007EB4494870B448C068B2494860B248E8
:1034F000808AFCF7DFFD801DAE4908720120AD49CE
:103500004872AD48808AFCF7D8FDAA498872AA485B
:10351000808AFCF7E3FD002801D1012000E00020B3
:10352000A449C872A448808AFCF7CCFDA14908735D
:103530000020A049487308209E49C87334209D4943
:10354000887300F096FB9D48006801909948407888
:1035500000909848837A9748027A9648416898483C
:10356000FFF7A8FF8F480078029096480190914994
:1035700084B068461422FEF731FF0FBC00F088FAD1
:103580001FBD80B58C48808AFCF794FD002802D1CD
:10359000FFF793FF01E0FFF791FF01BD3EB5040087
:1035A00001208249087001208149087014210022FD
:1035B000804D2800FEF7D4FE01207E4908707E4829
:1035C000C0687C4948607C48808AFCF773FD801D98
:1035D000784908720120774948727748808AFCF759
:1035E0006CFD744988727448808AFCF777FD002866
:1035F00001D1012000E000206E49C8726E48808A27
:10360000FCF760FD6B49087301206A494873082084
:103610006849C87334206749887390486549486091
:10362000072064490872E4B2012C03D101206149EA
:10363000087406E000205F4908745F48807D5D499A
:10364000887400F016FB5C488068FFF708FC402097
:1036500002905C480190574984B068461422FEF7F6
:10366000BDFE0FBC00F07EFA37BD704710B50400F8
:103670005148808AFCF71EFD002804D12000C0B20A
:10368000FFF7F3FF03E02000C0B2FFF787FF10BD94
:1036900080B573480178C9B2102905D1102270494C
:1036A0000020FEF71DFF00216D48C9B2405C491C97
:1036B0006B4A1170C0B202BD38B50400FFF7E3FBDE
:1036C00005003A480078012826D1E4B2022C07D13F
:1036D000394845603848416A6248FFF7FEFB31BD12
:1036E000E4B2012C11D13448808AFCF7E6FC0028B2
:1036F00008D13148808AFCF7DDFC022148435A4951
:10370000085A2D1A2C488560E4E7E4B2002CE1D178
:10371000002024490870DDE7E4B2022C02D12648DB
:103720004560D7E7E4B2012C02D123488560D1E798
:10373000E4B2002C03D100201A490870CAE7FEE762
:10374000000000000209002010B5040000F087FA14
:10375000E4B2002C05D0022C09D005D3032C0AD0EA
:103760000CE000F074FA09E0FFF70BFF06E0002020
:10377000FFF77CFF02E00120FFF778FF00F070FA0E
:1037800010BD80B500F06BFA38480078002801D1F0
:10379000022000E00020C0B2FFF78EFF00F060FAC8
:1037A00001BD0000E709002000090020BA0F002039
:1037B000BB0F0020B00E0020F0080020B809002048
:1037C00090D60008E809002010B584B0142100222A
:1037D000274C2000FEF7C4FD012025490870142065
:1037E000234948701D48224948600C20204908722E
:1037F00001201F49487200201D49887201201C4980
:10380000C87200201A49087300201949487308201B
:103810001749C87334201649887300F02AFA1548EE
:10382000006801901248407800901148837A10484F
:10383000027A0F4841681048FFF73CFE0F480078B5
:1038400002900F4801900A4984B068461422FEF79E
:10385000C5FD0FBC00F01CF91FBD00006035081C41
:10386000F40E00200C09002074DB0008BB0F0020C0
:10387000B00E0020B809002090D60008E70900200B
:10388000E8090020F8B506000C001700002507E045
:10389000042068432158A800301800F051FB6D1C2B
:1038A000BD42F5D3F1BD80B5FFF7BCFBFFF7B9FA18
:1038B00001BD80B5FFF7B5FAFFF7D8FB01BD80B5B4
:1038C000FFF7EAFB01BD80B5FFF7EDFFFFF7E4FB73
:1038D00001BD80B5FFF73BFA002002BD10B5040022
:1038E00000F0FEFA022221006648FFF7CBFF20001D
:1038F000FFF739FA002010BD38B504002000FFF7AB
:103900004BFA1022604D21002800FEF753FD00F015
:103910007AF8002032BD80B5FFF732FA002002BDF0
:1039200038B504002000FFF705FA0822574D2100A2
:103930002800FEF73FFD00F066F8002032BD80B59C
:10394000FFF7ECF9002002BD80B5FFF739FC02BD9E
:1039500080B5C0B2FFF74AFC02BD80B5C0B2FFF728
:1039600055FC02BD80B5C9B2FFF768FC02BD80B549
:10397000FFF773FC01BDF8B504000F0015001E0031
:10398000FFF7C7FB002802D10020C04308E0330046
:10399000DBB22A00D2B239002000C0B2FFF7C8FB68
:1039A000F2BD80B5FFF7B5FB002802D10020C0436F
:1039B00008E0FFF79BFB002802D10120C04301E093
:1039C000FFF756FC02BD38B505000C00FFF7A1FB60
:1039D000002802D10020C04304E02800FFF7D6FBF6
:1039E0002070207832BD80B5FFF793FB002802D10C
:1039F0000020C04306E0FFF779FB002801D100203A
:103A000000E0012002BD80B500F06AFA184800F01D
:103A100073FAAA21164800F093FA0120154908709C
:103A2000252214491448FFF72DFF01BD10B500F001
:103A300057FA0F480068AA2803D000200D490870E3
:103A400005E094220C490B4C2000FEF7B3FC10BD9E
:103A500080B50C4803C809A20CCA994201D1904212
:103A600004D000F03DFA0748FFF77DF901BD0000E2
:103A700000F80008880D002004F80008FFFFFFFF91
:103A8000FFFFFFFF00FC0008940D00208C0D0020BC
:103A90000FB410B500207C49087002A840787B491B
:103AA000887603987949086179487849C8607748E9
:103AB000406AF021884302A9097A0901F0220A40EC
:103AC0000243724842627148406A7249014002A84A
:103AD000407A400380229201104008436B494862BB
:103AE0006A48406A6C49014002A8007B401C000201
:103AF000E022D20002400A43644842626348406ABE
:103B00006649014002A8407B000380225201104018
:103B100008435E4948625D4800686149014002A867
:103B2000C07A0005802252031040084357490860BC
:103B300002A8807B55490872079C5448C46200F073
:103B4000A0FB0A21002002F0F9F9089A21000020C8
:103B500001F0FCFF5349002002F04AF8019810BC24
:103B600005B000470FB480B500204749087003989E
:103B70004649086146484549C8604448406AF021C2
:103B8000884302A9097A0901F0220A4002433F480A
:103B900042623E48406A3F49014002A8407A4003E1
:103BA0008022920110400843384948623748406AF1
:103BB0003949014002A8007B401C0002E022D200EB
:103BC00002400A43314842623048406A3649014067
:103BD00002A8407BC00280221201104008432B49FA
:103BE00048622A4800682E49014002A8C07A0005B0
:103BF00080225203104008432449086002A8807BB9
:103C00002249087202A8807C204948721F48406AF5
:103C10002649014002A8007C80038022D201104086
:103C200008431A49486207981849C8620898204909
:103C3000087000F026FB0A21002002F07FF9012223
:103C40001849002002F0A0F8019806B0004770471C
:103C50000E4AD28B02800D48C07E087070477047B4
:103C6000704780B5002302001249134800F0CFF8D6
:103C700001BD80B5104800F0F5F801BD80B50E48D3
:103C800000F0F5F801BD00003C0E00201C0E0020E5
:103C900048E80100FFDFFFFFFFF8FFFFFFEFFFFF36
:103CA000FFFFEFFFB80B0000FFF7FFFFFFBFFFFFB5
:103CB000440E002083370008E40E0020644A127886
:103CC00002700022826041606249614A12780423D6
:103CD0005A4388505E490978491C5D4A1170007842
:103CE000704710B520E05B4804216143405880686C
:103CF00000280CD1574804216143405840680028EF
:103D000005D0544804216143405840688047641CF2
:103D10004F4800788442E6DB01218020400502F014
:103D2000D3FC012002F043FD0024F1E7494AC0B270
:103D300004234343D25892685118464AC0B2042320
:103D4000584310588160704710B5002012E0414977
:103D5000042242438958896800290AD03D49042237
:103D6000424389588968491E3A4A04234343D2583A
:103D70009160401C364909788842E8DB00240BE05A
:103D800035480421614340584068401C32490422B0
:103D9000624389584860641C3048007884422DDAB8
:103DA0002D4804216143405840780028F3D02A4828
:103DB00004216143405840682749042262438958DE
:103DC00089688842DCD32448042161434058C06894
:103DD000804721480421614340580078002806D1DB
:103DE00000201D490422624389584870D3E700200F
:103DF00019490422624389584860CCE71848006892
:103E0000401C1749086010BD15480068704770B520
:103E1000002400E0641C114D2D78AC4206DA0E4DF2
:103E200004266643AD59A842F4D10FE00024446053
:103E300003708260C1600849084A127804235A431B
:103E4000885006480078401C0449087070BD000086
:103E5000BC0F00204C0E0020740E0020BD0F00206F
:103E6000B00F002001214170002141607047002106
:103E7000417000214160704780B5FFF7D7FDFFF723
:103E800012FD5E2002F042FC00280FD002F063FC1D
:103E90000D480078012809D10B484078002805D149
:103EA0000948C078002801D0FFF703FD07490848FA
:103EB000FFF704FF0749087001BD80B50100054800
:103EC0000078FFF733FF01BD880D0020452F000863
:103ED0004C0F0020B90F00207047FEE77047FEE747
:103EE00000B532480068000605D531483149086000
:103EF00031483049086000BD10B504000420B020EE
:103F0000000300F077F8C0B2042817D127480068F2
:103F100002210143254801602848046023480068C5
:103F20004021014321480160B020000300F062F805
:103F30001E490968022291431C4A1160C0B210BD9B
:103F400038B505000C00042000200090B0200003CC
:103F500000F050F8C0B2042825D1144800680121AF
:103F600001431248016020002880B020000300F0C7
:103F700041F8C0B2042810D1AD1C00952000000CFF
:103F800000990880B020000300F034F80749096860
:103F900001229143054A116005E0044909680122A4
:103FA0009143024A1160C0B232BD000010200240AD
:103FB0002301674504200240AB89EFCD1420024065
:103FC00000B504200A480068C00701D501200CE0B4
:103FD00007480068C00601D5022006E004480068D2
:103FE000400701D5032000E00420C0B200BD00005E
:103FF0000C20024010B504000420FFF7E1FF02E0AE
:10400000FFF7DEFF641EC0B2012801D1002CF7D1FA
:10401000002C00D10520C0B210BDFEE700B5C0B233
:1040200000282FD100219B4AC0B207234343D1541B
:104030000021984AC0B207234343D218517001218E
:10404000944AC0B207234343D21891700221914A87
:10405000C0B207234343D218D17003218D4AC0B2A6
:1040600007234343D218117104218A4AC0B207239F
:104070004343D21851710521864AC0B207235843E1
:104080001018817100BD30B585B00400E4B2002C79
:1040900000D086E02000C0B2FFF7C0FF7E487F4915
:1040A0000860002524E001217D48EDB204226A4326
:1040B000805802F0E9FA7B48EDB202216943405A88
:1040C00003907948EDB2405D03A90871032003A96C
:1040D00048717648EDB2405D03A9887103A96F4825
:1040E0000068EDB204226A43805802F0B9FB6D1CEF
:1040F000EDB2062DD7DB0121012002F0D5FA012512
:104100003CE06B48EDB2082169434018C01E0178BD
:104110006748EDB208226A438018001F007802F059
:1041200025FC6348EDB2082169434018083800684F
:104130000190002001A90871082001A948710120FF
:1041400001A9887101A802F041FC5948EDB208218B
:1041500069434018801E0078694608705448EDB2E3
:10416000082169434018401E0078694648700120C4
:1041700069468870684602F079FC6D1EEDB2002D2C
:10418000BFD14448E4B207216143405C02F0A8FC7F
:1041900001214048E4B2072254430019407800F05E
:1041A00002F805B030BD10B5C0B206281EDA3B4A91
:1041B0001268C0B204234343D258928AC9B200297C
:1041C00005D03849C0B202234343C95A00E0002158
:1041D000344BC0B2022444431B5B9A4311432F4A21
:1041E0001268C0B2042358431058818210BD00B534
:1041F000C0B206280FDA29490968C0B20422424336
:104200008958098A274AC0B202235843105A0142EA
:1042100001D0012000E0002000BD00B5002100E039
:10422000491CC9B2002906D10200224BC9B25B5C0D
:10423000D2B29A42F4D12048406A204901408022FB
:1042400012028018F022D20202400A431A48426247
:1042500000BD00B51848406AC00B0007000F0128D8
:104260000DDB1548406A15490140154A8018F022B7
:10427000D20202400A4310484262012000E00020BE
:1042800000BD0D48406A0D4901400B48416270472E
:1042900000000000880F00200C0000209C0F002070
:1042A00008DA0008A4DD0008ACDE0008B4DE00086F
:1042B000BCDE00083ADF00081C0E0020FF7FF8FF7C
:1042C0000080FFFF00B504E0491E89B20029FBD140
:1042D000401E80B2002801D00E49F6E700BD70B53F
:1042E00005000C0000E0641E002C11D00A4E00E016
:1042F000761EB6B2002EF6D00848EDB2072169430B
:1043000040188079FFF773FF0028F1D0002000E00B
:10431000012070BD331F000012030000880F002031
:1043200010B582B004000020694608702000C0B2B9
:10433000FFF7A9FE01212000C0B200F0C1F9002062
:10434000DB49E4B2302262438850D948E4B23021DC
:10435000614340581E21884302210143D448E4B2FE
:10436000302262438150D248E4B230216143405848
:10437000D04901408020C0000843CD49E4B230223A
:10438000624388500020CA49E4B23022624389184F
:1043900020228854C648E4B230216143405880212D
:1043A00049030143C248E4B2302262438150C0480D
:1043B000E4B2302161434058BF490140BC48E4B2F7
:1043C000302262438150BA48E4B230216143405800
:1043D0008021C9030143B648E4B2302262438150D0
:1043E000B348E4B2302161434058B44901408020D1
:1043F00040040843AE49E4B2302262438850AC48DE
:10440000E4B23021614340588021C9040143A848E7
:10441000E4B23022624381508020A549E4B23022C8
:104420006243891821228854A148E4B230216143B3
:104430004058D24901409E48E4B230226243815044
:104440009B48E4B2302161434058CD49014098482F
:10445000E4B230226243815000209549E4B2302218
:10446000624389184860C7489149E4B230226243E8
:10447000891808618E48E4B23021614340180476FF
:1044800000208B49E4B2302262438918487611201B
:104490008749E4B230226243891888760020844933
:1044A000E4B2302262438918C87600208049E4B221
:1044B000302262438918C88300207D49E4B230224B
:1044C000624389180877D5487949E4B230226243BB
:1044D0008918C8607648E4B2302161434058D04919
:1044E00001408020C00208437149E4B23022624397
:1044F000885000206E49E4B2302262438918486235
:104500006B48E4B2302161434018406AF02188438F
:10451000702101436648E4B2302262438018416250
:104520006348E4B2302161434018406AD6490140F3
:104530008020400008435E49E4B23022624389187B
:1045400048625B48E4B2302161434018406A0F2161
:104550008843022101435648E4B230226243801866
:1045600041622000C0B200F080FA2000C0B200F02A
:1045700035FA2000C0B200F079FB2000C0B200F094
:1045800006FA4B48E4B23021614340182021405CD8
:1045900000281ED101212000C0B200F0CBFA20007B
:1045A000C0B200F031FC2000C0B200F0AAFC200034
:1045B000C0B200F0CEFC2000C0B200F0F8FCD5493B
:1045C0002000C0B200F052FD2000C0B200F078FD23
:1045D0001CE001212000C0B200F09CFD2000C0B210
:1045E00000F019FE2000C0B200F072FE2000C0B240
:1045F00000F09CFE2000C0B200F0DCFE2000C0B243
:1046000000F024FF2000C0B200F050FF2000C0B234
:1046100000F06CFF2000C0B200F085FF6A460B215D
:104620002000C0B200F0B0F868460078DF210140F9
:1046300068460170684602780B212000C0B200F085
:10464000F1F81B48E4B23021614340182021405C5E
:10465000002806D123220C212000C0B200F0E2F88D
:1046600005E020220C212000C0B200F0DBF8104849
:10467000E4B23021614340182021405C002805D17C
:1046800000212000C0B200F055FA04E00021200013
:10469000C0B200F03FFD0648E4B23021614340580B
:1046A000012101430248E4B230225443015113BDB9
:1046B0001C0E0020FF81FFFFFFFFDFFFFFFF7FFEDB
:1046C00010B50400E4B2002C02D00020C04323E067
:1046D000012922D10121C048E4B207226243801897
:1046E0004078FFF760FD0021BB48E4B20722624337
:1046F00080188078FFF757FD0120FFF7E3FD0121C7
:10470000B548E4B20722544300198078FFF74BFD07
:104710000620FFF7D7FD012010BD022912D101218B
:10472000AD48E4B20722624380180079FFF73BFDF1
:104730000121A948E4B2072254430019C078FFF7C9
:1047400032FDE8E7032912D10021A348E4B2072291
:10475000624380180079FFF726FD01219E48E4B2EC
:10476000072254430019C078FFF71DFDD3E7042941
:10477000D1D00529CFD00120C043CDE7FFFFFFF7FF
:104780001FFEFFFF80A1031C70B584B0040015005C
:10479000E4B2002C02D00020C0433DE068468172A4
:1047A000002002A9891C4870002069460872002078
:1047B00002A9487000218848E4B2072262438018A9
:1047C0004078FFF7F0FC012001900220009002AB3E
:1047D000022202A9891C8048E4B207266643805D54
:1047E00002F0F4F901280DDB02A8407828700121BD
:1047F0007948E4B20722544300194078FFF7D3FC0C
:10480000012009E001217448E4B207225443001951
:104810004078FFF7C8FC002004B070BD48E80100F4
:10482000FF7FF0FF3EB50400E4B2022C02DB002063
:10483000C04328E0802008436946087202A84270FD
:1048400000216548E4B20722624380184078FFF7F0
:10485000AAFC01200190002000900023022202A95E
:104860005D48E4B207256543405D02F0AFF90500FD
:1048700001215948E4B20722544300194078FFF758
:1048800092FC280040B23EBDFFF8FFFFF0B583B0B8
:1048900004000E001700E4B2022C02DB0020C0432B
:1048A00036E0DBB2812B01DB802501E0DBB21D00AD
:1048B00000214948E4B20722624380184078FFF79C
:1048C00072FC3100C9B24448E4B207226243805C02
:1048D00002F05BF90120019000953B002A0094480A
:1048E000E4B2302161434018C16A3B48E4B2072575
:1048F0006543405D02F06AF9050001213648E4B2E3
:104900000722544300194078FFF74DFC280040B2BD
:10491000FEBD0000FF030000F0B583B004000D00F1
:1049200017001E00E4B2022C02DB0020C0432DE081
:1049300000212948E4B20722624380184078FFF73B
:1049400032FC80212943C9B22348E4B207226243E2
:10495000805C02F01AF901200190002000900023F1
:10496000F6B2320039001C48E4B207256543405DC9
:1049700002F02CF9050001211748E4B20722544344
:1049800000194078FFF70FFC280040B2FEBD10B5BB
:1049900082B00400E4B2022C1DDA6548E4B2302192
:1049A00061434018006902F041F90022AE4B02F069
:1049B0004DF902F0BFF90100090C6A461170010AB5
:1049C0006A4651706946887003236A4606212000B2
:1049D000C0B2FFF7A1FF13BD880F002010B582B051
:1049E0000400002069460870E4B2002C02D00020C8
:1049F000C04339E06A4642212000C0B2FFF7C4FE3E
:104A000068460078122801D000202DE04848E4B222
:104A10003021614340182421405C0007000F00282A
:104A200007D1C4484249E4B23022544309194860CE
:104A300019E03F48E4B23021614340182421405C32
:104A40000007000F012807D1BB483949E4B23022E2
:104A500054430919486006E0B8483549E4B23022A9
:104A6000544309194860012016BD38B504000020E0
:104A7000694648700020694608700025E4B2022C9F
:104A800054DA00AA521C09212000C0B2FFF77CFEB4
:104A9000002209212000C0B2FFF7C4FE2448E4B27E
:104AA00030216143401805692148E4B23021614357
:104AB00040180069D24988420AD3D2481C49E4B25E
:104AC00030226243891808612000C0B2FFF75FFFFF
:104AD0006A463B212000C0B2FFF756FE68460078C8
:104AE00040220243D2B23B212000C0B2FFF79AFE1F
:104AF0006A463B212000C0B2FFF746FE05E06A4649
:104B00003B212000C0B2FFF73FFE684600788006D8
:104B1000F5D46846427809212000C0B2FFF782FE32
:104B20000348E4B230214C430019056131BD000057
:104B30001C0E002038B504000D00002069460870E6
:104B4000E4B2022C00DB8EE06A4601212000C0B2F4
:104B5000FFF71AFE68460078F821014029436846AD
:104B600001706846027801212000C0B2FFF75AFEAA
:104B7000C548E4B2302161434018406AC34901404E
:104B8000EDB2E804F022D20302400A43BE48E4B288
:104B9000302161434018426203212000C0B2FFF778
:104BA0008FFDEDB2002D0CD1B748E4B23021614346
:104BB00040581E218843B449E4B23022544308517E
:104BC00051E0EDB2012D0ED1AF48E4B23021614386
:104BD00040581E21884302210143AB48E4B23022F1
:104BE000544301513FE0EDB2022D02D0EDB2032D4E
:104BF00013D102212000C0B2FFF762FDA248E4B247
:104C00003021614340581E218843062101439E48BC
:104C1000E4B230225443015125E0EDB2042D05D019
:104C2000EDB2052D02D0EDB2062D0ED19648E4B2BC
:104C30003021614340581E21884308210143924896
:104C4000E4B23022544301510DE08F48E4B23021E8
:104C5000614340581E2188430A2101438A48E4B237
:104C600030225443015131BD80844E4010B582B092
:104C70000400002069460870E4B2022C02DB002028
:104C8000C04321E08048E4B2302161434018202134
:104C9000405C002819D100212000C0B2FFF74AFF74
:104CA0006A4601212000C0B2FFF76EFD6846007819
:104CB0008021014368460170684602780121200086
:104CC000C0B2FFF7AFFD012016BD6F48E4B230213E
:104CD000614340182021405C012808D06A48E4B2B2
:104CE0003021614340182021405C02281ED1002160
:104CF0002000C0B200F00EFA6A4601212000C0B2C6
:104D0000FFF742FD684600784006400E694608708D
:104D1000684600789F210140684601706846027825
:104D200001212000C0B2FFF77DFDCCE70120C04388
:104D3000CAE70000B0CF0008E8CF000888D200081A
:104D400038B505000C00002069460870EDB2022D50
:104D500013DA6A4631212800C0B2FFF715FD684614
:104D60000078F82101400C436846047068460278D8
:104D700031212800C0B2FFF755FD31BD10B582B01A
:104D80000400002069460870E4B2022C36DA6A4654
:104D900026212000C0B2FFF7F7FC3B48E4B23021E7
:104DA00061434018406A00090007000F0B2818DB18
:104DB0003548E4B2302161434018406A010089045B
:104DC000C90F00290DD068460078082101436846C4
:104DD00001706846027826212000C0B2FFF722FD4C
:104DE0000CE068460078F72101406846017068468B
:104DF000027826212000C0B2FFF714FD13BD000089
:104E00000127B92900A1BC3310B582B004000020ED
:104E100069460870E4B2022C35DA1B48E4B230214E
:104E200061434018406A00090007000F062805D1B9
:104E300005212000C0B2FFF783FF04E0032120001A
:104E4000C0B2FFF77DFF6A461E212000C0B2FFF707
:104E50009BFC684600780007000F0B49E4B2302243
:104E600062438918496A09090901014368460170CA
:104E7000684602781E212000C0B2FFF7D3FC200054
:104E8000C0B2FFF77BFF13BD1C0E0020FFFF87FFA2
:104E900010B582B00400002069460870E4B2022C0C
:104EA0002EDA6A4633212000C0B2FFF76DFC984825
:104EB000E4B2302161434018406A01000905C90F7E
:104EC000002905D0684600784021014368460170FA
:104ED0008F48E4B2302161434018406A0100C904A0
:104EE000C90F002905D068460078FE2101406846B8
:104EF00001706846027833212000C0B2FFF792FCAF
:104F000013BD10B582B00400002069460870E4B2F9
:104F1000022C1DDA6A461D212000C0B2FFF734FCC6
:104F200068460178F12008407949E4B230226243B2
:104F30008918496A090A4907490F49000143684627
:104F40000170684602781D212000C0B2FFF76AFC9C
:104F500013BD10B582B00400002069460870E4B2A9
:104F6000022C23DA6A461E212000C0B2FFF70CFC97
:104F7000D648E4B23021614340580100C902C90F4C
:104F8000002906D068460078042101436846017074
:104F900005E068460078FB210140684601706846DC
:104FA00002781E212000C0B2FFF73CFC13BD10B5F3
:104FB00082B00400002069460870E4B2022C1DDAB9
:104FC0006A461D212000C0B2FFF7DEFB5048E4B264
:104FD000302161434018C068D14988420FD16846EA
:104FE00000780007000F7021014368460170684691
:104FF00002781D212000C0B2FFF714FC13BD444805
:10500000E4B2302161434018C068C649884208D1E3
:10501000684600780007000F602101436846017070
:10502000E5E73B48E4B2302161434018C068BE491F
:10503000884208D1684600780007000F50210143DC
:1050400068460170D3E73248E4B23021614340182A
:10505000C068D749884208D1684600780007000F29
:105060004021014368460170C1E7C7E738B5050034
:105070000C000020694608700022EDB2022D1EDAF5
:105080006A461E212800C0B2FFF77EFB6846007802
:10509000FC210140A4B220128007800F084369461A
:1050A0000870684602781E212800C0B2FFF7BAFBDC
:1050B0002200D2B21F212800C0B2FFF7B3FB31BDDE
:1050C00010B50400E4B2022C12DA002220212000E4
:1050D000C0B2FFF7A7FB7D48E4B2302161434058DE
:1050E000C00BC206D20E21212000C0B2FFF79AFBEE
:1050F00010BD80B5C0B2022809DA7449C0B23022AE
:10510000424389180A7A3921C0B2FFF78BFB01BDEF
:105110001C0E002038B504000D0000206946087000
:10512000E4B2022C76DA6A4601212000C0B2FFF711
:105130002BFB68460078F82101402943684601703E
:105140006846027801212000C0B2FFF76BFB5F4880
:10515000E4B2302161434018406ABB490140EDB2DE
:10516000E804F022D20302400A435848E4B2302156
:1051700061434018426203212000C0B2FFF7A0FA49
:10518000EDB2002D0CD15148E4B2302161434058BA
:105190001E2188434D49E4B230225443085139E07E
:1051A000EDB2012D0ED14948E4B23021614340589F
:1051B0001E218843022101434448E4B23022544373
:1051C000015127E0EDB2022D02D0EDB2032D13D133
:1051D00002212000C0B2FFF773FA3C48E4B230214C
:1051E000614340581E218843062101433748E4B2F9
:1051F0003022544301510DE03448E4B23021614380
:1052000040581E218843082101433048E4B230222F
:105210005443015131BD10B50400E4B2022C53DAFD
:1052200020220A212000C0B2FFF7FCFA1E220D2125
:105230002000C0B2FFF7F6FAD2220E212000C0B241
:10524000FFF7F0FA932227212000C0B2FFF7EAFA15
:10525000692228212000C0B2FFF7E4FA8122292127
:105260002000C0B2FFF7DEFA7E222A212000C0B261
:10527000FFF7D8FA96222B212000C0B2FFF7D2FA0E
:1052800012221F212000C0B2FFF7CCFA892235215B
:105290002000C0B2FFF7C6FAD02230212000C0B2F1
:1052A000FFF7C0FA402231212000C0B2FFF7BAFA5E
:1052B0008B48E4B23021614340182121425C322105
:1052C0002000C0B2FFF7AEFA10BD00001C0E002097
:1052D00038B50500EDB2022D20DA8148EDB230215B
:1052E00069434018406901F0A1FC02000B00002056
:1052F0007C4901F0ABFC01F00BFD0400220092B2EE
:10530000120AD2B202212800C0B2FFF78BFA2200A3
:10531000D2B203212800C0B2FFF784FA31BD0000E9
:1053200048E8010024F40000E4A2000038B50500BC
:10533000EDB2022D02DB0020C04337E06848EDB239
:10534000302169434018C0686549EDB230226A4394
:10535000891849694908401A01F068FC0022624B2B
:1053600001F074FC01F0D4FC0400002069460870D0
:105370006A4604212800C0B2FFF706FA68460078A2
:10538000C0210140220092B2120AC02082430A4387
:10539000D2B204212800C0B2FFF744FA2200D2B2F0
:1053A00005212800C0B2FFF73DFA012032BD000000
:1053B000127A000010B582B004000020694608701F
:1053C000E4B2022C23DA6A4630212000C0B2FFF793
:1053D000DBF94348E4B23021614340580100C9027F
:1053E000C90F002906D0684600781021014368469D
:1053F000017005E068460078EF21014068460170C1
:105400006846027830212000C0B2FFF70BFA13BDC6
:1054100000B50100002000E0401C80B2152810DA21
:10542000B24A80B208234343D2589142F4D3AF4AE0
:1054300080B208234343D21892689142ECD2C0B2A2
:1054400000E0002000BD0000FFFF87FF38B5050029
:10545000EDB2022D29DA2248EDB23021694340181D
:10546000C0684008FA2189004018FFF7D1FF040006
:10547000E4B2002C19D0E4B2142C16DA9B48E4B242
:10548000082161434018027912212800C0B2FFF7B9
:10549000C9F99648E4B208214C430019027B132154
:1054A0002800C0B2FFF7BEF9FFE731BD10B5040018
:1054B000E4B2022C12DA002225212000C0B2FFF74C
:1054C000B1F90748E4B2302161434058C00BC2062D
:1054D000D20E26212000C0B2FFF7A4F910BD0000B3
:1054E0001C0E002080847E4180844E4010B582B026
:1054F0000400002069460870E4B2022C12DA6A4601
:1055000009212000C0B2FFF73FF9684600788021EA
:105510000143684601706846027809212000C0B244
:10552000FFF780F913BD38B50500EDB2022D00DBA1
:10553000DBE000206946087000246A460921280043
:10554000C0B2FFF721F96846007800060AD568481E
:10555000EDB23021694340181A2140560F2802DB72
:10556000872400E084242200D2B24D212800C0B25A
:10557000FFF758F968460078000674D5E4B2872C26
:1055800038D15B48EDB23021694340181A214056AA
:10559000052807DA05205649EDB230226A438918FA
:1055A00088760FE05248EDB23021694340181A2145
:1055B0004056152806DB14204D49EDB230226A43CF
:1055C0008918887668460078702101436846017022
:1055D00068460178F02008404549EDB230226A4320
:1055E00089181A228956491F0907090F014368467D
:1055F000017073E03E48EDB23021694340181A2132
:105600004056022807DA02203949EDB230226A43B7
:10561000891888760FE03648EDB23021694340188A
:105620001A214056122806DB11203149EDB23022F2
:105630006A43891888766846007870210143684675
:10564000017068460178F02008402949EDB2302207
:105650006A4389181A228956891E0907090F0143CE
:10566000684601703AE02248EDB2302169434018A3
:105670001A2140560021C943884208DA0020C0435D
:105680001B49EDB230226A43891888760FE018482A
:10569000EDB23021694340181A2140560F2806DB2D
:1056A0000E201349EDB230226A4389188876684685
:1056B0000078702101436846017068460178F02047
:1056C00008400B49EDB230226A4389181A228956E4
:1056D000491C0907090F01436846017068460278B2
:1056E00009212800C0B2FFF79DF831BD6CBF00084A
:1056F0001C0E0020D0B582B00400E4B2022C00DB06
:1057000002E100206A461070C9B2002930D06A4612
:105710001B212000C0B2FFF737F8AA48E4B23021BD
:10572000614340180069A849884210D26846007851
:1057300001F07CFA0022A54B01F013FB01F0E8FA1E
:10574000A049E4B2302254430919C883DCE068461A
:10575000007801F06BFA00229D4B01F002FB01F092
:10576000D7FA9849E4B2302254430919C883CBE0F0
:105770006A4619212000C0B2FFF706F86846007893
:1057800000061BD568460078C143491C8810800676
:10579000800E8C49E4B2302262438918C876894869
:1057A000E4B23021614340181B21405641428548F4
:1057B000E4B2302262438018C17609E0684600787E
:1057C000C0B280087F49E4B2302262438918C876AB
:1057D0007C48E4B230216143401800697A4988422C
:1057E00049D27848E4B23021614340181B21405629
:1057F000002826D577480CC808380020764901F0E3
:105800008AFB0022754B01F0ACFA0022744B01F0C8
:10581000A8FA06000F006B48E4B23021614340183B
:105820001B21405601F0F8F932003B0001F099FAD3
:1058300001F06EFA6349E4B2302254430919C88377
:1058400062E00020694608706A461A212000C0B252
:10585000FEF79AFF6846007801F0E8F9B94A0CCAE9
:1058600001F07FFA01F054FA5649E4B23022544371
:105870000919C88348E05348E4B230216143401815
:105880001B214056002826D552480CC80838002055
:10589000514901F040FB0022504B01F062FA002216
:1058A000A94B01F05EFA06000F004648E4B2302131
:1058B000614340181B21405601F0AEF932003B0015
:1058C00001F04FFA01F024FA3E49E4B23022544389
:1058D0000919C88318E00020694608706A461A2131
:1058E0002000C0B2FEF750FF6846007801F09EF934
:1058F000BE4A0CCA01F035FA01F00AFA3149E4B2A5
:10590000302254430919C883D3BD10B582B00400B6
:10591000E4B2022C14DA0020694608706A461121AC
:105920002000C0B2FEF730FF68460078C0B24008E1
:10593000C0B241422348E4B2302254430019C1832B
:1059400013BD80B5C0B2022805DA8A01D2B2402167
:10595000C0B2FEF767FF01BD10B582B00400E4B22B
:10596000022C01DB00202BE01648E4B23021614319
:105970004018406A01004904C90F002901D00020E5
:105980001EE00020694608700E48E4B230216143F1
:1059900040182021405C002811D16A4611212000C6
:1059A000C0B2FEF7F1FE6A4612212000C0B2FEF737
:1059B000EBFE68460078000601D5012000E00020DB
:1059C00016BD00001C0E0020008F4233006063C033
:1059D00000C062C0F0D900080000244000C065C0CB
:1059E0000000104070B582B004000E001500E4B253
:1059F000022C01DBFF20A4E0002069460870B448B7
:105A0000E4B23021614340182021405C002855D188
:105A1000684602780D212000C0B2FEF703FF6A46F7
:105A200013212000C0B2FEF7AFFE684600780028C0
:105A30002CD000212000C0B2FFF75CFE6846007841
:105A4000EDB2854220D36846037832000021200061
:105A5000C0B2FEF71BFF9E48E4B2302161434058BC
:105A6000C84901409A48E4B2302262438150002183
:105A70002000C0B2FFF73EFE00212000C0B2FFF7B9
:105A800059F8684600785CE0FE205AE001212000C9
:105A9000C0B2FFF72FFE00212000C0B2FFF74AF886
:105AA0008B48E4B2302161434058B64901408848F0
:105AB000E4B2302254430151FE2042E06A46002104
:105AC0002000C0B2FEF760FE2000C0B2FFF71DFF4D
:105AD00068460078002822D068460078EDB28542FA
