:020000040800F2
:100000006008002061B000086DAF000871AF000803
:1000100000000000000000000000000000000000E0
:1000200000000000000000000000000075AF0008A4
:10003000000000000000000079AF00087DAF00085C
:1000400073330008000000007D920008D73C0008D0
:10005000DB3C000897AF0008173E0008B5AF00086A
:100060000000000093AF000895AF00081767000874
:10007000B36A00083F6E0008F36E0008000000003D
:1000800085AF000800000000000000004B7E000863
:10009000A398000869AF0008BFAF0008E3B20008EA
:1000A000EFB200084DB500084FB5000887AF000853
:1000B00091AF00084007400F704780B2C010800722
:1000C000800F704780B240118007800F7047994AB7
:1000D0000240C9B24801104380B2704780B2C111DA
:1000E0000800C007C00F7047934A0240C801104380
:1000F00080B2704780B2000A80B27047A849C0B28F
:100100000818407880B2704780B5C0B2FFF7F6FF9C
:10011000012180B2FFF7E8FF02BD00B5A049C0B2DF
:10012000095CFF2900D0401EC0B200BD00B59C494B
:10013000C0B208184078FF2801D0012000E000205C
:10014000C0B200BD10B50C0002E0C0B2FFF7E5FF81
:1001500021004C1EC9B20029F7D1C0B210BD0178F0
:1001600040780002084380B270470178427812025A
:100170000A43817809041143C07800060843704798
:10018000C178827812020A43417809041143007849
:100190000006084370470A00027089B2090A4170DC
:1001A00070470A0002700A0A42700A00120C82703C
:1001B000090EC17070470A00C2700A0A82700A00F4
:1001C000120C4270090E01707047FF20704770B525
:1001D00002000B000021CF4C002500E06D1C9D4269
:1001E0000FD2505D000248400100082001E04900A4
:1001F000401EC0B20028F1D00E04F8D5490061407D
:10020000F6E7080080B270BDF2B5040016001D00CC
:1002100010210022C04F380002F098F84920BE4952
:100220000870002E01D0012000E00020BA4948717A
:10023000B948C5732100B948FFF7B3FF0099D24808
:10024000FFF7AFFFF1BD70B50400080011001A0000
:10025000059D2B00FFF7D8FF10222100CB4C20007A
:1002600002F09EF8049C2800020092B221000220B5
:1002700002F02AF906006019FFF782FF864201D1D9
:10028000012000E00020C0B270BD38B504000800B5
:1002900011001A00059D2B00FFF7B6FF1022210068
:1002A000BA4C200002F07CF8049C2800020092B2B4
:1002B0002100022002F008F901006019FFF77BFF1E
:1002C00031BD38B504000D00B04802F031FD280002
:1002D000020092B221000A2002F0F6F80100601933
:1002E000FFF769FF31BD70B504000D00A74802F0AB
:1002F0001FFD2800020092B221000A2002F0E4F85B
:1003000006006019FFF73CFF864201D1012000E0A2
:100310000020C0B270BD000038B504000D009B483D
:1003200002F006FD2A0092B22100002002F0CCF873
:1003300031BD00009FFF00007FFF0000F4B5040006
:100340000D001E000798012828DB10210022724FA3
:10035000380001F0FBFF01206F49C8736E48C07B75
:100360006D490870002E01D0012000E000206A498C
:10037000487129006948FFF714FF00998248FFF788
:1003800010FF10222100814C200002F009F807988C
:10039000020092B20699042002F096F8F1BD000026
:1003A00054B40008F8B506000F0014001D00102119
:1003B0000022200001F0CAFF01202070062239002F
:1003C000671C380001F0ECFF310089B2E01DFFF737
:1003D000E2FE10222100280001F0E2FF0220287036
:1003E0006A4802F0A5FC10222100002002F06CF8FF
:1003F000664802F09DFC10222900002002F064F8FB
:10040000F1BD38B50500280080B2FFF753FE0400A7
:10041000280080B2FFF751FECB49E4B203225443D7
:100420000919085C8D3832BDF1B582B00D006846FF
:100430000089FFF742FE6946487068460089FFF769
:1004400039FE0400E4B2002C09D1EDB20B35FA20DC
:10045000400145432800A74902F0C4FE58E02600A9
:10046000B61D04204643E4B2052C01DB082000E061
:1004700000206946301A087068460089FFF72EFE92
:10048000002801D0002700E0102768460089FFF708
:1004900031FE002801D0142000E00020EDB2082138
:1004A0004D43F6B2A91BC9191C31081A012812DBE9
:1004B000694609784018401E6946097802F092FEA4
:1004C000050068460089FFF7FDFD0100491D280071
:1004D0004843083000E0082080003130641C694641
:1004E0004978661AB74DF6B2052E02DB311F0D4171
:1004F0000426B040FA218900484304002800022164
:1005000002F070FE010020004018290002F06AFE8F
:10051000FEBD000021100000340E00203A0E002025
:1005200070B50C00C0B2002806D1A4486021455E19
:10053000A2486221405E0BE0A0496022895EC0B201
:100540004143CD119D496222895EC0B24843C0112A
:1005500005269A496422895E994A12784A4380188E
:100560009949E4B204226243895802F03BFE401DDF
:1005700092498875F6B2083E9348E4B204214C4390
:1005800000594643701970BD3E0E0020480C0020F3
:1005900010B5C9B200290ED000218C4A118000216B
:1005A0008B4A11800021864A11708A4909780C22F1
:1005B0000A4388490A708449CC68C0B20021FA22F3
:1005C0009200002302F068FE834A002312184B4178
:1005D00010001900FA229200002302F076FE21009A
:1005E00002F000FE401D7D4908707D480068FA2138
:1005F000490240187949097808396143401A9349FA
:10060000086010BD70B5040010210022904D280034
:1006100001F09CFE082100228E4D280001F096FE7C
:100620008D4801688D48FFF7BCFD8D4801688D48F5
:10063000FFF7B7FD10228949002001F045FF6578DA
:100640008648FFF78CFD010087480722521B1041A6
:10065000084063490E681E214843C117FA229200E0
:10066000002302F019FEFA229200002302F02DFE70
:1006700030187E49401860600020A0702178012069
:10068000A840801CC0B2FFF74BFF6168081AA06049
:100690004A48807DE07070BD70B504000E0011E026
:1006A00021782818801CC0B2FFF73AFF6168EDB2CC
:1006B000F02252025543EA118918081AA0603F48F7
:1006C000807DE070A068801B002801D401200FE02D
:1006D000A578EDB2802D01DB002009E001206178D2
:1006E000884029180D00A170C9B28029D8DB0020EC
:1006F00070BD000050C3000070B5040002F03EFF62
:10070000C0B20602350002F039FF2E000643B6B231
:1007100030008949884206DBB6B23000FA218900F0
:1007200002F060FD0800E4B2002C0BD00500F6B228
:100730003000E4B2210002F055FDFA208000414370
:100740002800401870BD000038B3000810B5040040
:100750000800C0B2FFF7D0FF010020004018644934
:100760000978002904D01549096D411A012908DBCF
:10077000124908658848008880214900014386485D
:10078000018010BD6D480170704700B552B27F20E6
:10079000C043824201D06A480270684800780A006B
:1007A000D2B2904208D0654801707B480088802111
:1007B000090101437848018000BD00006008002065
:1007C00041090020093D000080B20008C008002057
:1007D000C4080020A6090020E703000099090020B2
:1007E000A009002038B50400102100226B4D28001C
:1007F00001F0ACFD08210022694D280001F0A6FDA2
:100800000020002007E03F217E4AC0B2022343437C
:10081000D2189187401CC0B20828F4DBE4B2002C47
:1008200003D1FF207849088002E001207649088042
:100830000A207449888614207449087002F09EFECC
:10084000602102F0CFFCA248017031BD9C0900205C
:10085000480C002060090020A80900205809002049
:10086000200900205C090020FF0F0000480800005C
:1008700070B505000C001600EDB2082D01DB00205C
:1008800034E07D4800787D4948437D4940188442E2
:100890000DD279480078794948437A494018A042F6
:1008A00005D22000784902F0A0FC002901D00020E8
:1008B0001CE0B6B2002E01D13F26FFE75148EDB251
:1008C00002214D43401986874F48058801266A4812
:1008D00000786A494843201A7E4940186A4902F064
:1008E00084FC86402E4348480680012070BD0000ED
:1008F000AF08002010B5401EFFF737FC040A642043
:1009000044435D4800785D4948435D49401884424E
:100910000DD259480078594948435A494018A042D5
:1009200005D22000584902F060FC002901D00020C7
:1009300000E0200010BD0000E9030000BC0800201A
:10094000BB08002000B54C4A1278D2B25208C0B29F
:10095000904201D000201EE0FF20474A1278D200CA
:1009600008231A409040002801D1012000E0002017
:100970000A001300DB07DB0F034201D000200AE06E
:10098000FF203D4A1278D20008231A4090400840C8
:100990009A490880012000BDB80800209C0800206A
:1009A0009408002038B504001648806A002802D058
:1009B0001448806A00E0474891490978324A514317
:1009C0002D4A12785E4B5A4389180D185D480178FC
:1009D0000C48808AFFF728FD5B490A4AD5608A786F
:1009E000084B1A760A884243A2184A60854909785A
:1009F000002905D0834909788840201801490865F5
:100A000031BD000060080020AC08002096080020DE
:100A100030B57D494418B348846B2D4800780025D3
:100A200000E06D1CEDB2082D24DA401CC0B208288D
:100A300004DBC0B2082102F0D5FB08006F49098829
:100A4000012282401142ECD0A649C0B202224243A8
:100A50008918898F6D4A12781207120F89B2D14016
:100A6000C907DED51A49087019480078644908702A
:100A7000200000E0200030BD90080020006A18002F
:100A800060BAD71C2043BC1C400D0300704780B5E2
:100A900000205B49087014205D4908705D480078AB
:100AA0005D49087005210020FFF76CFE0120FFF76B
:100AB00099FE5A480088000500D5FEE70820FFF798
:100AC0001BFE8849896B08188649486001BD0000F3
:100AD000970800206050BF1C38B500244B480078B0
:100AE000002805D105210120FFF74CFE012408E074
:100AF00046480078FFF711FB0100C9B20120FFF75B
:100B000041FE46480088784901404448018002F08F
:100B100092F905007348806B281A002801D57148A6
:100B2000856BFF20394909780841C0B2FFF7E4FD21
:100B300028186E4940186B494860E4B2200032BD65
:100B400080841E00570900209408002080B501F021
:100B50000BFA01BD80B5C0B202F007F901F004FA4A
:100B600001BD80B501F04AFB00F0DFFF0C20FFF76C
:100B7000F1FF01BD00B500205D4908605C480068D8
:100B80005C49086000205C49087000205B490870DF
:100B90005B4908705B4908705B49087000205B493D
:100BA00008705B4908705B4908705B490870002059
:100BB0005A49087000205A4908701F20C0435949FB
:100BC00008705948006800280ED14648C06A0028BD
:100BD00001D1564801E04348C06A55490978554A51
:100BE000514308185049086005205349087053487C
:100BF0005349086003205349087000BDAC08002029
:100C0000AE080020AF08002000512502BC080020DB
:100C1000BB0800203909002038090020B80800204E
:100C200038B549480078112800D0FEE7474C072125
:100C30002000FFF7CCFAE179C0B2814201D0002058
:100C40004FE02000FFF791FA0002000A2549496DA4
:100C5000884202D00020C04343E03D480078FC2198
:100C600001403B4801701F48807C3A4908701D488C
:100C7000008A394908701B488068903837490860F5
:100C8000E01CFFF772FA364908603148007801210C
:100C900001432F48017020000F30FFF760FA050074
:100CA0000F212000FFF793FAADB2854201D0012059
:100CB00017E020000830FFF758FA001229490860B1
:100CC00020000B30FFF751FA001227490860207A04
:100CD000264908701E480078022101431C48017013
:100CE000022032BD60080020FFF70000B80B0000B2
:100CF0002809002024090020BE0800203109002016
:100D0000300900202E0900202C0900203409002081
:100D10003509002040090020330900204309002044
:100D2000BA0800202D0900203C0900206050BF1C9B
:100D30009008002080841E009809002008E6D33324
:100D400050090020440900205709002058090020BC
:100D5000A6090020A5090020A4090020A009002060
:100D6000A8090020B0090020B4090020AC09002027
:100D7000F0B589B0B348039003980078E0240440AC
:100D8000B1490E780C2E07DB800705D1E4B2602C48
:100D900007D0E4B2A02C04D00020AB49087000209A
:100DA0002BE2039845790398401CFFF7DEF9009089
:100DB0000398801DFFF7D3F907002807000F07905D
:100DC0002020284040110890079808300290361FD4
:100DD00004960098C74909688842DDD104980299B1
:100DE0008842D9DB0020C04305900020069002987D
:100DF0000499884206DA03980299405C05900298AB
:100E0000401C0290BC480068BB490968791A89B245
:100E10004718049801900398009001233A00B548C0
:100E20000168C848FFF70FFA0028B5D0B24800683B
:100E3000874213D2B0480068B842ADDBAE480068C4
:100E4000401E874206D1C0480078002802D0E4B294
:100E5000A02C00D0A0E7012006900BE03800401C39
:100E6000A5490860E4B2A02C01D1202000E00020B8
:100E7000B5490870B4480078002801D1E80605D5C6
:100E8000C648008810210143C44801800020C4499D
:100E90000870C3480078C3490870C348CD21405644
:100EA0007F21C943884203D01F20C043BF49087037
:100EB000BD481021445E403CBB48808AFFF7A1FA40
:100EC000201A002801D5002003E0FF2801DBFE20C6
:100ED000FFE7CB490870039806000836002400E0BD
:100EE000E41C0798844200DB30E1305D0228F7D033
:100EF000032810D0042800D18BE005285BD00628F9
:100F000054D0072800D1A1E0112800D1CEE012284A
:100F100000D1DBE01AE1301945783019801CFFF769
:100F20001EF931190979F0220A40694633191B79F3
:100F30001B071B0F4B70641D8721BF4B19700100ED
:100F400089B21000C0B2FFF7FDFC002805D1BA48F5
:100F50000078FE210140B848017068462900C9B2F6
:100F60000909017068460078FFF7E0F8002805D10C
:100F7000B1480078FD210140AF480170AE480078CB
:100F80004006400E07280DD1684640789D490870FC
:100F90009D48EDB22907090F4256684601780420A2
:100FA000FFF7F3FB01207F4908709AE70120A3496E
:100FB0000870641C95E76846311949780907090FDC
:100FC00001703019801CFFF795FC0500641D80201E
:100FD0009B49087068460078FFF7A8F8002805D0FC
:100FE000974800780221014395480170002D05D0F3
:100FF000934800780121014391480170904800789E
:10100000832805D1684600789A4908709A48056097
:1010100067E730194078A41CC0B2FF2805D15F49AA
:10102000098840220A435D490A800007000F93495E
:10103000087001F000FF5C490865012090490870C4
:101040004FE700BF580900205709002030194578A4
:101050003019801CFFF74EFC3119497980229E4BD4
:101060001A70002820D00023DB4300939B4A0B0713
:101070001B0F9A409446994A13000F22C9B20909DE
:10108000511A1A000A4161460A40009B92B20100BF
:101090002800C0B2FFF7ECFB002805D08E4800788E
:1010A000032101438C480170A41D1AE73019401C2C
:1010B000FFF720FC241D8021002804D00A00012114
:1010C0001143874A1060874801700AE73348007867
:1010D000800734D43019C078954908702F480088AB
:1010E000022101432D48018092480078002805D153
:1010F000FEE700BF20090020240900203019401C11
:10110000FFF72DF801002848856889B21E20484362
:10111000C117FA229200002302F0BEF8FA229200D0
:10112000002302F0D2F82818834940188349086048
:1011300000208349087001211E20FFF729FA241D91
:10114000CFE600BF000900202C09002006980028E7
:101150001BD10598002818D404980299401A012838
:1011600013DB0598012801DA764800E076480499F7
:10117000029A891A01910399029A89180091012310
:101180003A0072490968FFF7D9F8714800780028D9
:1011900014D0089800280BD080200AE0B80800205E
:1011A000BE0800202E090020600800202D09002024
:1011B0004020684909780843664908700598002866
:1011C0000CD56448007820210143624801700298E0
:1011D000614908700020614908700DE05D480078A1
:1011E000102101435B48017002985B490870049824
:1011F0000299401A59490870012009B0F0BD000059
:101200002F090020BA08002068B3000880B502202A
:101210005049087017480078FEF776FF50498882D9
:10122000154800684E49C86000204C4908700220EB
:1012300002F000FA01BD0000300900203109002051
:101240004009002010B50A00454949680818454979
:10125000084B1B7804246343C9580323594340189F
:101260003F4988603E488168891ECA4801F022FED5
:1012700010BD0000380900203C090020AF08002004
:101280003409002010B50400012032490870012102
:101290003348808AFEF728FF314988823048C06A87
:1012A000002802D02E48C06A00E02F482F49097854
:1012B0002F4A51432F4A12782F4B5A438918081846
:1012C0002749C8600020254908702548446202204B
:1012D00002F0B0F910BD000035090020FFFF00004A
:1012E000500900204309002038B505000C002348B0
:1012F0000088234901402348814209D19448FFF7DF
:1013000081F91E4800888021890001431B48018023
:1013100013484068401912498860082010498875B0
:1013200022000F488168891EB74801F0C3FD31BD16
:1013300098090020420900200F0CFEFFA0090020A0
:10134000A609002000090020100900202009002023
:101350005409002055090020560900205709002093
:101360006008002080B200086050BF1CAE0800205A
:10137000400D03009008002080841E00B808002063
:10138000020600000204000080B50820FFF7E2FB1F
:1013900001BD70B586480078012804D185480078E1
:1013A000002800D1FEE7AE480078000600D4FEE732
:1013B00080480078002833D1A9480078400718D425
:1013C000A7480078800600D4FEE7A54800887A493F
:1013D0000140A3480180794800780A2804DA774858
:1013E0000078401C754908700920FFF7B3FB012005
:1013F000ADE09B4800888549014099480180FFF78E
:101400006BFB0500E80701D5814C00E0814C01F041
:1014100012FD220041195F4801F04CFD012096E0C9
:101420007D480478634805788E48EDB24019F43061
:10143000FEF79BFEEDB2112D02D0EDB2212D04D1AD
:10144000E4B2E3202040202806D059480078C007A5
:1014500001D500207BE0AFE7EDB2691E8B48FEF7B7
:101460005BFFEDB2291F6C48FEF73DFF0028ECD072
:101470008748FEF77AFE0400864804608648FEF737
:1014800074FE0002000A7749486584480078000726
:10149000000F8349087083480078C0B200094007F4
:1014A000400F814908707F4800784007400F7F490E
:1014B00008700020FFF796F9EDB2122D0DDB0D2517
:1014C000032607E06748EDB24019F830FFF712FA3B
:1014D000761CED1CF6B2082EF4DB754B754A6B4991
:1014E00075480088401E80B2FEF75CFF7348C465F3
:1014F00010226F49724C200000F052FF10226D49FB
:10150000704C200000F04CFF02206C49C87002F0C3
:101510009CF9534800782421084200D1FEE7504846
:101520000078800607D52548017867480078FEF7DF
:1015300009FE654908704A480088644901404848E6
:101540000180FFF717FB0620FFF704FB012070BDA9
:101550004409002080B517480078002802D10020F7
:101560005B490870FFF715FF01BD80B559483D493B
:101570004862FFF74BFE01BD80B50E480078002899
:1015800003D0FFF706FF002803D153495348FFF764
:1015900059FE01BD7C08002080B55148FFF772FE5E
:1015A00001BD80B54F495048FFF79EFE01BD0000C8
:1015B00055090020570900205FFF0000BE080020E9
:1015C00080B500F021FB01BD10B548480078002827
:1015D00010D100203E49087001F02DFC04000220CB
:1015E000FFF78AF8424A201842494118064801F09C
:1015F00061FC01E000F008FB10BD80B53E481949D0
:101600004862FFF703FE01BD7C0800207FFF000059
:10161000891300084D0B00085809002080B5334895
:101620000078002803D000F0EFFA002811D11C4800
:101630000078002802D1FA20C00007E0184800789E
:10164000FA2189004843FA21890040182B49FFF705
:10165000F9FD01BD80B5CD48FFF714FE01BD0000C6
:10166000B80800206008002080B50D4800780028E8
:1016700002D1FA20800004E009480078FA218900AC
:101680004843C349FFF730FE01BD0000590900205F
:101690005F090020200900205C0900206409002067
:1016A000370900206309002036090020380900208E
:1016B0001009002000090020FE080020F80C00207E
:1016C000140D0020240D0020BC08002059FD00004E
:1016D00055090020551500086B150008701700000B
:1016E0007915000899150008881300005709002093
:1016F000C1150008B80B0000C9150008FB1500084B
:10170000F0B583B0A348007818210140102901D01A
:10171000012500E00025EDB2002D02D09E4807789B
:1017200000E0002708249B4800889C4901409B4812
:1017300081420FD110209A490919F82288549948FA
:101740000078994909780901014395480019F9225F
:101750008154A41C95480078002808D004209049A2
:101760000919F8228854641C002090490870904898
:101770000078002810D0052089490919F8228854DA
:101780008B4800788007800F85490919F922885411
:10179000A41C00208649087086480078002814D0D0
:1017A00006207F490919F8228854834800787C492B
:1017B0000919F9228854FEF708FD79490919FA2216
:1017C0008854E41C00207B49087099480078002860
:1017D00010D0032072490919F822885494480078DF
:1017E0004007400F6E490919F9228854A41C0020B3
:1017F0008F4908708F480078002805D0122068496A
:101800000919F8228854641C8B48007800280AD0F3
:101810006348CD214056002802D500208749087032
:1018200000208549087086480078002811D01120D2
:101830005B490919F8228854814800780100C907DA
:10184000C90F57480019F9228154A41C00207C4973
:1018500008707C480078002810D0072050490919EA
:10186000F8228854774800788007800F4C4909197E
:10187000F9228854A41C002072490870192C00DB3E
:10188000FEE7EDB2002D03D0FFB23800401D00E0AE
:10189000042021000E18F6B2412E02DB002526009E
:1018A000361D4020954908703D48CD2140560028FE
:1018B00001D4402000E000207D4909787D4A12785B
:1018C0000A4310432100083901437B4801708C48CA
:1018D00001687A48FEF765FC8A480078002804D140
:1018E00089480068401C8849086087480068411E94
:1018F00089B28648FEF74FFC00206D490870EDB2B2
:10190000002D32D0A0480078002809D080207B49E3
:1019100008707C480078002802D1012079490870BD
:101920007B4800781E490919F8228854FFB23A0012
:1019300078491B4800190500F935280000F030FDF2
:1019400073480078002801D1734800E07348FFB263
:10195000019713490919F931009100236A490A686E
:10196000521E67490968FEF7E9FCF6B2301F019084
:1019700062480090002364480268521E6048016873
:101980006548FEF782FC81480670F7BD1D16000809
:1019900055160008B8080020C808002002040000FE
:1019A0006008002044090020450900203409002077
:1019B00040090020310900202F09002080B50020B7
:1019C00001F038FE834801F049FA70480078002899
:1019D00009D16F4800886F4901406D48018001209E
:1019E000FFF7B8F823E0FFF71BF901280CDA002015
:1019F00066490870032001F01DFE674A67480168C8
:101A0000744801F057FA12E001210D20FEF7C0FDE5
:101A10005F480088624901405D4801805C48008859
:101A2000022101435A4801800220FFF793F801BDCB
:101A300030090020420900202E0900202D09002035
:101A4000430900203509002080B52D480068002892
:101A500003D04F480078400700D5FEE74C48007897
:101A6000400623D400204F490870114908702549C9
:101A70000870474800884C49014001200843444908
:101A80000880FFF703F801F0D6F95349401843499D
:101A9000086042480068514988603F4A4F48816861
:101AA0004C4801F007FA032001F0C4FD01BD00001D
:101AB0002C090020320900205D090020590900206E
:101AC00010B50E4C2070601C01F000F920000930A8
:101AD00001F015F9A848018820001130FEF75BFBE2
:101AE00013212000FEF7EDFB172028490870A248BB
:101AF0000088401CA049088010BD00005809002043
:101B00002009002054090020280900205E09002037
:101B1000C6080020C9080020000900201009002084
:101B200080B50520FFF716F801BD80B500202C49CF
:101B300008700020144908702A4908702A49087062
:101B4000042013490880FEF7A2FF284800780128E6
:101B500013D12648806E2649086026480078264919
:101B6000087026480078264908702048006F1B49F5
:101B700088621E48406F1949C8622249154801F021
:101B800084F9012002BD0000C70800205709002089
:101B9000B8080020FCFF0000BD190008A0090020C3
:101BA000FEFF0000A60900207FFF000080B57448FA
:101BB000007800280AD0042072490870FFF7D8F88E
:101BC000002803D00D20FEF7C5FF01E000F0CCF99E
:101BD00001BD00007C080020E8F70100600800203B
:101BE000AF08002054090020BE080020F80C002097
:101BF0003C090020640D002038090020670D0020FA
:101C000090080020211B000880B55F48007800067E
:101C100000D4FEE75A480078002800D09FE05B48D7
:101C2000007800282AD059480078082822DA574836
:101C30000078401C55490870554854490978415C62
:101C40004E480078FEF77EFA01007F22D243C9B2E7
:101C50000220FEF79AFD0321A6488068FEF776FD74
:101C6000494800884B4901404748018000F07CF911
:101C7000012002BD60204349087002E02020414954
:101C800008709C48CD2140567F21C943884204D02A
:101C9000A2480078401CA14908700020384908700B
:101CA0003748007898490870374800889C490140B7
:101CB000354801803348007840070CD0324800880E
:101CC000C00408D530480088964901402E4801805C
:101CD0000F20FEF73FFF0020934908700A20FEF70F
:101CE00039FF8448CD21405641281CDB2348007829
:101CF000FEF713FA01007F22D243C9B20320FEF798
:101D000044FD2020854908701F4800888121490131
:101D100001431D48018001208449C87001F095FDF0
:101D20000E20FEF717FF82480078002815D01648CD
:101D30000078800706D50220FEF70CFF00207C49C2
:101D400008700AE07A480078401E7949087078489F
:101D50000078002801D1FFF777FE012089E7FFF71F
:101D600007F8002806D107480078C00701D50020F1
:101D70007FE754E798E70000FE080020BC08002039
:101D80005709002055090020B808002054090020F8
:101D900060B400087FFF000070B5664805686648BB
:101DA000067866480078002853D0FEF739FF0128EE
:101DB0004FDB0424B00704D100210D20FEF7E8FB1F
:101DC0008CE05F485B490968401A41195D4800781A
:101DD00000280CD05C48058809B246486022805E25
:101DE000081A58490978491C01F0FCF92918524889
:101DF0000078400719D454480088421A12B2002AC9
:101E000002D5100000B24242504802803948642393
:101E1000C05E13001BB2984201DA4D48028046486A
:101E20000078F722024044480270474801800020B1
:101E3000C2490870C1480078424908703E4800789D
:101E4000FB2101403C4801703B480078800735D1B8
:101E5000FEE7032437480068FA2149024018254963
:101E60006022895E401A334908603A480068803031
:101E70003849086033480078401C32490870042112
:101E80002C480068BC4A8018FEF760FC2D4800789A
:101E9000152805DBB948008820210143B748018097
:101EA0002D480078652809DBB44800882B4901409B
:101EB000B24801800B20FEF74DFE1AE003210020FE
:101EC000FEF72EFB1B490968FA2252028918081AEC
:101ED000BF4908600748807D1F490870A7480088EF
:101EE000800502D5BB48FEF78DFB2000C0B2FEF78F
:101EF00031FE70BD6008002080B51948B6494862BF
:101F0000022001F097FB01BD5609002080B515485D
:101F1000B2494862022001F08DFB01BD2D0900206D
:101F200077FF0000FFEF0000C8080020F80C002039
:101F300042090020A0090020A6090020570900201E
:101F400000F4FFFF41090020C0080020C208002063
:101F5000C4080020A809002099090020DDF900002C
:101F6000991D0008AD1B0008F8B584480078C12110
:101F7000084200D0D7E09A480068002806D17F4880
:101F80000078400702D4FFF7D0FDCCE000F053FF0B
:101F90000500002700247948007880070AD528002A
:101FA000801C8B490968401A012800DBFEE788483D
:101FB0000768BF1E714800783C21084200D1B7E095
:101FC0006E4800782421084201D0012600E0002656
:101FD0006A48008800050CD52800FEF719FD7E49E7
:101FE00048600400654800887E49014063480180DC
:101FF00001E0794844687C480078002803D15F48B4
:102000000088C00506D57448006D201A002801D547
:102010007148046D59480078800724D5F6B2002E27
:1020200001D0724800E072482018C01B01281ADB5A
:10203000102151483818FEF789FB00244F480088CA
:10204000800500D4A4E02900891C6248FEF724FB27
:10205000002800D19CE0002C72D066480068201A4D
:1020600000286DD559E0601B801E002851D52C003A
:1020700061480578F6B2002E14D0404800788006FA
:1020800008D52E4801782800C0B2FEF75BF805009D
:10209000C02000E00020C0B2FFF712FD72484E4998
:1020A000486219E0714800687F21C943884204D31F
:1020B0007149934800F0E9FE35E070480078002847
:1020C00005D16F4800680021C9438842F0D0FFF76E
:1020D00017FB7548404948622800C0B2FEF70EF869
:1020E0007249097880B2FDF7F2FF3B4988823A488D
:1020F000C575224800886E490140882000010843C8
:102100001E4908802000FEF74DFC012001F092FAE4
:1021100009E01A480078800706D4664AA41E210008
:10212000774800F0C7FEF1BD002C87D1641C85E71D
:1021300012480078800700D580E7F4E7BE08002049
:102140006B480078244988752A48006822498860CD
:10215000684800682049C8601E480078FDF7D4FF31
:102160001D4988820020644908701B488068401B14
:10217000801C002804D5FEE748080000B8080020AD
:102180005E4A15488168891E5D4800F093FECAE7E3
:10219000002C02D0E01B0028BFD4FEF777FC594882
:1021A00000780D4988750A4800680B498860E81B6B
:1021B000002806D4544808494862022001F03AFA3F
:1021C000B1E7524A39004E4800F074FEABE7000018
:1021D0009C090020440900206008002060080020BD
:1021E00020090020FFF70000AF080020282300008E
:1021F000701700004C090020BC08002010B500201A
:1022000001F018FA3E4800F029FEAC2149000022F6
:10221000414C200000F09AF800204049086001F08D
:10222000ADF9C0B2040201F0A9F904433C480480AE
:1022300000203849088000201C490870802034495B
:102240000870002037490870002037490870374867
:102250003749086035482749086003200449087059
:10226000FF203449087010BDA31500082409002080
:102270004409002070470000630B00085409002047
:102280002809002080B523480088082101432148FF
:10229000018020480078400702D4002027490870B8
:1022A000FFF762FE01BD000069160008BD080020AE
:1022B000EFFE00004D0B0008F8B5040015001E00ED
:1022C000EDB2352D02D30120C04310E0002905D026
:1022D000EDB22A001A4F380000F062F81948067073
:1022E0001948047014480570FFF7CCFF0020F2BDB8
:1022F0004709002050090020570900200D1F000841
:102300007C08002099090020991D0008F91E00088A
:1023100032090020B80800206008002020090020B1
:10232000FE08002039090020380900206050BF1C39
:102330003C09002045090020C8080020540900205D
:10234000C9080020C7080020C60800201206130A8A
:102350001A43130C1A4300BF094205D0830705D066
:102360000270401C491EF9D170470000130030B4C0
:1023700014001500103902D310393CC0FCD24907B3
:1023800000D30CC000D504C0890002D30280801C99
:10239000002900D5027030BC704700000022E5E73C
:1023A000124207D08B0706D00B78491C0370401CE3
:1023B000521EF7D87047830706D00B78491C03706C
:1023C000401C521EF9D1704770B4103A03D378C93B
:1023D000103A78C0FBD2530701D318C918C001D5F1
:1023E00008C908C0D20704D30B880380891C801C4D
:1023F000002A01D50B78037070BC704770B50024BB
:1024000021E02E4804216143405801062B48042254
:10241000624380580202FF2000041040084327490D
:10242000042262438958090AFF2212020A40024329
:102430002248042161434058000E10431F490422E2
:1024400062438850641C042CDBDB1C48C56831E007
:102450002000042100F0C6FE00291ED118482900E2
:10246000090CC9B2405C000615492A0AD2B2895C3F
:102470000904414012482A00D2B2805C0002484060
:102480000F492A0E8E5C4640201F042100F0AAFE50
:10249000042148430B490D58754008480421614305
:1024A0004018103800686840050004480421614362
:1024B0004550641C2C2CCBDB70BD0000480C002068
:1024C000F0AC0008E4B10008F7B586B0FFF796FF5E
:1024D0006846007E000709D500206149C860604950
:1024E00088605F4948605E490860A0E05C48006819
:1024F00000065B4909680902FF2212040A400243F0
:1025000057480068000AFF2109020140114354485E
:102510000068000E084352490860514840680006B0
:102520004F4949680902FF2212040A4002434C48FD
:102530004068000AFF2109020140114348484068F1
:10254000000E0843464948604548806800064449F3
:1025500089680902FF2212040A4002434048806849
:10256000000AFF210902014011433D488068000E26
:1025700008433B4988603A48C06800063849C96842
:102580000902FF2212040A4002433548C068000ACB
:10259000FF210902014011433148C068000E084381
:1025A0002F49C86043E0040E079D2C700400240CE2
:1025B000079D6C70040A079DAC70079CE070080EC4
:1025C000079C20710800000C079C6071080A079C9A
:1025D000A0710798C171100E079908721000000CC5
:1025E00007994872100A079988720798C272180EE4
:1025F000079908731800000C07994873180A07997F
:1026000088730798C3736846007E0A210140022937
:1026100007D007981030079068466946098C103932
:10262000018468466946097E08220A4302766846A4
:10263000008C40B2012800DA40E36C46247E640737
:1026400005D46C46247E0A262640022E0AD1044870
:10265000006803494968024A9268014BDB684DE013
:10266000340E00206C46247EA40700D4F5E26C46AC
:10267000248C112C00DBF0E200200300020001009A
:102680006C46248C102C01D1012500E002256C46FB
:102690006E46367E2D01354325762FE000262F022B
:1026A00035003D43A607B60F032E03D108001100E5
:1026B0001A002B00641C102C0CD26E46368CB442CF
:1026C00002D2079E365DEAE76E46368CB442E5D10B
:1026D0008026E4E76C46247EA4070FD50400EF486B
:1026E000006860400C00ED49496861401400EB4A05
:1026F000926862401C00E94BDB686340F14C039434
:10270000039C8034049404000398006860400C002B
:102710000399496861401400039A926862401C0062
:10272000039BDB686340039C6569039CA469029476
:10273000039CE4690194039C2469E94EB4460700B4
:10274000FFB2042677436646F6596E403500029F75
:102750000097E44EB446070AFFB204267743664664
:10276000F659009F7E400296019F0097DE4EB446C8
:1027700007003F0CFFB2042677436646F659009FD8
:102780007E400196D94E000E0427784330586040B1
:102790000400029FD24884460E00F6B2042046434D
:1027A0006046805978400290019FCE4884460E0AC8
:1027B000F6B2042046436046805978400190CA48EA
:1027C0000E00360CF6B204277E43805960400400A8
:1027D000C648090E04267143405868400500019818
:1027E000BF491600F6B204277E4389594140019142
:1027F000BC48110AC9B20426714340586040040025
:10280000B9481100090CC9B2042671434058684008
:1028100005000298B549120E0426724389584140BA
:102820000291AF481900C9B2042251434058604098
:102830000400AC48190AC9B2042251434058684008
:1028400005000298A8491A00120CD2B2042672435D
:102850008958414002910198A4491A0E04235A4311
:102860008958414001910398416A0398826A03980C
:10287000C36A0398006A9A4EB4462700FFB2042642
:1028800077436646F6594E403100964EB446270AC5
:10289000FFB2042677436646F65956403200924E00
:1028A000B44627003F0CFFB2042677436646F6592C
:1028B0005E4033008D4E240E04277C43345944403F
:1028C0002000874C2E00F6B204277E43A4595440C2
:1028D0002200844C2E0AF6B204277E43A4595C40A1
:1028E0002300814C2E00360CF6B204277E43A459F7
:1028F000444020007D4C2D0E0426754364594C4005
:102900002100774C029DEDB20426754364595C406A
:102910002300744C029D2D0AEDB2042675436459C0
:1029200044402000704C029D2D0CEDB204267543EE
:1029300064594C4021006D4C029D2D0E04267543B8
:10294000645954402200664C019DEDB20426754343
:10295000645944402000634C019D2D0AEDB20426C9
:10296000754364594C4021005F4C019D2D0CEDB224
:10297000042675436459544022005C4C019D2D0E81
:102980000426754364595C402300039C203403945F
:10299000039C049DAC4200D2C5E6039C6569039C80
:1029A000A4690294039CE4690194039C24694C4E3D
:1029B000B4460700FFB2042677436646F6596E40D8
:1029C0003500029F0097474EB446070AFFB204261F
:1029D00077436646F659009F7E400296019F009716
:1029E000414EB44607003F0CFFB2042677436646CB
:1029F000F659009F7E4001963C4E000E0427784316
:102A0000305860400400029F354884460E00F6B2FC
:102A1000042046436046805978400290019F314827
:102A200084460E0AF6B20420464360468059784038
:102A300001902D480E00360CF6B204277E438059D3
:102A4000604004002948090E04267143405868403C
:102A50000500019822491600F6B204277E438959E1
:102A6000414001911F48110AC9B2042671434058E0
:102A7000604004001C481100090CC9B204267143CF
:102A800040586840050002981849120E0426724307
:102A9000895841400291124802E000BF340E0020E4
:102AA0001900C9B2042251434058604004000D4847
:102AB000190AC9B2042251434058684005000298DF
:102AC000094901E0480C00201A00120CD2B2042679
:102AD00072438958414002910198044908E000BFBF
:102AE000A4A40008A4A00008A49C0008A4980008BE
:102AF0001A0E04235A438958414001910398006AF1
:102B00007049220E895C0906414008006D492A007F
:102B1000120CD2B2895C0904414008006949029A4A
:102B2000120AD2B2895C09024140080002006548DD
:102B30000199C9B2405C50400399496A614A2B0E21
:102B4000D25C12064A4011005E4A029B1B0CDBB2AB
:102B5000D25C12044A4011005A4A019B1B0ADBB2A4
:102B6000D25C12024A4011000B0056492200D2B238
:102B7000895C5940039A926A524B029E360E9B5DC5
:102B80001B0653401A004F4B019E360CF6B29B5D5C
:102B90001B0453401A004B4B260AF6B29B5D1B02E6
:102BA00053401A00474B2E00F6B29B5D53401A006B
:102BB000039BDB6A434E019F3F0EF65D36065E4087
:102BC0003300404E240CE4B2345D24045C40230006
:102BD0003C4C2D0AEDB2645D24025C4023001D00D4
:102BE000384B029CE4B21B5D6B406C46247EA4070C
:102BF0003ED56C46247E2411A507AD0F002D2ED0A6
:102C0000C40F4600C80F30434E00D10F3143560069
:102C1000DA0F32435B00002C02D01C008723634094
:102C20006D1E002DECD1284C24684440264E3460A3
:102C3000254C64684C40244E7460234CA468544076
:102C4000214EB460204CE4685C401F4EF4606C463A
:102C50006E46367ECF273740277600242BE51A4C68
:102C6000206019484160184882601748C360CAE470
:102C70006C46247E640700D495E46C46248C112CA9
:102C800001DB102401E06C46248C00250EE0079E39
:102C9000775D060E7E40079F7E550002AE07B60F99
:102CA000032E02D1080011001A006D1CA542EED3BC
:102CB0000548C068401C0449C860A4E40248006894
:102CC00009B0F0BDF0AC0008340E002010B50400CF
:102CD00000F0E7FE0822B5492000FFF761FB00F095
:102CE000E1FE10BD38B5040000F0DBFE0822AF4D58
:102CF00021002800FFF754FB00F0D4FE31BD10B5D1
:102D0000040000F0CEFE0822B3492000FFF748FB84
:102D100000F0C8FE10BD38B5040000F0C2FE082265
:102D2000AD4D21002800FFF73BFB00F0BBFE31BD9D
:102D300010B5040000F0B5FE1022AE492000FFF7E8
:102D40002FFB00F0AFFE10BD38B5040000F0A9FE67
:102D50001022A84D21002800FFF722FB00F0A2FE60
:102D600031BD80B5FEF7E1FE01BD10B5C0B2062849
:102D700004D00A2809D00E2827D029E000230122F8
:102D800096490120FFF798FA22E09B480078002836
:102D90000FD099480278994899490978401801005C
:102DA000F831984C2000FFF7FBFA934800789649D9
:102DB0000870964800783C21084202D10220B849A8
:102DC000087000209249087002E00020B4490870A1
:102DD00010BD10B5082100228E4C2000FFF7B6FA76
:102DE000FFF748FA8C49BA4800F04FF810BD10B50B
:102DF000040000F034FF201A012801DA002005E069
:102E00000114002901D0BA4800E080B210BD10B50D
:102E100004002000FFF7EBFF0028FAD110BD80B5B9
:102E20000021FFF7E4FF010089B2052901DA012042
:102E300000E0002002BD80B500F011FF02BD00B52A
:102E400000E000680268002A06D002688A42F8D1D1
:102E500009680160012000E0002000BD10B50400F9
:102E600000F01FFE21006B48FFF7E9FF002805D1A5
:102E70002100B548FFF7E3FF002801D0012000E062
:102E80000020C0B200F00EFE10BD38B505000C00E9
:102E900000F007FE2800FFF7E1FFAC60002028608B
:102EA000A94800E0006801680029FBD1056000F036
:102EB000F9FD31BD70B504000D00160000F0F1FD04
:102EC0002000FFF7CBFF6560A6600020206051481E
:102ED00000E000680168002906D001684968491BC4
:102EE0000129F6DB01682160046000F0DBFD70BDA4
:102EF00010B5002400F0D5FD46484068002805D0F4
:102F0000444844682068434948600FE041480068ED
:102F100000280BD03F4800684068FFF780FF00287A
:102F200004D03C48046820683A4908608C4800781E
:102F3000002817D136480078002813D000F0B1FDE2
:102F400088480078002802D1012086490870864808
:102F500003782F480278854982480078FFF7ACF95A
:102F600000F0A0FD00F09EFD002C02D02000A16822
:102F7000884710BD10B5FFF741F97D48007800285B
:102F80000DD1082209497B4C2000FFF709FA1022D5
:102F90001849794C2000FFF703FA00F056FC00F0C6
:102FA00079FC764800F07FFD10BD0000280000206D
:102FB00080B500F076FD3A480078022807D17048C5
:102FC0000078002803D100F06DFD012002E000F040
:102FD00069FD002002BD00003000002058090020DB
:102FE00000B568480078002801D0012000E00020EA
:102FF000C0B200BD38000020570900206008002042
:1030000056090020B80A0020E00E0020B808002071
:10301000E10E0020B80E0020632D0008F8B5040072
:103020000F0015001E0000F03CFDEDB2352D02DB57
:103030000120C0431BE052480078002804D000F073
:1030400031FD0220C04312E04D4805704548047030
:1030500045480670EDB22A003900444C2000FFF7C5
:103060009FF901204749087000F01CFD0020F2BDC7
:1030700038B50400002500F014FD4348007800280E
:103080000AD04148027841492000FFF789F93E48BB
:10309000057800203C49087000F004FD280032BD8E
:1030A000DB0E002038B505000C00FFF799FF002863
:1030B00002D00020C0430AE0354885623448C4622B
:1030C0002B4805672A48446700F0BFFB002032BD4B
:1030D0008C0E002010B5040000F0E3FC2D480470B5
:1030E00000F0E0FC2C48047000F0AFFB002010BDA5
:1030F000FFFF000010B5040000F0D3FC0520001B0A
:10310000F9382649087000F0CDFC2448007824499D
:10311000087000F09AFB002010BD80B5214A1060B5
:10312000214A1170214A1170114A9066204801709D
:1031300000F08BFB002002BD1A4A126802601B4897
:103140000078087070470000BC0E002000B51948D8
:103150000078400602D50220C04300E0002000BDF8
:10316000C8080020E30E0020E20E0020C90800205D
:10317000F80C0020FC0C0020040D00208813000037
:10318000E10E0020DB0E0020E00E0020B80A002037
:103190006008002090080020670D0020BC08002077
:1031A0005C0D00203C09002039090020380900206E
:1031B000640D002055090020F446002804D449423B
:1031C00000F013F8404260474042002905D45FD028
:1031D00000F00BF8404249426047494200F005F8D0
:1031E0004942604703460B43E6D40022030A8B4260
:1031F0000BD203098B4219D243088B422ED2411ABB
:1032000000D20146524110467047FF2209023FD0CA
:1032100012068B4205D3121209028B4201D31212FD
:10322000090203098B4219D300E0090AC3098B4242
:1032300001D3CB01C01A524183098B4201D38B01C8
:10324000C01A524143098B4201D34B01C01A52416B
:1032500003098B4201D30B01C01A5241C3088B42B0
:1032600001D3CB00C01A524183088B4201D38B009B
:10327000C01A524143088B4201D34B00C01A52413D
:10328000884200D3401A5241CFD2014610467047BF
:1032900008B500F01FFD08BD30B4434351435D182D
:1032A000010C0C00130C5C432D1980B2434392B205
:1032B00051430024C918644124040B04090C091962
:1032C0005043C018694130BC704730B4DC0F03D0A4
:1032D0005B42524200D25B1E0D106C4013D0F4468C
:1032E000002502D349424042A94100F00DF8E4070D
:1032F00003D35B425242AB41244202D54942404291
:10330000A94130BC604730BC124224D0994228D930
:1033100070B500251B4202D00C00002109E00024FA
:10332000012649186441944200D3A41A7641F8D387
:103330003100012601E0764109D2001864416D4157
:10334000A41A9D41F7D2A4185D41B619F5D33000F7
:1033500022002B0070BD1B42D8D108B500F0BCFC88
:1033600008BD01D19042D3D202000B000021002001
:103370007047FEE738B505000C0000F0A1FBE4B291
:10338000002C01D0C2480470EDB2012D03D1A84930
:10339000C04800F07FFB2800C0B200F003F931BD47
:1033A0000EB403B07047704710B584B00120BA491D
:1033B00008700020B949087014210022B84C200080
:1033C000FEF7C4FF0120B6490870B648007EB44934
:1033D0004870B448C068B2494860B248808AFCF777
:1033E00069FE801DAE4908720120AD494872AD48A2
:1033F000808AFCF762FEAA498872AA48808AFCF794
:103400006DFE002801D1012000E00020A449C8720F
:10341000A448808AFCF756FEA14908730020A04901
:10342000487308209E49C87334209D49887300F072
:1034300042FB9D4800680190994840780090984868
:10344000837A9748027A964841689848FFF7A8FF20
:103450008F480078029096480190914984B0684660
:103460001422FEF7B1FF0FBC00F034FA1FBD80B587
:103470008C48808AFCF71EFE002802D1FFF793FFDC
:1034800001E0FFF791FF01BD3EB504000120824934
:10349000087001208149087014210022804D280005
:1034A000FEF754FF01207E4908707E48C0687C49C1
:1034B00048607C48808AFCF7FDFD801D78490872D1
:1034C0000120774948727748808AFCF7F6FD7449F5
:1034D00088727448808AFCF701FE002801D101201F
:1034E00000E000206E49C8726E48808AFCF7EAFD51
:1034F0006B49087301206A49487308206849C873FA
:103500003420674988736B486549486007206449DF
:103510000872E4B2012C03D101206149087406E06D
:1035200000205F4908745F48807D5D49887400F021
:10353000C2FA5C488068FFF76AFC402002905C4851
:103540000190574984B068461422FEF73DFF0FBC36
:1035500000F02AFA37BD704710B504005148808A40
:10356000FCF7A8FD002804D12000C0B2FFF7F3FF4C
:1035700003E02000C0B2FFF787FF10BD80B54E48C2
:103580000178C9B2102905D110224B490020FEF75D
:103590009BFF00214848C9B2405C491C464A117053
:1035A000C0B202BD38B50400FFF745FC05003A483B
:1035B0000078012826D1E4B2022C07D139484560B1
:1035C0003848416A3D48FFF760FC31BDE4B2012C48
:1035D00011D13448808AFCF770FD002808D13148A9
:1035E000808AFCF767FD022148433549085A2D1AA5
:1035F0002C488560E4E7E4B2002CE1D100202449A6
:103600000870DDE7E4B2022C02D126484560D7E716
:10361000E4B2012C02D123488560D1E7E4B2002C4A
:1036200003D100201A490870CAE7FEE70000000035
:103630007208002010B5040000F033FAE4B2002C48
:1036400005D0022C09D005D3032C0AD00CE000F0E1
:1036500020FA09E0FFF70BFF06E00020FFF77CFFF0
:1036600002E00120FFF778FF00F01CFA10BD80B5E2
:1036700000F017FA13480078002801D1022000E07A
:103680000020C0B2FFF78EFF00F00CFA01BD000071
:103690005709002070080020DC0E0020DD0E0020FD
:1036A000200E002060080020280900200CB200082D
:1036B000580900206035081C640E00207C0800209A
:1036C00078B30008DD0E0020F8B506000C001700E6
:1036D000002507E0042068432158A800301800F0B6
:1036E0002DFB6D1CBD42F5D3F1BD80B5FFF742FC4B
:1036F000FFF76FFB01BD80B5FFF76BFB00F0ADFB83
:1037000001BD80B500F0BAFB01BD80B5FFF7EDFF4C
:1037100000F0B4FB01BD80B5FFF7F1FA002002BD57
:1037200010B5040000F0DAFA022221006648FFF723
:10373000CBFF2000FFF7EFFA002010BD38B50400E2
:103740002000FFF701FB1022604D21002800FEF74A
:1037500027FE00F07AF8002032BD80B5FFF7E8FAC6
:10376000002002BD38B504002000FFF7BBFA082294
:10377000574D21002800FEF713FE00F066F80020E8
:1037800032BD80B5FFF7A2FA002002BD80B5FFF779
:1037900089FC02BD80B5C0B2FFF79CFC02BD80B5BC
:1037A000C0B2FFF7A7FC02BD80B5C9B2FFF7B5FCF8
:1037B00002BD80B5FFF7C0FC01BDF8B504000F00E5
:1037C00015001E00FFF70CFC002802D10020C043AA
:1037D00008E03300DBB22A00D2B239002000C0B2C8
:1037E000FFF71CFCF2BD80B5FFF7FAFB002802D101
:1037F0000020C04308E0FFF7DBFB002802D10120D6
:10380000C04301E0FFF7A2FC02BD38B505000C0083
:10381000FFF7E6FB002802D10020C04304E02800A7
:10382000FFF726FC2070207832BD80B5FFF7D8FB6B
:10383000002802D10020C04306E0FFF7B9FB0028B2
:1038400001D1002000E0012002BD80B500F046FA61
:10385000184800F04FFAAA21164800F06FFA01202C
:1038600015490870252214491448FFF72DFF01BDA2
:1038700010B500F033FA0F480068AA2803D00020E2
:103880000D49087005E094220C490B4C2000FEF70E
:1038900087FD10BD80B50C4803C809A20CCA994227
:1038A00001D1904204D000F019FA0748FFF733FA2B
:1038B00001BD000000F80008F80C002004F8000822
:1038C000FFFFFFFFFFFFFFFF00FC0008040D0020CB
:1038D000FC0C00200FB410B500207C49087002A831
:1038E00040787B4988760398794908617948784916
:1038F000C8607748406AF021884302A9097A090123
:10390000F0220A400243724842627148406A72499A
:10391000014002A8407A40038022920110400843EF
:103920006B4948626A48406A6C49014002A8007BC2
:10393000401C0002E022D20002400A436448426276
:103940006348406A6649014002A8407B0003802228
:103950005201104008435E4948625D480068614971
:10396000014002A8C07A000580225203104008439B
:103970005749086002A8807B55490872079C544843
:10398000C46200F0E2FB0A21002002F03BFA089A30
:103990002100002002F03EF85349002002F08CF88C
:1039A000019810BC05B000470FB480B5002047490E
:1039B000087003984649086146484549C86044482C
:1039C000406AF021884302A9097A0901F0220A40DD
:1039D00002433F4842623E48406A3F49014002A8D4
:1039E000407A4003802292011040084338494862DF
:1039F0003748406A3949014002A8007B401C000258
:103A0000E022D20002400A43314842623048406A14
:103A10003649014002A8407BC002802212011040BA
:103A200008432B4948622A4800682E49014002A8F1
:103A3000C07A0005802252031040084324490860E0
:103A400002A8807B2249087202A8807C2049487223
:103A50001F48406A2649014002A8007C800380225A
:103A6000D201104008431A49486207981849C862B1
:103A700008982049087000F068FB0A21002002F035
:103A8000C1F901221849002002F0E2F8019806B0BD
:103A9000004770470E4AD28B02800D48C07E0870E6
:103AA00070477047704780B50023020012491348E1
:103AB00000F0D8F801BD80B5104800F001F901BD53
:103AC00080B50E4800F001F901BD0000AC0D0020EA
:103AD0008C0D002048E80100FFDFFFFFFFF8FFFF2B
:103AE000FFEFFFFFFFFFEFFFB80B0000FFF7FFFF47
:103AF000FFBFFFFFB40D00206F360008540E0020FA
:103B0000694A127802700022826041606749664A01
:103B1000127804235A43885063490978491C624A41
:103B200011700078704710B520E0604804216143AF
:103B30004058806800280CD15C48042161434058FB
:103B40004068002805D05948042161434058406826
:103B50008047641C544800788442E6DB01218020C1
:103B6000400502F0CBFC012002F03BFD0024F1E710
:103B70004E4AC0B204234343D258926851184B4A6C
:103B8000C0B20423584310588160704710B54848AC
:103B90000068002804D046480068401E4449086078
:103BA000002012E0414904224243895889680029D3
:103BB0000AD03E490422424389588968491E3B4A3B
:103BC00004234343D2589160401C37490978884206
:103BD000E8DB00240BE0374804216143405840688B
:103BE000401C34490422624389584860641C3248AE
:103BF000007884422DDA2F480421614340584078F0
:103C00000028F3D02B4804216143405840682949DB
:103C100004226243895889688842DCD325480421FC
:103C200061434058C068804722480421614340589E
:103C30000078002806D100201E49042262438958DA
:103C40004870D3E700201B4904226243895848602A
:103C5000CCE71A480068401C1849086010BD174896
:103C60000068704770B5002400E0641C124D2D7888
:103C7000AC4206DA0F4D04266643AD59A842F4D192
:103C80000FE00024446003708260C16009490A4A61
:103C9000127804235A43885007480078401C06498C
:103CA000087070BD00000000DE0E0020BC0D00207A
:103CB000D00E0020E40D0020DF0E0020CC0E0020EE
:103CC00001214170002141607047002141700021B5
:103CD000416070477047FEE77047FEE700B5324825
:103CE0000068000605D5314831490860314830493F
:103CF000086000BD10B504000420B020000300F0EF
:103D000077F8C0B2042817D1274800680221014380
:103D10002548016028480460234800684021014389
:103D200021480160B020000300F062F81E490968D4
:103D3000022291431C4A1160C0B210BD38B5050083
:103D40000C00042000200090B020000300F050F888
:103D5000C0B2042825D1144800680121014312484B
:103D6000016020002880B020000300F041F8C0B2BC
:103D7000042810D1AD1C00952000000C009908808B
:103D8000B020000300F034F807490968012291438C
:103D9000054A116005E00449096801229143024A7D
:103DA0001160C0B232BD00001020024023016745FF
:103DB00004200240AB89EFCD1420024000B504205E
:103DC0000A480068C00701D501200CE007480068D8
:103DD000C00601D5022006E004480068400701D56E
:103DE000032000E00420C0B200BD00000C2002400F
:103DF00010B504000420FFF7E1FF02E0FFF7DEFF4B
:103E0000641EC0B2012801D1002CF7D1002C00D1D2
:103E10000520C0B210BDFEE780B5FFF729FDFFF712
:103E200064FC5E2002F08CFB00280FD002F0ADFB9A
:103E300027480078012809D125484078002805D175
:103E40002348C078002801D0FFF755FC21492248BB
:103E5000FFF756FE2149087001BD80B5FFF721FE2E
:103E6000002019490870002018490870FFF71AFE51
:103E700001201749C870FFF7E8FC01BD80B5FFF7C6
:103E800010FE00201649087001200F490870FFF746
:103E900009FE00200E49C870FFF7D7FC01BD80B5B0
:103EA000FFF7FFFD0020084908700120074908704E
:103EB000FFF7F8FD01BD80B5FFF7F3FD01200249D2
:103EC0000870FFF7EFFD01BD5C000020DA0E002056
:103ED000F80C0020F12E0008800E0020D90E0020E2
:103EE000DB0E002000B5C0B200282FD100219B4A74
:103EF000C0B207234343D1540021984AC0B20723DC
:103F00004343D21851700121944AC0B2072343435E
:103F1000D21891700221914AC0B207234343D218AC
:103F2000D17003218D4AC0B207234343D2181171C7
:103F300004218A4AC0B207234343D2185171052194
:103F4000864AC0B2072358431018817100BD30B5AE
:103F500085B00400E4B2002C00D086E02000C0B29E
:103F6000FFF7C0FF7E487F490860002524E001215B
:103F70007D48EDB204226A43805802F09FFA7B48E4
:103F8000EDB202216943405A03907948EDB2405D99
:103F900003A90871032003A948717648EDB2405D7A
:103FA00003A9887103A96F480068EDB204226A432F
:103FB000805802F02DFB6D1CEDB2062DD7DB0121E0
:103FC000012002F08BFA01253CE06B48EDB208219C
:103FD00069434018C01E01786748EDB208226A4361
:103FE0008018001F007802F097FB6348EDB20821AB
:103FF00069434018083800680190002001A9087141
:10400000082001A94871012001A9887101A802F0C6
:10401000AFFB5948EDB2082169434018801E007873
:10402000694608705448EDB2082169434018401EA3
:10403000007869464870012069468870684602F039
:10404000E7FB6D1EEDB2002DBFD14448E4B207215D
:104050006143405C02F016FC01214048E4B20722B3
:1040600054430019407800F002F805B030BD10B597
:10407000C0B206281EDA3B4A1268C0B2042343438A
:10408000D258928AC9B2002905D03849C0B2022359
:104090004343C95A00E00021344BC0B202244443D8
:1040A0001B5B9A4311432F4A1268C0B20423584342
:1040B0001058818210BD00B5C0B206280FDA294918
:1040C0000968C0B2042242438958098A274AC0B20B
:1040D00002235843105A014201D0012000E0002081
:1040E00000BD00B5002100E0491CC9B2002906D17D
:1040F0000200224BC9B25B5CD2B29A42F4D1204892
:10410000406A20490140802212028018F022D20227
:1041100002400A431A48426200BD00B51848406A8E
:10412000C00B0007000F01280DDB1548406A154938
:104130000140154A8018F022D20202400A4310487A
:104140004262012000E0002000BD0D48406A0D4998
:1041500001400B484162704700000000B00E002093
:104160000C000020C80E002020B3000848B400084E
:1041700028B5000830B5000838B5000850B500086B
:104180008C0D0020FF7FF8FF0080FFFF00B504E0EA
:10419000491E89B20029FBD1401E80B2002801D0FF
:1041A0000E49F6E700BD70B505000C0000E0641E86
:1041B000002C11D00A4E00E0761EB6B2002EF6D0CA
:1041C0000848EDB20721694340188079FFF773FF73
:1041D0000028F1D0002000E0012070BD331F000056
:1041E00012030000B00E002010B582B004000020C1
:1041F000694608702000C0B2FFF7A9FE0121200027
:10420000C0B200F0C1F90020DB49E4B230226243C1
:104210008850D948E4B23021614340581E21884378
:1042200002210143D448E4B2302262438150D24893
:10423000E4B2302161434058D04901408020C000A1
:104240000843CD49E4B23022624388500020CA4975
:10425000E4B230226243891820228854C648E4B26E
:10426000302161434058802149030143C248E4B2F0
:10427000302262438150C048E4B23021614340584B
:10428000BF490140BC48E4B2302262438150BA4881
:10429000E4B23021614340588021C9030143B6484C
:1042A000E4B2302262438150B348E4B2302161432A
:1042B0004058B4490140802040040843AE49E4B26C
:1042C000302262438850AC48E4B230216143405808
:1042D0008021C9040143A848E4B2302262438150DE
:1042E0008020A549E4B230226243891821228854F3
:1042F000A148E4B2302161434058D24901409E4870
:10430000E4B23022624381509B48E4B230216143E1
:104310004058CD4901409848E4B230226243815070
:1043200000209549E4B23022624389184860C748AA
:104330009149E4B230226243891808618E48E4B2A0
:10434000302161434018047600208B49E4B23022CA
:1043500062438918487611208749E4B230226243CB
:104360008918887600208449E4B230226243891893
:10437000C87600208049E4B2302262438918C8839D
:1043800000207D49E4B23022624389180877D5487D
:104390007949E4B2302262438918C8607648E4B2B1
:1043A000302161434058D04901408020C002084379
:1043B0007149E4B230226243885000206E49E4B271
:1043C00030226243891848626B48E4B2302161436D
:1043D0004018406AF0218843702101436648E4B2E6
:1043E00030226243801841626348E4B23021614365
:1043F0004018406AD64901408020400008435E4989
:10440000E4B230226243891848625B48E4B230214A
:1044100061434018406A0F218843022101435648F6
:10442000E4B230226243801841622000C0B200F042
:1044300080FA2000C0B200F035FA2000C0B200F0CF
:1044400079FB2000C0B200F006FA4B48E4B23021FC
:10445000614340182021405C00281ED1012120002A
:10446000C0B200F0CBFA2000C0B200F031FC200056
:10447000C0B200F0AAFC2000C0B200F0CEFC2000C8
:10448000C0B200F0F8FCD5492000C0B200F052FDE7
:104490002000C0B200F078FD1CE001212000C0B275
:1044A00000F09CFD2000C0B200F019FE2000C0B258
:1044B00000F072FE2000C0B200F09CFE2000C0B2EE
:1044C00000F0DCFE2000C0B200F024FF2000C0B2EB
:1044D00000F050FF2000C0B200F06CFF2000C0B21E
:1044E00000F085FF6A460B212000C0B200F0B0F852
:1044F00068460078DF21014068460170684602780E
:104500000B212000C0B200F0F1F81B48E4B23021CA
:10451000614340182021405C002806D123220C2151
:104520002000C0B200F0E2F805E020220C212000BB
:10453000C0B200F0DBF81048E4B23021614340180B
:104540002021405C002805D100212000C0B200F0ED
:1045500055FA04E000212000C0B200F03FFD0648FB
:10456000E4B2302161434058012101430248E4B2E2
:1045700030225443015113BD8C0D0020FF81FFFFF9
:10458000FFFFDFFFFFFF7FFE10B50400E4B2002C49
:1045900002D00020C04323E0012922D10121C048DC
:1045A000E4B20722624380184078FFF760FD0021E3
:1045B000BB48E4B20722624380188078FFF757FDBA
:1045C0000120FFF7E3FD0121B548E4B2072254437F
:1045D00000198078FFF74BFD0620FFF7D7FD01207B
:1045E00010BD022912D10121AD48E4B20722624375
:1045F00080180079FFF73BFD0121A948E4B20722AA
:1046000054430019C078FFF732FDE8E7032912D1BF
:104610000021A348E4B20722624380180079FFF723
:1046200026FD01219E48E4B2072254430019C078B8
:10463000FFF71DFDD3E70429D1D00529CFD00120F4
:10464000C043CDE7FFFFFFF71FFEFFFF80A1031C64
:1046500070B584B004001500E4B2002C02D0002034
:10466000C0433DE068468172002002A9891C487061
:10467000002069460872002002A94870002188487D
:10468000E4B20722624380184078FFF7F0FC012073
:1046900001900220009002AB022202A9891C8048EE
:1046A000E4B207266643805D02F062F901280DDB63
:1046B00002A84078287001217948E4B207225443C7
:1046C00000194078FFF7D3FC012009E0012174486C
:1046D000E4B20722544300194078FFF7C8FC0020D9
:1046E00004B070BD48E80100FF7FF0FF3EB5040054
:1046F000E4B2022C02DB0020C04328E08020084303
:104700006946087202A8427000216548E4B2072297
:10471000624380184078FFF7AAFC01200190002036
:1047200000900023022202A95D48E4B207256543F8
:10473000405D02F01DF9050001215948E4B207224D
:10474000544300194078FFF792FC280040B23EBD68
:10475000FFF8FFFFF0B583B004000E001700E4B2CD
:10476000022C02DB0020C04336E0DBB2812B01DBF0
:10477000802501E0DBB21D0000214948E4B2072298
:10478000624380184078FFF772FC3100C9B2444898
:10479000E4B207226243805C02F0C9F80120019074
:1047A00000953B002A009448E4B230216143401850
:1047B000C16A3B48E4B207256543405D02F0D8F882
:1047C000050001213648E4B207225443001940781D
:1047D000FFF74DFC280040B2FEBD0000FF030000C3
:1047E000F0B583B004000D0017001E00E4B2022CE7
:1047F00002DB0020C0432DE000212948E4B207225B
:10480000624380184078FFF732FC80212943C9B207
:104810002348E4B207226243805C02F088F801205A
:104820000190002000900023F6B2320039001C48AD
:10483000E4B207256543405D02F09AF805000121C6
:104840001748E4B20722544300194078FFF70FFCE1
:10485000280040B2FEBD10B582B00400E4B2022CC4
:104860001DDA6548E4B2302161434018006902F066
:10487000AFF80022AE4B02F0BBF802F02DF90100B8
:10488000090C6A461170010A6A46517069468870BF
:1048900003236A4606212000C0B2FFF7A1FF13BD23
:1048A000B00E002010B582B00400002069460870E8
:1048B000E4B2002C02D00020C04339E06A46422115
:1048C0002000C0B2FFF7C4FE68460078122801D06D
:1048D00000202DE04848E4B23021614340182421F3
:1048E000405C0007000F002807D1C4484249E4B2E9
:1048F000302254430919486019E03F48E4B230219E
:10490000614340182421405C0007000F012807D1B3
:10491000BB483949E4B2302254430919486006E0E3
:10492000B8483549E4B2302254430919486001209F
:1049300016BD38B50400002069464870002069465D
:1049400008700025E4B2022C54DA00AA521C092196
:104950002000C0B2FFF77CFE002209212000C0B277
:10496000FFF7C4FE2448E4B23021614340180569D2
:104970002148E4B23021614340180069D24988429D
:104980000AD3D2481C49E4B2302262438918086134
:104990002000C0B2FFF75FFF6A463B212000C0B293
:1049A000FFF756FE6846007840220243D2B23B2110
:1049B0002000C0B2FFF79AFE6A463B212000C0B239
:1049C000FFF746FE05E06A463B212000C0B2FFF734
:1049D0003FFE684600788006F5D468464278092193
:1049E0002000C0B2FFF782FE0348E4B230214C43FE
:1049F0000019056131BD00008C0D002038B50400A0
:104A00000D00002069460870E4B2022C00DB8EE045
:104A10006A4601212000C0B2FFF71AFE68460078FE
:104A2000F821014029436846017068460278012157
:104A30002000C0B2FFF75AFEC548E4B230216143FE
:104A40004018406AC3490140EDB2E804F022D203A5
:104A500002400A43BE48E4B230216143401842623A
:104A600003212000C0B2FFF78FFDEDB2002D0CD165
:104A7000B748E4B23021614340581E218843B4490D
:104A8000E4B230225443085151E0EDB2012D0ED171
:104A9000AF48E4B23021614340581E2188430221CF
:104AA0000143AB48E4B23022544301513FE0EDB240
:104AB000022D02D0EDB2032D13D102212000C0B28D
:104AC000FFF762FDA248E4B23021614340581E2145
:104AD0008843062101439E48E4B2302254430151E9
:104AE00025E0EDB2042D05D0EDB2052D02D0EDB2DA
:104AF000062D0ED19648E4B23021614340581E2164
:104B00008843082101439248E4B2302254430151C2
:104B10000DE08F48E4B23021614340581E218843A4
:104B20000A2101438A48E4B230225443015131BD85
:104B300080844E4010B582B00400002069460870A1
:104B4000E4B2022C02DB0020C04321E08048E4B242
:104B50003021614340182021405C002819D10021F8
:104B60002000C0B2FFF74AFF6A4601212000C0B210
:104B7000FFF76EFD684600788021014368460170AA
:104B80006846027801212000C0B2FFF7AFFD012086
:104B900016BD6F48E4B23021614340182021405CCB
:104BA000012808D06A48E4B230216143401820212E
:104BB000405C02281ED100212000C0B200F00EFA95
:104BC0006A4601212000C0B2FFF742FD6846007826
:104BD0004006400E69460870684600789F210140F3
:104BE000684601706846027801212000C0B2FFF7D4
:104BF0007DFDCCE70120C043CAE7000010B10008EA
:104C000048B1000880B1000838B505000C0000204C
:104C100069460870EDB2022D13DA6A463121280088
:104C2000C0B2FFF715FD68460078F82101400C433B
:104C3000684604706846027831212800C0B2FFF748
:104C400055FD31BD10B582B00400002069460870E2
:104C5000E4B2022C36DA6A4626212000C0B2FFF701
:104C6000F7FC3B48E4B2302161434018406A000938
:104C70000007000F0B2818DB3548E4B230216143F0
:104C80004018406A01008904C90F00290DD0684608
:104C900000780821014368460170684602782621A1
:104CA0002000C0B2FFF722FD0CE068460078F72133
:104CB0000140684601706846027826212000C0B293
:104CC000FFF714FD13BD00000127B92900A1BC3373
:104CD00010B582B00400002069460870E4B2022CCE
:104CE00035DA1B48E4B2302161434018406A0009BC
:104CF0000007000F062805D105212000C0B2FFF7EC
:104D000083FF04E003212000C0B2FFF77DFF6A4665
:104D10001E212000C0B2FFF79BFC68460078000708
:104D2000000F0B49E4B2302262438918496A09092D
:104D30000901014368460170684602781E2120007F
:104D4000C0B2FFF7D3FC2000C0B2FFF77BFF13BD5A
:104D50008C0D0020FFFF87FF10B582B004000020FB
:104D600069460870E4B2022C2EDA6A46332120002C
:104D7000C0B2FFF76DFC9848E4B23021614340189F
:104D8000406A01000905C90F002905D0684600786E
:104D900040210143684601708F48E4B230216143ED
:104DA0004018406A0100C904C90F002905D06846AF
:104DB0000078FE2101406846017068460278332180
:104DC0002000C0B2FFF792FC13BD10B582B0040002
:104DD000002069460870E4B2022C1DDA6A461D21E3
:104DE0002000C0B2FFF734FC68460178F12008408B
:104DF0007949E4B2302262438918496A090A4907AD
:104E0000490F4900014368460170684602781D2138
:104E10002000C0B2FFF76AFC13BD10B582B00400D9
:104E2000002069460870E4B2022C23DA6A461E218B
:104E30002000C0B2FFF70CFCD648E4B23021614339
:104E400040580100C902C90F002906D06846007801
:104E5000042101436846017005E068460078FB21A3
:104E6000014068460170684602781E212000C0B2E9
:104E7000FFF73CFC13BD10B582B00400002069466A
:104E80000870E4B2022C1DDA6A461D212000C0B26F
:104E9000FFF7DEFB5048E4B2302161434018C068A0
:104EA000D14988420FD1684600780007000F702171
:104EB000014368460170684602781D212000C0B297
:104EC000FFF714FC13BD4448E4B23021614340189D
:104ED000C068C649884208D1684600780007000FBC
:104EE0006021014368460170E5E73B48E4B23021A8
:104EF00061434018C068BE49884208D168460078BE
:104F00000007000F5021014368460170D3E7324883
:104F1000E4B2302161434018C068D749884208D1C3
:104F2000684600780007000F402101436846017081
:104F3000C1E7C7E738B505000C00002069460870D6
:104F40000022EDB2022D1EDA6A461E212800C0B2F0
:104F5000FFF77EFB68460078FC210140A4B22012D6
:104F60008007800F084369460870684602781E2152
:104F70002800C0B2FFF7BAFB2200D2B21F212800DE
:104F8000C0B2FFF7B3FB31BD10B50400E4B2022C90
:104F900012DA002220212000C0B2FFF7A7FB7D48D3
:104FA000E4B2302161434058C00BC206D20E212129
:104FB0002000C0B2FFF79AFB10BD80B5C0B2022836
:104FC00009DA7449C0B23022424389180A7A392179
:104FD000C0B2FFF78BFB01BD8C0D002038B504007B
:104FE0000D00002069460870E4B2022C76DA6A46A9
:104FF00001212000C0B2FFF72BFB68460078F821A2
:10500000014029436846017068460278012120006A
:10501000C0B2FFF76BFB5F48E4B230216143401838
:10502000406ABB490140EDB2E804F022D2030240DD
:105030000A435848E4B230216143401842620321D8
:105040002000C0B2FFF7A0FAEDB2002D0CD15148FC
:10505000E4B23021614340581E2188434D49E4B2F7
:1050600030225443085139E0EDB2012D0ED14948A8
:10507000E4B23021614340581E218843022101439C
:105080004448E4B230225443015127E0EDB2022DEE
:1050900002D0EDB2032D13D102212000C0B2FFF7E0
:1050A00073FA3C48E4B23021614340581E218843E2
:1050B000062101433748E4B23022544301510DE048
:1050C0003448E4B23021614340581E21884308210E
:1050D00001433048E4B230225443015131BD10B590
:1050E0000400E4B2022C53DA20220A212000C0B2CC
:1050F000FFF7FCFA1E220D212000C0B2FFF7F6FADE
:10510000D2220E212000C0B2FFF7F0FA932227210D
:105110002000C0B2FFF7EAFA692228212000C0B2BD
:10512000FFF7E4FA812229212000C0B2FFF7DEFA5E
:105130007E222A212000C0B2FFF7D8FA96222B2126
:105140002000C0B2FFF7D2FA12221F212000C0B205
:10515000FFF7CCFA892235212000C0B2FFF7C6FA4A
:10516000D02230212000C0B2FFF7C0FA4022312106
:105170002000C0B2FFF7BAFA8B48E4B23021614395
:1051800040182121425C32212000C0B2FFF7AEFA64
:1051900010BD00008C0D002038B50500EDB2022DC9
:1051A00020DA8148EDB2302169434018406901F0AE
:1051B0000FFC02000B0000207C4901F019FC01F0FB
:1051C00079FC0400220092B2120AD2B20221280015
:1051D000C0B2FFF78BFA2200D2B203212800C0B27E
:1051E000FFF784FA31BD000048E8010024F4000014
:1051F000E4A2000038B50500EDB2022D02DB00206C
:10520000C04337E06848EDB2302169434018C068B8
:105210006549EDB230226A4389184969401A40084D
:1052200001F0D6FB0022624B01F0E2FB01F042FCF0
:1052300004000020694608706A4604212800C0B2B4
:10524000FFF706FA68460078C0210140220092B2BA
:10525000120AC02082430A43D2B204212800C0B2FD
:10526000FFF744FA2200D2B205212800C0B2FFF7AE
:105270003DFA012032BD0000127A000010B582B064
:105280000400002069460870E4B2022C23DA6A4662
:1052900030212000C0B2FFF7DBF94348E4B23021EF
:1052A000614340580100C902C90F002906D0684671
:1052B0000078102101436846017005E068460078D7
:1052C000EF210140684601706846027830212000D5
:1052D000C0B2FFF70BFA13BD00B50100002000E0DB
:1052E000401C80B2152810DAB24A80B2082343432A
:1052F000D2589142F4D3AF4A80B208234343D21824
:1053000092689142ECD2C0B200E0002000BD0000E3
:10531000FFFF87FF38B50500EDB2022D29DA2248DC
:10532000EDB2302169434018C0684008FA21890075
:105330004018FFF7D1FF0400E4B2002C19D0E4B20A
:10534000142C16DA9B48E4B2082161434018027914
:1053500012212800C0B2FFF7C9F99648E4B208212B
:105360004C430019027B13212800C0B2FFF7BEF99D
:10537000FFE731BD10B50400E4B2022C12DA0022BE
:1053800025212000C0B2FFF7B1F90748E4B230216F
:1053900061434058C00BC206D20E26212000C0B285
:1053A000FFF7A4F910BD00008C0D002080847E4121
:1053B00080844E4010B582B0040000206946087019
:1053C000E4B2022C12DA6A4609212000C0B2FFF7CB
:1053D0003FF96846007880210143684601706846BD
:1053E000027809212000C0B2FFF780F913BD38B55B
:1053F0000500EDB2022D00DBDBE0002069460870FD
:1054000000246A4609212800C0B2FFF721F9684646
:10541000007800060AD56848EDB23021694340188B
:105420001A2140560F2802DB872400E08424220042
:10543000D2B24D212800C0B2FFF758F96846007873
:10544000000674D5E4B2872C38D15B48EDB2302128
:10545000694340181A214056052807DA05205649A5
:10546000EDB230226A43891888760FE05248EDB2D7
:105470003021694340181A214056152806DB1420B4
:105480004D49EDB230226A43891888766846007823
:10549000702101436846017068460178F020084099
:1054A0004549EDB230226A4389181A228956491FAC
:1054B0000907090F01436846017073E03E48EDB2E9
:1054C0003021694340181A214056022807DA022089
:1054D0003949EDB230226A43891888760FE03648A0
:1054E000EDB23021694340181A214056122806DBDC
:1054F00011203149EDB230226A4389188876684616
:105500000078702101436846017068460178F020F8
:1055100008402949EDB230226A4389181A22895677
:10552000891E0907090F0143684601703AE02248C5
:10553000EDB23021694340181A2140560021C94379
:10554000884208DA0020C0431B49EDB230226A438A
:10555000891888760FE01848EDB230216943401869
:105560001A2140560F2806DB0E201349EDB23022D7
:105570006A43891888766846007870210143684636
:10558000017068460178F02008400B49EDB23022E6
:105590006A4389181A228956491C0907090F0143D1
:1055A000684601706846027809212800C0B2FFF7FA
:1055B0009DF831BDF0AD00088C0D0020D0B582B053
:1055C0000400E4B2022C00DB02E100206A46107005
:1055D000C9B2002930D06A461B212000C0B2FFF7B3
:1055E00037F8AA48E4B23021614340180069A8495D
:1055F000884210D26846007801F0EAF90022A54BF3
:1056000001F081FA01F056FAA049E4B23022544385
:105610000919C883DCE06846007801F0D9F9002256
:105620009D4B01F070FA01F045FA9849E4B230223E
:1056300054430919C883CBE06A4619212000C0B23F
:10564000FFF706F86846007800061BD56846007824
:10565000C143491C88108006800E8C49E4B2302278
:1056600062438918C8768948E4B230216143401802
:105670001B21405641428548E4B2302262438018E3
:10568000C17609E068460078C0B280087F49E4B27C
:10569000302262438918C8767C48E4B230216143E5
:1056A000401800697A49884249D27848E4B23021EA
:1056B000614340181B214056002826D577480CC866
:1056C00008380020764901F0F8FA0022754B01F005
:1056D0001AFA0022744B01F016FA06000F006B480C
:1056E000E4B23021614340181B21405601F066F9B5
:1056F00032003B0001F007FA01F0DCF96349E4B243
:10570000302254430919C88362E0002069460870BA
:105710006A461A212000C0B2FEF79AFF6846007858
:1057200001F056F9B94A0CCA01F0EDF901F0C2F9DD
:105730005649E4B2302254430919C88348E053481B
:10574000E4B23021614340181B214056002826D581
:1057500052480CC808380020514901F0AEFA002226
:10576000504B01F0D0F90022A94B01F0CCF9060012
:105770000F004648E4B23021614340181B214056D7
:1057800001F01CF932003B0001F0BDF901F092F983
:105790003E49E4B2302254430919C88318E000207E
:1057A000694608706A461A212000C0B2FEF750FF11
:1057B0006846007801F00CF9BE4A0CCA01F0A3F962
:1057C00001F078F93149E4B2302254430919C88311
:1057D000D3BD10B582B00400E4B2022C14DA00206C
:1057E000694608706A4611212000C0B2FEF730FFFA
:1057F00068460078C0B24008C0B241422348E4B2D3
:10580000302254430019C18313BD80B5C0B20228B1
:1058100005DA8A01D2B24021C0B2FEF767FF01BDAE
:1058200010B582B00400E4B2022C01DB00202BE0B2
:105830001648E4B2302161434018406A010049042F
:10584000C90F002901D000201EE000206946087021
:105850000E48E4B23021614340182021405C00280A
:1058600011D16A4611212000C0B2FEF7F1FE6A464E
:1058700012212000C0B2FEF7EBFE68460078000659
:1058800001D5012000E0002016BD00008C0D002095
:10589000008F4233006063C000C062C008B30008DC
:1058A0000000244000C065C00000104070B582B008
:1058B00004000E001500E4B2022C01DBFF20A4E07E
:1058C000002069460870B448E4B2302161434018B2
:1058D0002021405C002855D1684602780D21200027
:1058E000C0B2FEF703FF6A4613212000C0B2FEF7E4
:1058F000AFFE6846007800282CD000212000C0B2FE
:10590000FFF75CFE68460078EDB2854220D368461A
:105910000378320000212000C0B2FEF71BFF9E4832
:10592000E4B2302161434058C84901409A48E4B28A
:1059300030226243815000212000C0B2FFF73EFEBA
:1059400000212000C0B2FFF759F8684600785CE0FB
:10595000FE205AE001212000C0B2FFF72FFE0021F7
:105960002000C0B2FFF74AF88B48E4B2302161430F
:105970004058B64901408848E4B2302254430151AE
:10598000FE2042E06A4600212000C0B2FEF760FE21
:105990002000C0B2FFF71DFF68460078002822D023
:1059A00068460078EDB285421BD368460378320022
:1059B00000212000C0B2FEF7CDFE7748E4B23021CE
:1059C00061434058A14901407348E4B23022624328
:1059D000815000212000C0B2FFF700FB684600782C
:1059E00013E0FE2011E06C48E4B2302161434058DE
:1059F000964901406848E4B2302262438150002158
:105A00002000C0B2FFF7EAFAFE2076BDC0AF000862
:105A100000001840F8B504000F001600E4B2022C94
:105A200001DBFF2044E000255B48E4B23021614304
:105A300040182021405C002824D101212000C0B260
:105A4000FEF7DCFF35002A00D2B222212000C0B2CE
:105A5000FEF74CFE00252A00D2B20E212000C0B273
:105A6000FEF744FE2A00D2B20D212000C0B2FEF79C
:105A70003DFE3300DBB23A0000212000C0B2FEF749
:105A8000AFFE13E001212000C0B2FFF7A7FA3200F9
:105A9000D2B200212000C0B2FEF728FE3300DBB2F4
:105AA0003A0000212000C0B2FEF79AFE3000C0B2DA
:105AB000F2BD000010B0000838B504000D00E4B2DB
:105AC000022C02DB0020C0432DE000206946087054
:105AD0003148E4B23021614340182021405C002865
