:020000040800F2
:10000000400B002019610008D9600008DB6000087F
:1000100000000000000000000000000000000000E0
:10002000000000000000000000000000DD6000088B
:100030000000000000000000DF600008E160000830
:10004000D739000800000000B3410008634D0008E4
:100050008B5B0008F9600008536200085F620008CB
:1000600000000000F5600008F76000088F620008DB
:100070009162000893620008956200080000000089
:10008000E96000080000000000000000976200081E
:10009000996200089B6200089D6200089F62000848
:1000A000A1620008A3620008A5620008EB600008D6
:1000B000A762000880B500BF22A001F04DFC00BF80
:1000C0002EA001F049FC00BF39A001F045FC00BFA3
:1000D00045A001F041FC00BF51A001F03DFC1748D4
:1000E00001F03AFC164801F037FCB34801F034FC4B
:1000F000B24801F031FCB24801F02EFCB14801F0E9
:100100002BFCB14801F028FCB04801F025FCB048B8
:1001100001F022FCAF4801F01FFCAF4801F01CFCCD
:10012000AE4801F019FC00BF57A001F015FCAC4827
:1001300001F012FCAB4801F00FFC01BD644D00085A
:100140009C4D00080D0A2D5F2D5F2D5F2D5F2D5FEB
:100150002D5F2D5F2D20515F5368656C6C206865A5
:100160006C7020696E666F202D5F2D5F2D5F2D5F97
:100170002D5F2D5F2D5F2D5F0D0A00006C66282915
:10018000202020202020202020202020202020206F
:10019000202020202020202D2D206C6973742072B7
:1001A0006567697374657265642066756E0D0A0013
:1001B0002D5F2D5F2D5F2D5F2D5F2D5F2D5F2D5FDF
:1001C0002D5F2D5F2D5F2D5F2D5F2D5F2D5F2D5FCF
:1001D0002D5F2D5F2D5F2D5F2D5F2D5F2D5F2D5FBF
:1001E0002D5F0D0A000000000D0A2D2D2D2D2D2D47
:1001F0002D2D2D2D2D2D2D2D2D2D2D2D2D2D206801
:10020000656C7020696E666F202D2D2D2D2D2D2D86
:100210002D2D2D2D2D2D2D2D2D2D2D2D0D0A0000AB
:100220006373656E64286C656E677468292020208E
:1002300020202020202020202020202D2D2D2D2D7D
:100240002D20436F6E74696E75652073656E642032
:100250006F7574207261646F6E2076616C756520B5
:100260006672616D652864617461206C656E677487
:1002700068203D3D206C656E67746820696E206261
:10028000797465290D0A00007365747573657228A9
:100290007573657229202020202020202020202016
:1002A0002020202D2D2D2D2D2D2053657420746898
:1002B000652075736572206F6620726164696F20B6
:1002C0005048593A20302C20434C493B20312C20B7
:1002D0004D41430D0A00000070B5BDA001F03CFB8C
:1002E00041A001F039FBBB4C217F00BF4CA001F0C5
:1002F00033FBE16856A001F02FFB20684004810E1B
:1003000057A001F029FB0F2620684108314000BFAB
:100310005CA001F021FB206841093140AE4801F0AA
:100320001BFB20680003C10EAC4801F015FB012542
:100330002068010D2940AA4801F00EFB2068410DFC
:100340002940A84801F008FB2068810E2940A648F2
:1003500001F002FB2068C00E054029005DA001F0FD
:10036000FBFA1A20215EA14801F0F6FA1720215667
:100370009F4801F0F1FA61685EA001F0EDFA207F7C
:1003800000280BD1206A0009064031005EA001F070
:10039000E3FA206A4005410F60A001E02169954819
:1003A00001F0DAFAA168944801F0D6FA1620215635
:1003B000D74801F0D1FA70BDE04D0008244E000886
:1003C000744E0008AC4E0008104F0008484F00085B
:1003D0009C4F0008E84F00083050000868500008A3
:1003E000A0500008FC5000082D2D2D2D2D2D2D2D59
:1003F0002D2D2D2D2D2D2D20726164696F206368A8
:10040000616E6E656C20696E666F202D2D2D2D2D11
:100410002D2D2D2D2D2D2D2D2D2D0D0A0000000003
:100420006D6F64756C6174696F6E3A202564202865
:10043000302C204C6F52613B20312C203246534BE4
:100440003B20322C203446534B290D0A000000007B
:10045000667265713A202564487A0D0A0000000032
:100460006672657142616E643A2025642028322CE0
:10047000203437303B2031342C20343333290D0ADB
:100480000000000073746174653A202564202830F0
:100490002C206F66663B20312C2069646C653B2004
:1004A000322C2073657474696E673B20332C2054A2
:1004B000783B20342C2052783B20352C206C6973FB
:1004C00074656E696E673B20362C206572726F72A0
:1004D000290D0A006C65643A2025642028302C2000
:1004E000756E7573653B20312C20757365290D0A77
:1004F00000000000636869705F646573637269700F
:100500003A2025730D0A00006269747261746528CF
:100510005346293A2025640D0A000000636F646584
:10052000726174653A2025642028312C20342F35DF
:100530003B20322C20342F363B20332C20342F37D5
:100540003B20342C20342F38290D0A0070B5A0B080
:1005500001227049002002F0E5FA012831D1802201
:100560006946002002F0BFF90400812C18DA802CC3
:1005700024DA1848172143561A21425E210000BF91
:100580001EA001F0E9F9200008D06D462AA62978BE
:10059000300001F0E1F96D1C641EF8D10CA00EE0F2
:1005A000210000BF26A001F0D7F90121002002F0B0
:1005B00075FB0A21002002F071FB02E027A001F088
:1005C000CBF90221002002F069FB20B070BD0000D1
:1005D0000D0A0000000200203451000850510008AC
:1005E0006451000884510008B4510008E05100082B
:1005F000EC510008F85100080C520008576F726B5C
:1006000065722072656365697665206F6E65206628
:1006100072616D6520286C656E203D2025642C205C
:10062000525353493A2025642C20534E523A2025E8
:1006300064293A200000000025642020000000000A
:100640004572726F723A206C656E28256429206E9F
:100650006F74207269676874210D0A0043616E6EC1
:100660006F74207265636569766520616E792064B8
:10067000617461206672616D65210D0A00000000E1
:1006800080B50121002002F009FB0A21002002F0C0
:1006900005FB00BF01A001F05FF901BD5265736564
:1006A0007420726164696F206368616E6E656C208E
:1006B00066696E6973686564210D0A0010B50400EF
:1006C000ADA001F049F900BF13A001F045F9002CDD
:1006D00002D0AA48844207D3FA239B0001222100BA
:1006E0001BA001F039F910BDA548006840090F2191
:1006F000084203D0014000BF26A006E000222100EE
:10070000002002F00FFA210032A001F025F910BDFF
:1007100020520008102700002D2D2D2D2D2D207288
:100720006164696F206368616E6E656C20736574C7
:10073000757020656E657267792064657465637491
:10074000696F6E202D2D2D2D2D2D0D0A000000001E
:10075000436C69526164696F5F65643A206E6F74BF
:1007600020737570706F72746564206564207065A5
:1007700072696F64202825642C206D757374206263
:10078000652025647573207E202564757329210DED
:100790000A000000436C69526164696F5F65643AE6
:1007A000205468697320726164696F206368616EA8
:1007B0006E656C2063616E6E6F7420626520757368
:1007C000656420627920434C492028256429210D45
:1007D0000A000000456E61626C65207468652065E2
:1007E0006E6572677920646574656374696F6E20E5
:1007F0006F6620726164696F206368616E6E656CFC
:1008000020696E2025646D73210D0A00F1B582B058
:1008100059A001F0A1F800BF2CA001F09DF8684696
:10082000007A00906846007A002802D0009881285B
:1008300006DB8022009900BF6CA001F08DF842E039
:100840004F4C206842090F210A4202D011404D4806
:1008500007E042080F201040012805D0114003D0C6
:10086000494801F079F82EE0250024356846077ADA
:100870003E0002F0C5FB28706D1C761EF9D1206A7F
:1008800042490140780408432062009A617D404853
:1008900001F062F8250024353E003E4F29783800EB
:1008A00001F05AF86D1C761EF8D133A001F054F80F
:1008B0006846027A24342100002002F089F8364983
:1008C000002002F0BDF803B0F0BD00002D2D2D2D4D
:1008D0002D2D20726164696F206368616E6E656C96
:1008E0002073656E646F7574206F6E65206672612B
:1008F0006D65202872616E646F6D2076616C756520
:1009000029202D2D2D2D2D2D0D0A000010B50400B0
:1009100019A001F021F800BF20A001F01DF821006E
:1009200001D0812904DB802230A001F015F810BD30
:10093000134801684A090F20024203D01040010009
:100940003BA008E04A080F211140012906D01040C1
:1009500004D000BF46A000F0FFFF10BDB8480168FA
:10096000FF2291430C430460002141608160521CCE
:100970002243026010BD00000D0A0000E9030000E0
:1009800000020020300A0008700A0008FFFF01FE84
:10099000440C0008B80C0008701700002D2D2D2DF8
:1009A0002D2D20726164696F206368616E6E656CC5
:1009B00020636F6E74696E75652073656E642F7247
:1009C000656365697665206672616D652028726170
:1009D0006E646F6D2076616C756529207465737423
:1009E000202D2D2D2D2D2D0D0A000000436C695258
:1009F0006164696F5F73656E643A204E6F74207333
:100A00007570706F727465642064617461206C65C8
:100A10006E677468202825642C206D7573742062BD
:100A2000652031207E20256429210D0A0000000068
:100A3000436C69526164696F5F73656E643A2054F8
:100A400068697320726164696F206368616E6E65A6
:100A50006C2063616E6E6F742062652075736564CF
:100A600020627920434C492028256429210D0A0061
:100A7000436C69526164696F5F73656E643A2043C9
:100A8000616E6E6F742073656E64206F7574206480
:100A9000617461206672616D65207768696C65209C
:100AA00074686973206368616E6E656C2069732079
:100AB000696E2062757379207374617465202825CE
:100AC0006429210D0A000000F0B5A3B001206A4698
:100AD00010715B4909680A0A104000D1ABE0C8B246
:100AE000002800D1A7E0C9B20091B44C012808DB6E
:100AF00025002435064602F083FA28706D1C761E08
:100B0000F9D1206AAE49014000984004FF22520406
:100B100002400A432262009A617D00BF49A000F0B2
:100B20001BFF009801280BDB26002436054600BF7A
:100B300061A73178380000F00FFF761C6D1EF8D1E8
:100B4000A0A000F009FF009AD2B2210024310020B9
:100B500001F03EFFFA21C900002001F071FF0122DF
:100B60009949002001F0DEFF012853D1802202A91B
:100B7000002001F0B8FE0500812D40DA0098854282
:100B800006D02A00014600BF39A000F0E5FE00951E
:100B900000260025243402A803E06D1CEDB2401CA1
:100BA000641C00998D4224DA217802789142F4D0B5
:100BB00023488068401C224988602A00009900BFB1
:100BC00036A000F0C9FE0025009801280ADB02AC1F
:100BD00039A72178380000F0BFFE6D1C641C009816
:100BE0008542F6DB77A000F0B7FEFA208000C04611
:100BF000C0460098854216DB6846067113E010482F
:100C00008068401C0E498860290000BF2CA000F0BD
:100C1000A3FE08E00A488068401C0949886000BFBC
:100C20002FA000F099FE06484168491C4160826887
:100C300032A000F091FE6846007923B0F0BD0000BC
:100C4000300300204368616E6E656C20256420705F
:100C500072657061726520746F2073656E64206FB9
:100C60006E65206672616D6520282564293A200032
:100C70007265636569766564206672616D65206C76
:100C8000656E677468206572726F722028533A250A
:100C9000642F523A2564292100000000097265631F
:100CA0006569766564206672616D65202825642F0C
:100CB0002564293A20000000252E3258200000002B
:100CC0004572726F723A206E6F206672616D652098
:100CD00072656365697665645B25645D210D0A0054
:100CE0004572726F723A206E6F206672616D652078
:100CF0007265636569766564210D0A006672616DCF
:100D0000652073656E642F7265636569766520661C
:100D1000696E69736865642025642074696D657304
:100D20002C6572726F722025642074696D65733A48
:100D30000D0A000010B5040022A000F00DFE00BF57
:100D400022A000F009FEA4482018A449884203D339
:100D5000210000BF29A02DE0184A107F002809D1EA
:100D60009F48844206D04008844203D0210000BF3F
:100D700032A01FE011684B090F20034204D0184035
:100D8000010000BF41A015E04B080F2119400129C7
:100D900004D0184002D000BF4EA00BE091688C42F6
:100DA00001D1904806E094600621002001F076FF12
:100DB00021008D4800F0D0FD10BD00000002002091
:100DC000FFFF01FE0D0A0000881300002D2D2D2DC0
:100DD0002D2D20726164696F206368616E6E656C91
:100DE0002073657475702062616E647769647468DD
:100DF000202D2D2D2D2D2D0D0A000000436C695244
:100E00006164696F5F73657462616E64776964744D
:100E1000683A204E6F7420737570706F72746564D9
:100E200020667265712062616E64776964746820FF
:100E3000282564487A29210D0A000000436C695274
:100E40006164696F5F73657462616E64776964740D
:100E5000683A204F6E6C7920737570706F727420D1
:100E60003132356B487A206F722036322E356B481E
:100E70007A20666F72204C6F5261206D6F6465201E
:100E8000282564487A29210D0A000000436C695224
:100E90006164696F5F73657462616E6477696474BD
:100EA000683A205468697320726164696F206368CE
:100EB000616E6E656C2063616E6E6F74206265207A
:100EC0007573656420627920434C49202825642984
:100ED000210D0A00436C69526164696F5F73657428
:100EE00062616E6477696474683A2043616E6E6F04
:100EF000742073656E64206F757420646174612062
:100F00006672616D65207768696C652074686973C5
:100F1000206368616E6E656C20697320696E206263
:100F200075737920737461746528256429210D0A0D
:100F30000000000038B50400ACA000F00DFD00BFBB
:100F40002AA000F009FDAA4A137F002B0ED1E01F52
:100F5000062803D3210000BF2FA03AE0106A000644
:100F6000000F844210D121003BA032E02000643801
:100F7000A049884202D321004CA02AE01069844293
:100F800002D121009C4824E011684D090F20054240
:100F900004D02840010000BF54A01AE04D080F21E2
:100FA0002940012903D0284001D0944811E0002BAA
:100FB00008D1106AF02188432101F0230B4003433C
:100FC000136200E014610821002001F067FE210097
:100FD00058A000F0C1FC31BD18FCFFFF593E0F00C6
:100FE00048E8010034520008805200082D2D2D2DB4
:100FF0002D2D20726164696F206368616E6E656C6F
:101000002073657475702062697472617465202D37
:101010002D2D2D2D2D0D0A00436C69526164696FD1
:101020005F736574626974726174653A204E6F749F
:1010300020737570706F7274656420626974726178
:1010400074202825642920696E204C6F5261206D20
:101050006F6465210D0A0000436C69526164696F19
:101060005F736574626974726174653A205468696B
:101070007320726164696F206368616E6E656C20B5
:10108000686173207468652073616D65206269749E
:1010900072617465202825642920696E204C6F5286
:1010A00061206D6F6465210D0A000000436C695278
:1010B0006164696F5F736574626974726174653AC3
:1010C000204E6F7420737570706F72746564206247
:1010D000697472617465202825642920696E204630
:1010E000534B206D6F6465210D0A0000436C6952FB
:1010F0006164696F5F736574626974726174653A83
:10110000205468697320726164696F206368616E3E
:101110006E656C2063616E6E6F74206265207573FE
:10112000656420627920434C492028256429210DDB
:101130000A000000536574757020626974726174EE
:1011400065202825642920666F7220726164696FAA
:10115000206368616E6E656C210D0A0070B5040035
:1011600022A000F0F9FB00BF25A000F0F5FB9B4892
:1011700020189B49884203D3210000BF2BA032E0F6
:101180003F261B4D21002868420A3F20104001F0F5
:10119000F5FE0028286807D5400A064032002100E5
:1011A0002EA000F0D9FB70BD42090F210A4203D0E6
:1011B000114000BF36A016E042080F201040012861
:1011C00004D0114002D000BF42A00CE0E9688C427C
:1011D00002D100BF56A006E0EC600721002001F01C
:1011E0005DFD21007F4800F0B7FB70BD0D0A0000D7
:1011F000000200201D969800D052000824530008D9
:101200002D2D2D2D2D2D20726164696F2063686155
:101210006E6E656C207365747570206672657120E2
:101220002D2D2D2D2D2D0D0A00000000436C69522F
:101230006164696F5F736574667265713A204E6FA1
:101240007420737570706F72746564206672657156
:101250002028256429210D0A00000000436C6952F2
:101260006164696F5F736574667265713A20467276
:101270006571282564487A29206E6F7420696E2074
:101280007363616C652028256429210D0A00000024
:10129000436C69526164696F5F73657466726571EE
:1012A0003A205468697320726164696F20636861D1
:1012B0006E6E656C2063616E6E6F74206265207562
:1012C00073656420627920434C49202825642921D4
:1012D0000D0A0000436C69526164696F5F73657445
:1012E000667265713A2043616E6E6F742073656E2D
:1012F00064206F75742064617461206672616D652D
:10130000207768696C652074686973206368616E12
:101310006E656C20697320696E2062757379207325
:10132000746174652028256429210D0A00000000DD
:10133000436C69526164696F5F736574667265714D
:101340003A205468697320726164696F2063686130
:101350006E6E656C20686173207468652073616DC2
:1013600065206672657120282564487A29210D0A56
:101370000000000020B50500BCA000F0EDFA00BFA1
:1013800019A000F0E9FA042D02DB290022A022E0D6
:10139000B74A107FA84203D1290000BF2CA01AE051
:1013A00011684B090F20034204D01840010000BF10
:1013B00039A010E04B080F211940012904D0184032
:1013C00002D000BF45A006E015770A21002001F0F9
:1013D00065FC290057A000F0BFFA20BD001F0AFAE3
:1013E00001E9A435805300082D2D2D2D2D2D2072BF
:1013F0006164696F206368616E6E656C20736574EB
:101400007570206D6F64756C6174696F6E202D2D21
:101410002D2D2D2D0D0A0000436C69526164696FFA
:101420005F7365746D6F64653A204E6F74207375D9
:1014300070706F72746564206D6F64756C6174692F
:101440006F6E20747970652028256429210D0A00AB
:10145000436C69526164696F5F7365746D6F646535
:101460003A2054686973206368616E6E656C206908
:101470007320696E207468652073616D65206D6FDF
:1014800064756C6174696F6E2074797065202825AD
:101490006429210D0A000000436C69526164696F80
:1014A0005F7365746D6F64653A2054686973207268
:1014B0006164696F206368616E6E656C2063616E44
:1014C0006E6F7420626520757365642062792043B5
:1014D0004C492028256429210D0A0000436C6952DB
:1014E0006164696F5F7365746D6F64653A20436111
:1014F0006E6E6F742073656E64206F757420646106
:101500007461206672616D65207768696C6520740E
:10151000686973206368616E6E656C206973206909
:101520006E2062757379207374617465282564294F
:10153000210D0A005365747570206D6F64756C61C0
:1015400074696F6E20747970652028256429206F76
:101550006620726164696F206368616E6E656C21DC
:101560000D0A000080B5AB480168AB4A0A40026032
:101570003F48006840090F21084205D0014000BFE4
:1015800005A000F0E9F901BD0221002001F086FB71
:1015900011A000F0E1F901BD436C69526164696F0B
:1015A0005F73746F703A2054686973207261646964
:1015B0006F206368616E6E656C2063616E6E6F7420
:1015C000206265207573656420627920434C492050
:1015D00028256429210D0A0053746F7020726164FC
:1015E000696F206368616E6E656C210D0A000000F2
:1015F00070B504001DA000F0AFF900BF1DA000F001
:10160000ABF9201F1C2803D3210000BF25A029E02F
:10161000174B1D682803C00EA04203D1210000BF54
:101620002FA01FE069090F20014203D008400100EC
:101630003DA017E06E080F213140012904D0304051
:1016400002D000BF4AA00DE0BA482840E103F822CA
:1016500012030A4002431A600A21002001F01EFB17
:101660002100B54800F078F970BD00000D0A0000B7
:10167000000200202D2D2D2D2D2D20726164696F0B
:10168000206368616E6E656C207365747570207080
:101690007265616D626C65202D2D2D2D2D2D0D0A2D
:1016A00000000000436C69526164696F5F73657488
:1016B000707265616D626C653A204E6F742073754F
:1016C00070706F7274656420707265616D626C65B4
:1016D000206C656E6774682028256429210D0A0036
:1016E000436C69526164696F5F73657470726561A0
:1016F0006D626C653A2054686973206368616E6E30
:10170000656C20686173207468652073616D652065
:10171000707265616D626C65206C656E67746820BF
:1017200028256429210D0A00436C69526164696FA0
:101730005F736574707265616D626C653A205468A0
:10174000697320726164696F206368616E6E656C95
:101750002063616E6E6F742062652075736564200E
:10176000627920434C492028256429210D0A000074
:10177000436C69526164696F5F736574707265610F
:101780006D626C653A2043616E6E6F742073656E96
:1017900064206F75742064617461206672616D6588
:1017A000207768696C652074686973206368616E6E
:1017B0006E656C20697320696E20627573792028CC
:1017C000256429207374617465210D0A00000000EE
:1017D00020B5050059A000F0BFF800BF0FA000F031
:1017E000BBF8152D02DB290018A010E05448016851
:1017F0004A090F210A4203D0114000BF1FA006E092
:1018000085750921002001F049FA29002CA000F07B
:10181000A3F820BD30030020FFFEFFFF2D2D2D2D4E
:101820002D2D20726164696F206368616E6E656C36
:1018300020736574757020547820706F77657220FE
:101840002D2D2D2D2D2D0D0A00000000436C695209
:101850006164696F5F7365747077723A206E6F743C
:1018600020737570706F7274656420547820706F87
:101870007765722028256429210D0A00436C69527E
:101880006164696F5F7365747077723A2054686938
:101890007320726164696F206368616E6E656C208D
:1018A00063616E6E6F74206265207573656420627B
:1018B0007920434C492028256429210D0A00000085
:1018C0005365747570206E657720547820706F773B
:1018D00065722028256464426D2920666F7220722B
:1018E0006164696F206368616E6E656C210D0A002A
:1018F00010B5040011A000F02FF8124800F02CF8E9
:101900002100022901DB104810E00D480268D305D0
:101910001B0FA34201D10D4808E00D4B134062019B
:10192000F024640014401C4304600A4800F014F8DA
:1019300010BD0000FF7FF0FFAC5300080D0A00004F
:1019400000020020DC53000804540008345400084E
:101950001FFEFFFF745400080EB400B582B003A947
:1019600000916B4602000121034878440A3001F0DF
:10197000ADFB029906B00847F548000070B50C00B1
:10198000B749C200101A0D1802E0761E03D1641E7A
:10199000002C07D0C84EA87901F0BCFE0028F4D076
:1019A000002070BD012070BD70B582B0040000261B
:1019B00069460E7001F01EFE0121200000F099F82A
:1019C000D048A821614345182E60BC4828602E7776
:1019D0002868BB490140AA20C00408432860802031
:1019E00068772868C849014029606E60C748E86088
:1019F0002C756E751120A875EE756E832E76C44811
:101A0000A8602868C34901408020C00208432860BC
:101A10002E62B92040002862200000F011FA200058
:101A200000F07CF9200000F001FB200000F04AF9F2
:101A3000287F002817D10121200000F09DFA200006
:101A400000F077FB200000F0ABFB200000F0CAFBA9
:101A5000200000F0EAFBB049200000F027FC200045
:101A600000F046FC15E00121200000F055FC2000AC
:101A700000F0A1FC200000F0E3FC200000F0FFFCDF
:101A8000200000F031FD200000F082FD200000F079
:101A9000F7FD200000F00CFE200000F022FE6A4658
:101AA0000B21200000F058F868460078DF21014043
:101AB000684601700A460B21200000F07CF8287F60
:101AC000002801D1232200E020220C21200000F078
:101AD00072F8287F0028314603D1200000F04CFA2C
:101AE00002E0200000F018FC286801210143296071
:101AF00073BD10B5002802D00020C04310BD0129DD
:101B000013D1574C607801F0EFFD0021A07801F06F
:101B1000EBFD0120C046C0460121A07801F0E4FDA4
:101B20000620C046C046012010BD022909D14C4CF8
:101B30000121207901F0D8FD0121E07801F0D4FDE8
:101B4000F1E7032902D1464C0021F2E70429EAD04B
:101B50000529E8D00120D0E770B584B01600002830
:101B600002D00020C04324E002A8801C01700021A4
:101B7000417002AD29803A4C607801F0B5FD01203A
:101B800001900220009002AB022202A9891C207859
:101B900001F055FE012807DB68783070012160787C
:101BA00001F0A2FD012004E00121607801F09CFD1C
:101BB000002004B070BD30B583B0022802DB0020E5
:101BC000C0431CE002AB80240C431C705A702449B3
:101BD000C200101A0C180021607801F085FD012068
:101BE0000190002000900023022202A9207801F039
:101BF00026FE05000121607801F076FD68B203B091
:101C000030BDF7B50F000400022C02DB0020C043FA
:101C100023E0812B01DB802500E01D001048E1005E
:101C2000091B46180021707801F05EFD39003078FC
:101C300001F0EAFD012001900095029B2A00314845
:101C4000A8214C4301192431307801F0F8FD04003B
:101C50000121707801F048FD60B203B0F0BD0000D2
:101C60008C000020F0B583B00C0017001E00022885
:101C700002DB0020C0431CE0BE49C200101A0D1850
:101C80000021687801F030FD80212143287801F09F
:101C9000BBFD01200190002000900023320039009C
:101CA000287801F0CCFD04000121687801F01CFDCA
:101CB00060B203B0F0BD0000120300000204000097
:101CC000FFFF5FFE10B582B00400022818DA0D494C
:101CD000A82250430818C06801F00CFE0022D14B26
:101CE00001F018FE01F08AFE6946020C0A70020A31
:101CF0004A70887003236A4606212000FFF7B2FF6E
:101D000013BD0000000200201FFEFFF780A1031C8E
:101D100048E80100FF7FF0FFFF03000030B583B00B
:101D2000002802D00020C04335E002A8801C4221D8
:101D300001700021417002AD29808E4C607801F065
:101D4000D3FC012001900220009002AB022202A9E4
:101D5000891C207801F073FD01280DDB6D780121CD
:101D6000607801F0C1FC122D0AD1D148016A0F221E
:101D7000114207D109A10CE00121607801F0B4FC07
:101D8000002008E00A40012A02D100BF11A100E0B2
:101D90001EA14160012003B030BD000053656D7489
:101DA000656368205358313237363A206475616C68
:101DB0002062616E64207472616E7363656976651A
:101DC0007228313337202D20313032304D487A2976
:101DD0000000000053656D7465636820535831320C
:101DE00037373A206475616C2062616E64207472CA
:101DF000616E7363656976657228313337202D20F3
:101E0000313032304D487A290000000053656D743E
:101E1000656368205358313237383A206C6F772029
:101E200062616E64207472616E7363656976657257
:101E300028313337202D203532354D487A2900009E
:101E4000F0B587B0070000266846067200243D0002
:101E5000022D00DB8BE002AA09213800FFF77CFE8F
:101E6000002209213800FFF7A6FE9148A8214D4322
:101E700040190490C0680590C649884205D3C648F9
:101E80000499C8603800FFF71DFF674D002F1DD172
:101E900003A83B210170467068464681002168789E
:101EA00001F022FC012001900220009002AB9B1C5B
:101EB000022203A9287801F0C2FC012802DB02A853
:101EC000801C44780121687801F00EFC40222243F6
:101ED0003B213800FFF76FFE002F3DD103A83B21C7
:101EE00001704670684646810021687801F0FCFB6D
:101EF000012001900220009002AB9B1C022203A94A
:101F0000287801F09CFC012822DB02A8801C447880
:101F10001EE00121687801F0E7FB002FFDD103A846
:101F20003B210170467002ACA41C26800021687819
:101F300001F0DAFB012001900220009002AB9B1C13
:101F4000022203A9287801F07AFC0128E1DB6478F9
:101F50000121687801F0C8FBA006DED46846027A49
:101F600009213800FFF727FE05980499C86007B0DB
:101F7000F0BD00008C00002070B582B006000C009F
:101F80000020694608703500022D49DA6A460121B1
:101F90003000FFF7E1FD68460078F8210140214359
:101FA000684601700A4601213000FFF704FE4048F0
:101FB000A8214D434519286ABB4901406003F0221E
:101FC000520202400A432A6203213000FFF791FDCA
:101FD000002C00D1EAE1012C04D128681E2188439D
:101FE00002211BE0022C01D0032C08D10221300079
:101FF000FFF77FFD28681E21884306210EE0042C90
:1020000003D0052C01D0062C04D128681E2188435A
:10201000082103E028681E2188430A210143296022
:1020200073BD000080844E408C00002010B582B04B
:1020300004000020694608702000022801DB00200F
:1020400033E05649A82250430818007F002815D1D4
:1020500000212000FFF790FF6A4601212000FFF7D2
:102060007BFD6846007880210143684601700A467E
:1020700001212000FFF79FFD012016BD012801D09E
:10208000022811D10021200000F046F96A46012102
:102090002000FFF761FD68460078C006C00E694663
:1020A000087068460278E3E70120C04316BD0000CF
:1020B0000002002038B505000C00002069460870B9
:1020C000022D10DA6A4631212800FFF745FD6846E7
:1020D0000078F82101400C43684604702246312103
:1020E0002800FFF768FD31BD38B5040000206946BF
:1020F00008702500022D1BDA6A4626212000FFF712
:102100002BFD2648A8214D434019006A0006000F08
:102110000B286846007802DB0821014301E0F72123
:102120000140684601700A4626212000FFF743FD62
:1021300031BD70B582B005000020694608702800E6
:10214000022826DA1549A82250430E180F24306AB7
:1021500000092040062801D1052100E003212800C4
:10216000FFF7A8FF6A461E212800FFF7F5FC684626
:1021700000780440306A0009000120436946087075
:10218000684602781E212800FFF715FD2800FFF79A
:10219000ABFF73BD0127B92900A1BC3300020020A9
:1021A00038B504000020694608702500022D18DAB1
:1021B0006A461D212000FFF7CFFC68460178F12018
:1021C0000840C849A82255434919096A4905490FD9
:1021D00049000143684601700A461D212000FFF7AF
:1021E000EAFC31BD38B504000020694608702500BE
:1021F000022D19DA6A461E212000FFF7ADFCCC48FB
:10220000A8214D434059C102C90F6846007802D049
:102210000421014301E0FB2101406846017002787E
:102220001E212000FFF7C7FC31BD38B50400002097
:10223000694608702500022D19DA6A461D21200022
:10224000FFF78AFCA748A8214D4340198068B94987
:1022500088420DD1684600780007000F70210143C5
:102260006846017002781D212000FFF7A4FC31BDF3
:102270004908884205D1684600780007000F6021B0
:10228000EDE7AD49884205D1684600780007000FA8
:102290005021E4E7CF498842E9D168460078000739
:1022A000000F4021DBE70000FF1FFEFF38B50400F0
:1022B0000D00002069460870022C18DA6A461E21BB
:1022C0002000FFF749FC68460078FC210140A80582
:1022D000800F084369460870684602781E21200076
:1022E000FFF769FCEAB21F212000FFF764FC31BD53
:1022F00038B504002500022D0DDA00222021FFF759
:102300005AFC8B48A8214D4340590003C20E21219D
:102310002000FFF750FC31BD70B582B006000C0004
:102320000020694608703500022D3EDA6A46012118
:102330003000FFF711FC68460078F8210140214386
:10234000684601700A4601213000FFF734FC6548F9
:10235000A8214D434519286AD34901406003F02262
:10236000520202400A432A6203213000FFF7C1FBF8
:10237000002C00D11AE0012C04D128681E218843CA
:10238000022110E0022C01D0032C08D102213000E0
:10239000FFF7AFFB28681E218843062103E0286869
:1023A0001E21884308210143296073BD28681E212E
:1023B0008843286073BD38B504002500022D3EDA3D
:1023C00020220A21FFF7F7FB1E220D212000FFF734
:1023D000F2FBD2220E212000FFF7EDFB93222721F2
:1023E0002000FFF7E8FB692228212000FFF7E3FB2C
:1023F000812229212000FFF7DEFB7E222A212000F6
:10240000FFF7D9FB96222B212000FFF7D4FB1222E5
:102410001F212000FFF7CFFB892235212000FFF785
:10242000CAFB902230212000FFF7C5FB4048A821BD
:102430004D434019427F32212000FFF7BCFB31BDE4
:1024400038B50500022819DA2649A8225043081891
:10245000006901F04FFA02000B000020934901F0DF
:1024600059FA01F0B9FA84B2220A02212800FFF7D2
:10247000A2FBE2B203212800FFF79DFB31BD38B576
:102480000500022802DB0020C04332BD1549A82206
:102490005043081881680069081A400801F02AFAB8
:1024A0000022C44B01F036FA01F096FA84B2002003
:1024B000694608706A4604212800FFF74DFB68460C
:1024C0000078C0210140A004820E0A4304212800A4
:1024D000FFF771FBE2B205212800FFF76CFB01203A
:1024E00032BD00000002002038B50400002069461B
:1024F00008702500022D19DA6A4630212000FFF706
:102500002BFB0B48A8214D434059C102C90F684617
:10251000007802D01021014301E0EF21014068461C
:102520000170027830212000FFF745FB31BD00002B
:102530000002002048E80100E4A2000010B40100FD
:10254000002000BF24A2C300D3181C68A14204D3FA
:102550009B68994201D2C0B218E0401C80B2C3000F
:10256000D3181C68A14202D39B689942F3D3401C44
:1025700080B2C300D3181C68A14202D39B68994261
:10258000E9D3401C80B21528DDDB002010BC704769
:1025900038B5040002281CDABA49A82250430818AA
:1025A00080684008FA2189004018FFF7C7FF00281B
:1025B0000FD014280DDA00BF07A1C0000D182A792A
:1025C00012212000FFF7F7FA2A7B13212000FFF7E2
:1025D000F2FA31BD127A0000280A0000170000004C
:1025E0001C0C00000F0000003C0F00000700000062
:1025F00050140000160000009C1800000E0000009F
:10260000781E000006000000A02800001500000051
:10261000D43000000D000000F03C00000500000078
:102620004051000014000000A86100000C000000F0
:10263000447A000004000000E4A20000130000003F
:1026400050C300000B00000024F400000300000051
:102650008545010012000000A08601000A0000006C
:1026600048E80100020000002C8B0200110000006D
:10267000400D03000900000090D00300010000009D
:1026800038B504002500022D0DDA00222521FFF7C0
:1026900092FA7C48A8214D4340590003C20E2621DE
:1026A0002000FFF788FA31BDFF1FFEFF80847E41C6
:1026B00010B582B00400002069460870022C0FDAC1
:1026C0006A4609212000FFF747FA68460078802112
:1026D0000143684601700A4609212000FFF76BFAA2
:1026E00013BDF8B507003C00022C61DA00256846EE
:1026F00005706A4609213800FFF72EFA6148A821C3
:102700004C430419802668460078304205D01620D4
:1027100020560F2802DB872500E084252A004D2162
:102720003800FFF748FA16202056694609783142EA
:1027300021D0872D0FD1052801DA052002E01528C8
:1027400001DB1420A07568460078F02101401620B6
:102750002056401F20E0022801DA022002E0122861
:1027600001DB1120A07568460078F0210140162099
:102770002056801E10E00021C943884201DAA1756D
:1027800003E00F2801DB0E20A07568460078F021D9
:10279000014016202056401C0007000F08437021FE
:1027A000014368460170027809213800FFF703FAF7
:1027B000F1BD000080844E4070B582B00600022852
:1027C0005FDA00256B461D702E4AA8235843141863
:1027D00001296A460ED11B213000FFF7BDF968467A
:1027E000007801F087F8E268924B9A422A4642D27A
:1027F000914B41E019213000FFF7AEF968460078AF
:1028000000066846007806D5C143491C0806800EBC
:102810004142E17501E08008E07517202056E2682A
:10282000844B9A4214D2002804D501F059F8B7A27B
:102830000CCA21E0684605706A461A213000FFF78D
:102840008BF96846007801F055F800227A4B13E0C6
:10285000002804D501F044F8AEA20CCA0CE068468A
:1028600005706A461A213000FFF776F9684600784D
:1028700001F040F80022AA4B01F0D7F801F0ACF8C3
:10288000608373BD00020020F0B583B00700022F03
:1028900027DA0021002600281CD102A8801C112262
:1028A0000270417002AD29809C4C607800F01CFFE2
:1028B000012001900220009002AB022202A9891C93
:1028C000207800F0BCFF012800DB6E7801216078E1
:1028D00000F00AFF700841425848A8225743C01927
:1028E000418303B0F0BDF8B505000F0014000228C5
:1028F00001DBFF20F2BD00216A4611704F49A8227A
:1029000050430E18307F002836D100220D212800B8
:10291000FFF751F96A4613212800FFF71DF96846B1
:10292000007800281BD000212800FFF745FF6846EB
:10293000007884424AD3684603783A000021280090
:10294000FFF75FF93068D34901403160002128006A
:10295000FFF732FF00212800FFF70EFB2BE00121DB
:102960002800FFF729FF00212800FFF705FB30684A
:10297000C8490140316029E06A4600212800FFF77C
:10298000EBF82800FFF780FF68460078002815D094
:1029900068460078844219D3684603783A000021DB
:1029A0002800FFF72EF93068BA4901403160002154
:1029B0002800FFF7B1FC68460078F2BD3068B549E1
:1029C0000140316000212800FFF7A6FCFE20F2BD87
:1029D00070B504000E001500022801DBFF2070BD59
:1029E0001649A82250430818007F002810D1012161
:1029F0002000FFF7C1FA2A0022212000FFF7DBF8B0
:102A000000220E212000FFF7D6F800220D2105E05C
:102A100001212000FFF780FC2A0000212000FFF7A1
:102A2000CAF82B00320000212000FFF71BF9280014
:102A300070BD0000008F4233006063C000020020C0
:102A4000F8B505000E00022801DB00205BE0002144
:102A50006A4611709049A82250430F180124387F0C
:102A600000282AD101212800FFF786FA40224021C0
:102A70002800FFF7A0F87720694608707722112117
:102A80002800FFF798F803212800FFF775FA386847
:102A9000800E04400FD031002800FEF76FFF0400C5
:102AA0006A4612212800FFF757F800212800FFF797
:102AB00063FA012C26D00120F2BD04212800FFF783
:102AC00018F803212800FFF727FC3868800E04401F
:102AD000F1D031002800FEF751FF04000521280045
:102AE000FFF707F86A463E212800FFF735F86A46E7
:102AF0003F212800FFF730F800212800FFF70CFCE9
:102B0000012CD8D10120C043F2BD00004CB072436B
:102B1000FAC15DC04CB07243FA415DC08C00002028
:102B200000C062C0F8B504000E00022802DB0020DD
:102B3000C043F2BD00216B4619705749A823584382
:102B40000F181500387F00285FD101212000FFF702
:102B500013FA012D40D1002240212000FFF72BF86D
:102B60000F20694608700F2211212000FFF723F87B
:102B70006A4612212000FEF7EFFF00220D212000FF
:102B8000FFF719F805212000FFF7F6F93868410131
:102B9000C90F7DD031002000FEF7F0FE05006A4627
:102BA00012212000FEF7D8FF012D08D101212000BD
:102BB000FFF702FE00212000FFF7DEF949E068463A
:102BC0000078800647D500212000FFF7F5FD0021A1
:102BD0002000FFF7D1F93CE006212000FFF7CCF9F7
:102BE000FA2189008E4201D2012003E0300000F07A
:102BF000F0FF80B2C046C04601212000FFF7DCFD97
:102C000000212000FFF7B8F942E001212000FFF782
:102C100083FB012D25D104212000FEF76AFF052149
:102C20002000FFF779FB38684101C90F30D031002F
:102C30002000FEF7A3FE050005212000FEF759FF46
:102C40002000FFF721FE012D05D100212000FFF714
:102C500063FB0020F2BD386880218904014339609C
:102C600016E005212000FFF757FBFA2189008E426C
:102C700001D2012003E0300000F0ABFF80B2C0467B
:102C8000C0462000FFF700FE00212000FFF744FBB4
:102C90000120F2BDFFFFFFFD0002002070B582B0F1
:102CA00004002500022D02DB0020C04376BD002673
:102CB00068464670112909D1AF48A8214D434059B3
:102CC000C006000F04280BD1012076BD122909D1BE
:102CD000A948A8214D434059C006000F0328F3D04E
:102CE000002076BD012912D12000FEF702FFA24884
:102CF000A8214D434019007F0028314603D1200010
:102D0000FFF73AF9E0E72000FFF706FBDCE70229CE
:102D10002BD103212000FEF7ECFE9748A8214D435C
:102D20004519287F00281ED1684606706A46012191
:102D30002000FEF711FF68460078F8210140684640
:102D400001700A4601212000FEF735FF286A9F49DD
:102D50000140296203212000FEF7CBFE28681E21D6
:102D600088432860B0E70021CDE703292FD18248AE
:102D7000A8214D434519287F002826D168460670B2
:102D80006A4601212000FEF7E7FE68460078F82138
:102D90000140012008436946087068460278012115
:102DA0002000FEF708FF286A884901408020800142
:102DB0000843286203212000FEF79BFE28681E219D
:102DC00088430221014329607EE701219BE7042912
:102DD00000D179E7052903D12000FFF727F973E730
:102DE000062911D16448A8214D434019007F0028CD
:102DF00003D12000FFF719FA66E72000FFF73FFB39
:102E00002000FFF7C5FB5FE7072903D12000FEF78D
:102E100059FF59E7082911D15748A8214D434019B6
:102E2000007F002803D12000FFF783F94CE7200042
:102E3000FFF725FB2000FFF703FB45E7092903D136
:102E40002000FFF74EFC3FE70A2900D088E0200071
:102E5000FFF7ECF82000FEF735FF2000FFF741FCFC
:102E60004548A8214D434519287F002840D1684690
:102E700006706A4601212000FEF76EFE6846007863
:102E8000F82101400120084369460870684602782D
:102E900001212000FEF78FFE286A4C490140802066
:102EA000800108432862002C08D1494E0021307966
:102EB00000F01AFC0121F07800F016FC28681E21B1
:102EC00088430221014329602000FFF732F92000E6
:102ED000FFF766F92000FFF785F92000FFF7A5F955
:102EE0003C492000FFF7E2F92000FFF701FA15E066
:102EF00001212000FFF710FA2000FFF75CFA200004
:102F0000FFF79EFA2000FFF7BAFA2000FFF7ECFA6D
:102F10002000FFF73DFB2000FFF7B2FB2000FFF78A
:102F2000C7FB2000FFF7DDFB00AA521C0B2120008D
:102F3000FEF712FE68464078DF2101406846417086
:102F40000A460B212000FEF736FE287F002805D117
:102F500023220C212000FEF72EFEB5E62022F8E702
:102F60000E2900D1B0E60F2900D1ADE6102900D11D
:102F7000AAE6012099E60000000200200E2807D1F1
:102F800015480818154988421DD30120C0437047D1
:102F9000022805D1124808181249884213D3F4E7D1
:102FA000042803D1104808181049F6E7072803D170
:102FB0000F4808180F49F0E70028E6D10E48081816
:102FC0000E498842E1D2012070470000FF1FFEFF3A
:102FD0008C000020FF03000080B85EE601093D0080
:102FE000805EFCE3015A620240AA8FCCC1CF6A0026
:102FF00080923CCA81BA8C014029E7F5F92401008E
:10300000F8B52F4E3000C046C0460090301DC04677
:10301000C046040030000830C046C04605000C36EB
:103020003000C046C0462749274A009B1B78002B2A
:1030300036D1236853435B18236053435B182360E6
:1030400053435B18236053435B18236053435B185F
:10305000236053435B18236053435B18236053433F
:103060005B18236003000826276857437F182760F2
:103070001F60276857437F1827605F6027685743A2
:103080007F1827609F60276857437F182760DF609D
:103090001033761EE8D1C36F2B600123009E33707E
:1030A00023685343591821602978C906490E4018EE
:1030B0000168296021680160286880008008F2BDED
:1030C000000000205FF36E3C0D661900F9B593B067
:1030D0001400099108AD0020E8610AE00998139AEC
:1030E00090470990002800D1BFE1E869401CE861E1
:1030F000641C2178002901D1E869B8E12529EDD1C6
:10310000002028616861A86102E0010001200843F5
:10311000641C21782029F8D023290ED02B2904D033
:103120002D2907D030290BD00DE0010002200843E3
:1031300080B2EDE701000420F9E701000820F6E77E
:1031400001001020F3E72A2912D114990968149A72
:1031500011600A68091D149B19606A62002A05D56E
:103160005142696201000420084380B2641C12E0ED
:10317000002169620AE06A6ABE4B9A4205D0930058
:103180009A185200511830396962641C21780A007B
:10319000303A0A2AEFD321782E2903D00021C943DF
:1031A000296221E0641C21782A290AD1149909682E
:1031B000149A11600A68091D149B19602A62641C24
:1031C00012E0002129620AE02A6AAA4B9A4205D03D
:1031D00093009A185200511830392962641C2178E2
:1031E0000A00303A0A2AEFD328852678310000BF3A
:1031F000A1A000F045FD002801D0641C00E00026DD
:103200002A202E54285C682806D12078682803D10B
:1032100062202A216854641C02A8E8602678641C95
:10322000252E13D0582E40D0632E00D19EE0642E60
:103230007AD0692E78D06F2E37D0702E28D0732E8A
:103240000AD0752E31D0782E2FD09CE00120286135
:10325000252069460872A1E0149800681499086056
:103260000668001D14990860AE602F6A002F03D510
:10327000300000F00FFD09E03A000021300000F0BE
:1032800011FD002801D0801B00E03800686185E056
:1032900014980068149908600168001D149A106061
:1032A000089102A8A86078215CE02A20285C6C289C
:1032B00001D1149810E0712801D1149802E06A2815
:1032C000149809D10268D21D072082431498026025
:1032D00003CA149B1A6005E0016801600868091DB3
:1032E000149A116008902A20285C682802D1089856
:1032F00080B203E0622802D10898C0B2089028206A
:10330000285C000729D50898002826D020203043C3
:10331000782822D12869302102AA1154401C411C6E
:10332000296102A90E5418E014992A20285C00F0A3
:10333000A7F80890002802D528692D2109E0288DDA
:10334000810702D528692B2103E0C00705D528692C
:10335000202102AA1154401C286102A829694018A2
:10336000A860310008A800F0B1F817E0012028613A
:1033700014980068149908600168001D149A106080
:10338000684601720AE0012028612520694608721A
:10339000002E03D00220286102A84670686A2969BD
:1033A000401AA969401A6969401A01902820285CCE
:1033B000400710D4202069460870002608E0012349
:1033C0006A4608A9139800F0FDF800284DD1761C34
:1033D00001988642F3DB2F6902AE0BE03178099841
:1033E000139A9047099000283FD0E869401CE86193
:1033F000761C7F1E002FF1D1302069460870AF691E
:10340000002608E001236A4608A9139800F0DAF8BC
:1034100000282AD1761CBE42F4DB6F69AE680BE04F
:1034200031780998139A9047099000281DD0E869CF
:10343000401CE861761C7F1E002FF1D12820285CFB
:10344000400700D455E6202069460870002600E0B9
:10345000761C0198864200DB4BE601236A4608A9E8
:10346000139800F0AFF80028F2D00020C04315B048
:10347000F0BD0000FFFFFF7F686C747A4C00000015
:10348000622815D068280CD06C2818D0742816D063
:103490007A2814D10A680A601068121D0A60002197
:1034A00070470A680A601068121D0A6000B20BE0DB
:1034B0000A680A601068121D0A6040B204E00A68D7
:1034C0000A601068121D0A60C1177047F2B582B019
:1034D0000400E06800906846007A6F2801D1082552
:1034E00006E020220243782A01D00A2500E01025B8
:1034F000182721680E00642801D0692803D100290B
:1035000001D570420600002E0DD1206A00280AD194
:10351000082D31D12820205C00072DD51727302019
:103520000099C87528E07F1E01973000290000F03F
:1035300050FB3031C9B23A2903DB6846007A513872
:1035400009180098C1553000290000F042FB060020
:1035500004D0A0680099C9198842E4D3082D0BD182
:103560002820205C000707D50098C05D302803D0D4
:103570007F1E30200099C8551820C01B606100993B
:10358000C919A160216A884206DA081AA061208D53
:103590000B490140218510E000290ED52821615CEE
:1035A00014220A40102A08D1616A2269891AA26984
:1035B000891A0F1A012F00DBA76103B0F0BD0000CC
:1035C000EFFF000079B50E0014001D00002005E09B
:1035D000F069401CF0610020641C6D1E002D08D0B5
:1035E00021787068009A904770600028F0D1002020
:1035F000C04376BD002800D07047F0B587B04E4973
:1036000008704870012088700220C870032008717B
:1036100004204871052088714848886051A700BF80
:1036200052A600BF46A001900020009047A40625A6
:103630000121206800F078FC019800880290387819
:1036400002A9087103204871307888713A4880686F
:10365000009A805800F0AAFC241D0098001D0090DC
:103660000198801C0190761C7F1C6D1EE0D1012109
:10367000012000F063FC01246F4604AE3DA0E10090
:103680004518083D6979287900F0DAFC286804902B
:1036900000203071082070710120B07104A800F082
:1036A000E5FCA8793870E87978700120B870684630
:1036B00000F018FD641EE4B2002CDFD11E48007833
:1036C00000F05CF81C48407806280ADA1CA1420089
:1036D000895A194A926880001058828A8A43114395
:1036E000818207B0F0BD0000062800DB704710B4EF
:1036F000114A92688300D258938A00BF10A44000F8
:10370000205A002900D0010083431943918210BC44
:103710007047000006280CDA07498968820089583A
:10372000098A00BF06A24000105A014201D00120C0
:1037300070470020704700008C0000209800002097
:103740000080010000020001800002000000020071
:10375000000002000000040000000400000004005B
:103760000000020001010101000000000000000053
:1037700000000000020000000001050010B588B044
:10378000002402A90C80822252004A80E022D2004A
:103790008A80CC800C81802292004A8118228A8102
:1037A000CC8107220A8200282CD10121080300F0D5
:1037B000C5FB0121880400F0B7FB38200090684663
:1037C00003214171022101718471434C694620003B
:1037D00000F0ECFB00220321200000F020FC00227E
:1037E0000421200000F01BFC00220521200000F035
:1037F00016FC3A4C02A9200000F09EFC012120009A
:1038000000F0BEFC08B010BD38B50C00002814D183
:10381000324D0221280000F0C5FC0028F8D021001C
:1038200028000173C0468021280000F0BBFC01285D
:10383000F9D02800007BC04632BDFF2032BDFEB566
:103840000024002B05D0089A002A02D0019B9A423E
:10385000FCD300283BD10198002838D00F00029EED
:103860001E4D3878029900296946087015D002214A
:10387000280000F097FC0028F9D06846017828005D
:103880000173C0468021280000F08CFC0128F9D08B
:103890002800007BC046307013E00221280000F0B1
:1038A00081FC0028F9D06846017828000173C046E1
:1038B0008021280000F076FC0128F9D02800007B48
:1038C000C046641C761C7F1C01988442C9D320002A
:1038D00003B0F0BD000000000004004800300140CB
:1038E000010009D5F446404200F006F80122D20753
:1038F00011436047010000BF42221201D21E004264
:1039000007D002D4521E0018FCD5C10A400512058A
:1039100089187047F0B40E005E400125ED072E4077
:10392000B446AE0ADF184C18F4423BD2F74241D2FB
:10393000640D43D07F0D38D0E41BC902DB0229435C
:103940002B43CF0ADB0A0600B61A9F4104D2641E3D
:10395000B6197F41B6185F416812800D241800180F
:10396000844222DAE80C0021B6197F41B61A9F4141
:1039700002D2B6185F413F1C40414941F4D3241C98
:1039800021DD2405B6197F41B61A9F4105D337437F
:10399000C60737430026012F704161416646314317
:1039A000F0BC7047FCD1F74205D20020C143490565
:1039B0004908F3E704D00020C143F1E77F0DFAD0B6
:1039C00000206146ECE72442FAD1401C61410F031C
:1039D000F6D30020E2E7FEE7F4464A1805D200F0ED
:1039E0000FF801D580174008604700F009F8012161
:1039F000C907884200D90800404260474A1812D2DD
:103A0000400DC90208430121C9070843520D402156
:103A10000901521A521C06D452421F3201D4D0401E
:103A20007047C017704700207047F0B40125ED07BC
:103A30000F005F404FD48B4200D1824205D98446AB
:103A4000100062468C4619006346DF184C18640D5E
:103A50007F0D3AD0661C760537D0E61B352E34DC58
:103A6000DB022B43DB0A0C0DC9022943C912202EAD
:103A70000DDB1700203E06D01F00F741F3405F40EA
:103A80000026012A7741C01871410DD217E01700B6
:103A9000F741F2405740F3415A40B340F3405A4097
:103AA0000026801859410AD3A21C52050FD0C20724
:103AB000012F724117004008CB0718434908641CC6
:103AC00024054208AF4170416141F0BC7047641C5D
:103AD00021050020F9E76B400AE06B40ABE7F742B5
:103AE000F3D1E943F1E72442EFD100200021ECE7D4
:103AF0000C00871A9C4105D2C01BA141D219634119
:103B000069406B40AE0ADF184C18F442E7D2640DEE
:103B10007F0DE8D0E61B362ED7DCDB022B43DB0A19
:103B2000A4460C0DC9022943C90A012E28DC04D180
:103B3000D6075208DF073A435B08EF0A7642904106
:103B4000994114D039423BD1B61940414941761CC4
:103B5000394204D1761C001849413942FAD0B943A0
:103B60006746B74208D9A41B24052143ADE70042AC
:103B7000EAD13642E8D1A8E7E40AE1070020A4E749
:103B8000202E0BDD203E1F00F340F7415F40012A4D
:103B9000002257417E42984191410BE01700F741C6
:103BA000F2405740F3415A40B340F3405A407E42FE
:103BB000904199410A0303D2641EB619404149411C
:103BC0000027641E24054208AE4178416141F0BCE3
:103BD00070470022030A8B420BD203098B4219D291
:103BE00043088B422ED2411A00D201465241104660
:103BF0007047FF2209023FD012068B4205D31212F2
:103C000009028B4201D31212090203098B4219D314
:103C100000E0090AC3098B4201D3CB01C01A52410B
:103C200083098B4201D38B01C01A524143098B4255
:103C300001D34B01C01A524103098B4201D30B013E
:103C4000C01A5241C3088B4201D3CB00C01A524163
:103C500083088B4201D38B00C01A524143088B4228
:103C600001D34B00C01A5241884200D3401A52413E
:103C7000CFD201461046704708B5C046C04608BDC1
:103C8000C9B200E0401C02788A4202D0002AF9D171
:103C900000207047010000E0491C0A78002AFBD18F
:103CA000081A7047C9B201E0401C521E002A03D016
:103CB00003788B42F8D1704700207047394801687B
:103CC00001220A4302604168374A0A4042600168A3
:103CD000364A0A4002600168354A0A40026041687B
:103CE000344A0A404260C16A0F229143C162016BAB
:103CF000314A0A400263416B012291434163002132
:103D0000816070472D4900220A700870704718B40E
:103D100000200090A021C901224A1368009C641C65
:103D20000094009C8C4201D09B03F6D51168890356
:103D300000D5012012BC704710430860704710B4D2
:103D40001F4A1368754C1C401460136801431943E3
:103D5000116010BC704713490028086803D0802206
:103D60005204024301E06E4A02400A6070476D4906
:103D70000A680F239A43DFE711490A6803239A432D
:103D8000DAE70F4801680C20084070470C490A68C0
:103D9000F0239A43D0E70A490A686D4B1340184351
:103DA00008607047001002400CB8FF08FFFFF6FEE5
:103DB000FFFFFBFFFFFFC0FFACFEF0FF0210024061
:103DC0000410024070B5050000206D4E31680C22D1
:103DD0000A40042A04D0082A04D00C2A19D01AE078
:103DE000684919E0306832680F21840C0C40A41C2B
:103DF000C0204002104003D120006349484306E040
:103E0000B26A60481140491CFFF7E3FE60430100BD
:103E100002E05E4900E05E49296034685D4A0F2196
:103E20002B6824092140515CCB406B603168490507
:103E3000490F515CCB40AB60F16AC90501D45649CA
:103E400005E03168490401D4590800E09908E960A7
:103E5000F16A490601D4514901E080210902296132
:103E6000F16AC90601D44A4900E029686961032161
:103E7000F26A0A4001D1A96811E0F26A0A40012AF7
:103E800001D129680BE0F26A0A40022A02D180219E
:103E9000090204E0F26A1140032901D13C49A961F9
:103EA000C0218902F26A0A4001D1A96813E0F26ACE
:103EB0000A4080235B029A4201D129680BE0F26A32
:103EC0000A405B009A4201D1990804E0F26A0A4074
:103ED0008A4201D12E49E961C0210903F26A0A40F0
:103EE00001D1A96813E0F26A0A408023DB029A42FA
:103EF00001D129680BE0F26A0A405B009A4201D1C5
:103F0000190904E0F26A0A408A4201D12049296273
:103F1000F16A090600D41D48686270BDFF7FC2FFC8
:103F2000FFFFFFFE2C1002401D4A0029116802D03D
:103F3000084310607047814311607047194A002997
:103F4000116802D0084310607047814311607047C8
:103F5000FFF8FFFF4109144A002901D1116808E068
:103F6000012901D1116A04E0022901D1516A00E05E
:103F7000516BC006C00EC140C807C00F704700009B
:103F8000041002400048E80100093D00006CDC021A
:103F900000127A00E8000020809FD5001280000007
:103FA00014100240181002400010024070B40023A8
:103FB0000022012494400D682540A54229D10D79A5
:103FC000012D01D0022D11D1856803269E40B543F5
:103FD000856085684E799E402E4386608588A5431E
:103FE000858084888D7995402543858003259D4073
:103FF000EC4305682540056005680E799E402E4318
:104000000660C5682C40C460C468CD799D402543D6
:10401000C560521C9B1C102ACBD370BC704710B4D7
:10402000CB089B00C0184907C90E036A0F248C40B7
:10403000A3430362036A8A401A43026210BC7047BA
:1040400010B40200084B08000324A0431818890785
:10405000090F03680F248C40A343036003688A4060
:104060001A43026010BC70470800014030B4016878
:10407000CC431A498279002A25D00A4613681C408D
:10408000146053680468A343536003795B181C6889
:10409000056825431D6093680468A3439360D36853
:1040A0000468A343D36043790468102B07D1916857
:1040B0000C439460D16800680843D06008E05B1846
:1040C0001868044303E000794318186804401C6032
:1040D00030BC70470249086070470000000401408E
:1040E0001404014070B401000C781F220123887869
:1040F000002815D00D4D20000326B0432818056870
:10410000A407E40EFF26A640B5434E78B607360E48
:10411000A6402E430660087802409340044802E01F
:10412000224093400348036070BC704700E400E005
:1041300000E100E080E100E00288C1239B01134020
:104140000A881A43CB891343CA881A430B8913433D
:104150004A891A438B891343038082880D4B13408D
:104160008A881A4382800A8A028202880A4B134094
:10417000498819430180818B084A0A40828370472D
:104180000029018802D040220A4301E0044A0A4083
:1041900002807047FFF00000FBFF0000FFF7000007
:1041A000BFFF00000200002012890A4200D0012057
:1041B0007047FEE7F2B400210A220300009C216050
:1041C00002E020341C705B1C1C782500413D062D4C
:1041D000F7D3582CF5D0002CF5D1030004E0612D65
:1041E00000DB1022491C5B1C1D782E003700303F7D
:1041F0000A2FF4D3613E062EF1D3782D01D1012987
:10420000EFD0002D06D10300102A19D1032903D2C3
:1042100002202BE0012029E0187830280ED15878B0
:1042200078280BD19B1C891E002900D0491E1C78C0
:104230002000303C0A2C07D2303806E0032015E07D
:104240000029F1D1042011E057380124002903D0BE
:104250000D0054436D1EFCD1009D2D68604328184D
:10426000009C20605B1C18780028DDD1F2BC7047F0
:10427000F1B50C0000250022002101E0521C401C79
:1042800003781E003700613F1A2F0DD33700413FDE
:104290001A2F09D3303E0A2E06D35F2BEED0282BDF
:1042A00004D025715EA042E0282BE7D1002A03D17B
:1042B000257100BF6AA03AE0501EA071521C130085
:1042C000009886181DE02C2824D19A422CD0481C36
:1042D000771E3F78222F09D104290ED261180127B9
:1042E0000F745B1C0B72931E0B7306E0042904D23F
:1042F00061180D740B72531E0B730100531C521C7A
:10430000761C30780700203F5F2FDCD3257100BF7B
:1043100062A00CE02928F2D1A079801C824201D150
:10432000E57121E09A4206D1257100BF6CA0FDF72E
:1043300013FB0020F2BD481C009EB618761E36788E
:10434000222E09D104290ED2611801260E745B1C9D
:104350000B72921E0A7306E0042904D261180D74D0
:104360000B72521E0A73E07100982060657120681C
:10437000A2798218557026A100F0CCFC002801D14A
:10438000012042E060792268A379D3185D7021A1F1
:10439000101800F0BFFC002801D1022035E0607940
:1043A0002268A379D3185D701BA1101800F0B2FC2D
:1043B000002801D1042028E060792268A379D3186D
:1043C0005D7016A1101800F0A5FC002801D1052091
:1043D0001BE060792268A379D3185D7050A1101892
:1043E00000F098FC002801D106200EE060792268D8
:1043F000A17951184D7000BF4BA1101800F08AFC34
:10440000002801D1072000E0032020710120F2BD27
:104410006C6600006C76000067657400736574005C
:104420004C65786963616C20416E616C7973697366
:10443000204572726F723A2046756E6374696F6EB2
:10444000206F722043616C6C206E616D6520697312
:1044500020696C6C6567616C2121210D0A000000E8
:104460004C65786963616C20416E616C7973697326
:10447000204572726F723A2046756E6374696F6E72
:10448000206F722043616C6C206E616D65206973D2
:1044900020656D7074792121210D0A004C657869C1
:1044A00063616C20416E616C79736973204572722F
:1044B0006F723A20706172616D6574657220696E09
:1044C000636C75646520696C6C6567616C206368FA
:1044D000617261637465722121210D0A0000000080
:1044E0004C65786963616C20416E616C79736973A6
:1044F000204572726F723A20706172616D657465E9
:104500007220696E636C75646520696C6C656761A7
:104510006C20636F6D6D612121210D0A0000000088
:1045200072656164000000007772697465000000C4
:10453000F0B58BB0050001242879401E062800D96B
:10454000D0E102A14000095A8F4400BF4E0370031E
:104550000E007001EC01B002E002687929680026C3
:10456000AB79CB185E70081800909F4F00E01037B1
:104570009E48874208D20099386800F0CBFB00289B
:10458000F5D10697002F01D1994878E1E8790528FF
:1045900001DB984873E1039607E0D3185E70511869
:1045A00001600398401CC0B203900398E9798842E7
:1045B00044DA07A803998900401803996B182A6800
:1045C000197C0129197A1B7BE7D0D3185E7051182A
:1045D0000091059000200A2104910099059A166027
:1045E00002E020320A70491C0A781300413B062B76
:1045F000F7D3582AF5D0002AF5D1009905E0612AB1
:1046000001DB10220492401C491C0A7813001F0091
:10461000303F0A2FF3D3613B062BF0D3782A01D128
:104620000128EED0002A05D10099049A102A1BD047
:10463000002823D1AF48FDF78FF900240A9B099A7F
:1046400008990798069DAD68A84705000522AA4964
:104650000698406800F06FFB002800D146E1290071
:10466000A648FDF779F941E10328E3D30A78302A17
:10467000E0D14A78782ADDD1891C801E002800D03C
:10468000401E0B781A00303B0A2B01D2303A00E072
:10469000573A00920122002804D00300049F7A4375
:1046A0005B1EFBD1059B1B68009F5743DA19059BD6
:1046B0001A60491C0A78002AE0D172E7287A296832
:1046C00000222B7BCB185A700F188D4E00E010364D
:1046D0008C48864246D23900306800F01BFB002827
:1046E000F5D1002E3ED0E879012800D089E0F568A8
:1046F00085A1280000F00EFB002805D1B0680278E3
:10470000316800BFABA0C5E080A1280000F002FB2B
:10471000002805D1B0680288316800BFA5A0B9E0C3
:104720007BA1280000F0F6FA002865D1B068026885
:10473000316800BF9FA0ADE0287A296800262B7B56
:10474000CB185E70081800906D4F00E010376D4870
:10475000874207D20099386800F0DCFA0028F5D1CA
:10476000002F01D16EA0BEE0E879022861D1687CFB
:10477000012801D17BA082E0687A2A68697B511800
:104780004E7002A91018FFF715FD002800D075E043
:10479000FD685DA1280000F0BDFA002808D102984C
:1047A000B9680870B8680278396800BF81A071E004
:1047B00056A1280000F0AEFA002807D1B868029987
:1047C00001800288396800BF7AA063E050A1280008
:1047D00000F0A0FA00280FD1B868029901600A46DB
:1047E000396800BF73A055E0385F000828600008F2
:1047F000286000086C60000870A074E0E879012867
:1048000002D000BF79A06EE00026287C012801D1EB
:1048100087A034E0287A2A68297B51184E7001A9B4
:104820001018FFF7C7FC002828D12FE0E8790228EC
:1048300002D000BF90A056E00026287C012801D1BC
:104840009DA01CE0687C012802D100BFAEA016E04C
:10485000287A2A682B7BD3185E7001A91018FFF7FD
:10486000A9FC00280AD1687A2A68697B51184E7021
:1048700002A91018FFF79EFC002804D0B6A0FDF78F
:104880006BF8002432E002980199086001980268F0
:1048900001462048FDF760F828E0E879002810D1AB
:1048A0001D4D1E48854221D2CAA669683000FDF719
:1048B00053F810351948854218D2F6E7E8790028F0
:1048C00002D000BFB4A00EE00D4D0E4885420DD2BF
:1048D000C0A669683000FDF73FF8103509488542E9
:1048E00004D2F6E7BDA0FDF737F8002420000BB096
:1048F000F0BD00BF584B0008B4600008BC60000861
:10490000A8620008A86200087538000075313600FA
:1049100075333200C8600008385F0008286000085E
:10492000506172736520416E616C797369732045C3
:1049300072726F723A2074686520696E70757420A7
:104940007661726961626C652068617665206E6F60
:1049500074206265656E2072656769737421212118
:104960000D0A0000506172736520416E616C7973AD
:104970006973204572726F723A207468697320639C
:10498000616C6C2773207365636F6E642070617255
:10499000616D657465722063616E277420626520A5
:1049A000737472696E6720747970652121210D0A14
:1049B0000000000025733D25640D0A007468652021
:1049C0006465736372696265206F662076617269DF
:1049D00061626C6527732074797065206973206942
:1049E0006C6C6567616C2121210D0A005061727346
:1049F0006520416E616C79736973204572726F72C4
:104A00003A20746869732063616C6C206D757374EF
:104A10002068617665206F6E6C79206F6E652070FE
:104A20006172616D657465722121210D0A000000BB
:104A3000506172736520416E616C797369732045B2
:104A400072726F723A20746869732063616C6C27AC
:104A50007320706172616D657465722063616E2090
:104A60006E6F7420626520737472696E672074794A
:104A700070652121210D0A00506172736520416E1D
:104A8000616C79736973204572726F723A20746831
:104A900069732063616C6C206D7573742068617636
:104AA000652074776F20706172616D657465722125
:104AB00021210D0A00000000506172736520416ED3
:104AC000616C79736973204572726F723A207468F1
:104AD00069732063616C6C2773206669727374203C
:104AE000706172616D657465722063616E206E6FB6
:104AF0007420626520737472696E672074797065C2
:104B00002121210D0A000000506172736520416E61
:104B1000616C79736973204572726F723A207468A0
:104B200069732063616C6C2773207365636F6E64B7
:104B300020706172616D657465722063616E206EB4
:104B40006F7420626520737472696E672074797067
:104B5000652121210D0A0000506172736520416EAC
:104B6000616C79736973204572726F723A20746850
:104B70006520696E707574206E756D626572207344
:104B80007472696E6720697320696C6C6567616C0B
:104B90002121210D0A000000506172736520416ED1
:104BA000616C79736973204572726F723A20746810
:104BB00069732063616C6C206D7573742068617615
:104BC00065206E6F20706172616D65746572212160
:104BD000210D0A0025730D0A000000005061727358
:104BE0006520416E616C79736973204572726F72D2
:104BF0003A2063616E27742067657420686572656A
:104C00002121210D0A00000010B586B00200080025
:104C1000214C617800291AD0012A0BD101881F4844
:104C2000814236D01E48814233D000BF1DA0FCF720
:104C300093FE2EE06946FFF71BFB00282AD068464A
:104C4000FFF776FC401E8041C043C00F22E0A178F0
:104C5000002906D117A0FCF77FFE0120A07020706C
:104C600017E000BF29A100F055F800280AD1012063
:104C700060700020207000BF13A0FCF76DFE00BF25
:104C800016A004E01CA0FCF767FE00BF09A0FCF71B
:104C900063FE002006B010BD3C0300205B44000012
:104CA0005B4300004374726C436F64653A25780A75
:104CB0000D000000515F5368656C6C205061737388
:104CC000776F72643A00000050617373776F72649B
:104CD000205269676874210D0A000000496E7075E2
:104CE0007420226828292220746F20676574206848
:104CF000656C70210D0A000050617373776F7264E8
:104D00002057726F6E67210D0A0000003132333474
:104D10003536000001E0401C491C0A7803789342B4
:104D200003D1002BF7D10020704702D20020C043EE
:104D300070470120704710B402E0401C491C521E0D
:104D4000002A0BD00B7804789C4205D002D20020B8
:104D5000C04304E0012002E0002CEED1002010BC92
:104D60007047FEE765642874696D292020202020A3
:104D70002020202020202020202020202020202D26
:104D80002D2D2D2D2D20456E65726779206465745B
:104D9000656374696F6E0D0A0000000068282920A1
:104DA0002020202020202020202020202020202003
:104DB000202020202020202D2D2D2D2D2D20416C38
:104DC0006C2074686520636F6D6D616E6473206F15
:104DD0006620746869732064656D6F0D0A000000B9
:104DE000696E666F28292020202020202020202086
:104DF00020202020202020202020202D2D2D2D2D72
:104E00002D205072696E74206F7574207261646910
:104E10006F206368616E6E656C277320696E666FC4
:104E20000D0A00006C697374656E2829202020200B
:104E30002020202020202020202020202020202D65
:104E40002D2D2D2D2D20456E61626C6520726561C2
:104E500064696F206368616E6E656C20746F206C8E
:104E6000697374656E2064617461206672616D653A
:104E70000D0A000072657365742829202020202007
:104E80002020202020202020202020202020202D15
:104E90002D2D2D2D2D20526573657420726164694E
:104EA0006F206368616E6E656C0D0A0073656E64D9
:104EB000286C656E6774682920202020202020201F
:104EC000202020202020202D2D2D2D2D2D2053651C
:104ED0006E64206F7574206F6E65207261646F6EF2
:104EE0002076616C7565206672616D6528646174F9
:104EF00061206C656E677468203D3D206C656E674F
:104F0000746820696E2062797465290D0A000000BA
:104F100073657462616E64776964746828487A297D
:104F200020202020202020202020202D2D2D2D2D40
:104F30002D205365747570206E65772062616E64F4
:104F400077696474680D0A007365746269747261CC
:104F5000746528626974726174652920202020209C
:104F60002020202D2D2D2D2D2D205365742062699C
:104F7000747261746520284C6F52613A20372C207E
:104F8000534637207E2031322C20534631323B208D
:104F900046534B3A20627073290D0A00736574669C
:104FA00072657128667265712920202020202020DA
:104FB000202020202020202D2D2D2D2D2D2053652B
:104FC000747570206E65772066726571206F66203B
:104FD0007468697320726164696F206368616E6EC2
:104FE000656C0D0A000000007365746D6F646528C0
:104FF0006D6F64756C6174696F6E292020202020AC
:105000002020202D2D2D2D2D2D20536574757020E1
:105010006D6F64756C6174696F6E20284C6F52619E
:105020003A20302C2046534B3A2031290D0A0000FB
:10503000736574707265616D626C65286C656E670E
:1050400074682920202020202020202D2D2D2D2D7A
:105050002D2053657420707265616D626C65206CE3
:10506000656E6774680D0A007365747077722870D6
:105070006F776572292020202020202020202020EA
:105080002020202D2D2D2D2D2D205365742054787A
:1050900020706F7765722028307E3230290D0A002B
:1050A00073746F70282920202020202020202020A9
:1050B00020202020202020202020202D2D2D2D2DAF
:1050C0002D2053746F70206373656E6420636F6D61
:1050D0006D616E6420616E6420736574207261641A
:1050E000696F206368616E6E656C20696E207374F1
:1050F0006F702073746174650D0A00002D2D2D2DC5
:105100002D2D2D2D2D2D2D2D2D2D2D2D2D2D2D2DCF
:105110002D2D2D2D2D2D2D2D2D2D2D2D2D2D2D2DBF
:105120002D2D2D2D2D2D2D2D2D2D2D2D2D2D0D0AF2
:1051300000000000757365723A2025642028302C29
:1051400020434C493B20312C204D4143290D0A007E
:10515000707265616D626C654C656E3A2025640DF8
:105160000A00000069734352433A20256428302C1A
:1051700020435243206F66663B20312C206F6E29FE
:105180000D0A00006475706C65783A20256420284B
:10519000302C2068616C66206475706C65783B20EB
:1051A000312C2066756C6C206475706C6578290DE7
:1051B0000A000000697350656E643A202564202857
:1051C000302C204E6F6E50656E6461626C653B20C2
:1051D000312C2050656E6461626C65290D0A0000F7
:1051E000525353493A202564200D0A00534E523A37
:1051F000202564200D0A0000626974726174653AAA
:105200002025646270730D0A0000000062616E6404
:1052100077696474683A202564487A0D0A000000B2
:1052200073656E645F706F7765723A2025646442BF
:105230006D0D0A00436C69526164696F5F73657438
:1052400062616E6477696474683A20546869732097
:10525000726164696F206368616E6E656C2068615D
:1052600073207468652073616D652062616E647778
:105270006964746820282564487A29210D0A000091
:10528000436C69526164696F5F73657462616E64D7
:1052900077696474683A20537461727420746F2063
:1052A0007365747570207468652062616E647769D7
:1052B00064746820282564487A29206F662072610A
:1052C00064696F206368616E6E656C210D0A000071
:1052D000436C69526164696F5F736574626974726B
:1052E0006174653A205468697320726164696F2043
:1052F0006368616E6E656C206861732074686520F8
:1053000073616D652062697472617465202825641B
:105310002920696E2046534B206D6F6465210D0A6C
:1053200000000000436C69526164696F5F736574CB
:10533000626974726174653A2043616E6E6F7420A5
:1053400073656E64206F7574206461746120667289
:10535000616D65207768696C652074686973206386
:1053600068616E6E656C20697320696E206275736A
:105370007920737461746528256429210D0A000061
:105380005365747570207468652066726571206F4E
:105390006620726164696F206368616E6E656C205F
:1053A000746F202564487A210D0A000053657475D6
:1053B0007020707265616D626C65206C656E6774DB
:1053C000682028256429206F6620726164696F2037
:1053D0006368616E6E656C210D0A00002D2D2D2D08
:1053E0002D2D20726164696F206368616E6E656C3B
:1053F000207365742075736572202D2D2D2D2D2D34
:105400000D0A0000436C69526164696F5F736574D3
:10541000757365723A204E6F7420737570706F7279
:105420007465642075736572206964202825642979
:10543000210D0A00436C69526164696F5F73657482
:10544000757365723A2054686973206368616E6E83
:10545000656C20697320696E207468652073616DC6
:105460006520757365722069642028256429210DE3
:105470000A000000536574206E65772075736572AD
:10548000206964202825642920666F722072616477
:10549000696F206368616E6E656C210D0A00000003
:1054A00065640000766F69642065642875696E74B0
:1054B00033322074696D290068000000766F6964DA
:1054C000206828766F69642900000000696E666FA5
:1054D00000000000766F696420696E666F28766F41
:1054E000696429006C697374656E0000766F696485
:1054F000206C697374656E28766F696429000000FA
:105500007265736574000000766F6964207265735C
:10551000657428766F6964290000000073656E6405
:1055200000000000766F69642073656E64287569F9
:105530006E7438206C656E29000000006373656E20
:1055400064000000766F6964206373656E6428757B
:10555000696E7438206C656E290000007365746292
:10556000616E64776964746800000000766F696436
:105570002073657462616E64776964746828756904
:105580006E7433322066726571290000736574622F
:105590006974726174650000766F69642073657464
:1055A000626974726174652875696E743332206241
:1055B000697472617465290073657466726571003F
:1055C000766F696420736574667265712875696E9B
:1055D0007433322066726571290000007365746D42
:1055E0006F646500766F6964207365746D6F6465C0
:1055F0002875696E7438206D6F64756C6174696F9D
:105600006E290000736574707265616D626C65006F
:10561000766F696420736574707265616D626C6524
:105620002875696E7438206C656E29007365747016
:1056300077720000766F69642073657470777228E2
:1056400075696E743820706F7765722900000000EC
:105650007365747573657200766F69642073657421
:10566000757365722875696E743820757365722953
:105670000000000073746F7000000000766F6964B2
:105680002073746F7028766F69642900F0B589B053
:10569000002B6FD191426DD300256E4C2573A280F3
:1056A0002060E580258101214804FEF73DFC0121B1
:1056B0008803FEF743FC207B8000201800696649C0
:1056C000884229D101AFBD710120F87102203871E3
:1056D0009026F605012209213000FEF7A0FC0122E8
:1056E0000A213000FEF79BFC8020800001900320FF
:1056F000787101A93000FEF759FC8020C0000190AC
:1057000001A93000FEF752FC1B2069460870B08AE0
:10571000C021C9000143B18269464D7001208870E3
:105720006846FEF7DFFC0E9803900F98002801D121
:10573000049502E0802149010491059506900895A1
:105740000C20079003A9207B80002018006900F03E
:105750006DF90122B149207B80002018006900F01A
:10576000D5F90121207B80002018006900F0ACF9F8
:10577000002000E0012009B0F0BDF2B582B00024A5
:105780006946098900291DD00600A54D1001281879
:105790000090802731780098007B800028180069ED
:1057A00000F0A2F9280010300099097B89004058C8
:1057B000C1693940FCD0641C761C68460089A4B2DB
:1057C0008442E7D3200003B0F0BD38B5944C01010A
:1057D0006518297B890061180969CA69920611D583
:1057E000002802D100F03AF80CE0888C2968EA8899
:1057F0008854E888401CE880A98880B2884201D398
:105800000020E880287B800020180069FF210162C9
:1058100031BD70B5002819D4002A15D00E0014002F
:105820007F4D3178287B80002818006900F05CF9F2
:105830008021287B80002818006900F07DF900286D
:10584000F6D0761C641EECD1012070BD002070BD26
:1058500000000000B000002000380140F8B5704C96
:105860006E4F3900207B80002018006900F06BF932
:10587000002800D1D0E0207B80002018006900F0D3
:1058800037F9C0B2674D697900292FD06A18521EC6
:105890001070022927D10026AE700A21207B8000DB
:1058A0002018006900F020F98021207B800020185A
:1058B000006900F041F90028F6D00D21207B80001E
:1058C0002018006900F010F98021207B800020184A
:1058D000006900F031F90028F6D029000120FFF717
:1058E00093F96E7191E0491C69718EE00D282AD1FF
:1058F0000026297969180E720A21207B8000201861
:10590000006900F0F1F88021207B800020180069F8
:1059100000F012F90028F6D00D21207B800020181D
:10592000006900F0E1F88021207B800020180069E8
:1059300000F002F90028F6D0290008310020FFF716
:1059400063F92E7161E0082839D12979002957D0EF
:10595000481E28710021C0B2281801720821207B3E
:1059600080002018006900F0BFF88021207B8000B3
:105970002018006900F0E0F80028F6D02021207BF4
:1059800080002018006900F0AFF88021207B8000A3
:105990002018006900F0D0F80028F6D00821207BFC
:1059A00080002018006900F09FF88021207B800093
:1059B0002018006900F0C0F8002821D1F5E7202860
:1059C0001ADB29796B181872491C29711649097854
:1059D000002900D02A200100207B800020180069C7
:1059E00000F082F88021207B80002018006900F000
:1059F000A3F8002804D1F5E71B2801D10120687124
:105A00002879802801DB401E28713900207B800026
:105A10002018006900F0B4F8F1BD00000501050090
:105A2000B0000020A80200203C030020F0B58BB09D
:105A300004000D00206801218843206060682F4920
:105A40000140A8680843606020682D4901406868EB
:105A50000843E9680143286908432060A068294990
:105A6000014068690843A0606846FEF7ABF91C482E
:105A7000844201D1069E0AE01A48844201D1079E61
:105A800005E01D48844201D1089E00E0029E2D6879
:105A90002068000400D5760030002900FEF799F850
:105AA000070030002900FEF794F86808814200D30F
:105AB0007F1C2068000404D51348384039074F0F75
:105AC0000743A7810BB0F0BD0029016803D0012274
:105AD0000A43026070470122914301607047000051
